{
  "contractName": "BTCUtils",
  "abi": [
    {
      "constant": true,
      "inputs": [],
      "name": "DIFF1_TARGET",
      "outputs": [
        {
          "internalType": "uint256",
          "name": "",
          "type": "uint256"
        }
      ],
      "payable": false,
      "stateMutability": "view",
      "type": "function"
    },
    {
      "constant": true,
      "inputs": [],
      "name": "ERR_BAD_ARG",
      "outputs": [
        {
          "internalType": "uint256",
          "name": "",
          "type": "uint256"
        }
      ],
      "payable": false,
      "stateMutability": "view",
      "type": "function"
    },
    {
      "constant": true,
      "inputs": [],
      "name": "RETARGET_PERIOD",
      "outputs": [
        {
          "internalType": "uint256",
          "name": "",
          "type": "uint256"
        }
      ],
      "payable": false,
      "stateMutability": "view",
      "type": "function"
    },
    {
      "constant": true,
      "inputs": [],
      "name": "RETARGET_PERIOD_BLOCKS",
      "outputs": [
        {
          "internalType": "uint256",
          "name": "",
          "type": "uint256"
        }
      ],
      "payable": false,
      "stateMutability": "view",
      "type": "function"
    }
  ],
  "bytecode": "0x60d1610025600b82828239805160001a60731461001857fe5b30600052607381538281f3fe730000000000000000000000000000000000000000301460806040526004361060515760003560e01c8063056e04ec1460565780638cc7156914606e5780638db69e60146074578063d4258ca714607a575b600080fd5b605c6080565b60408051918252519081900360200190f35b605c6087565b605c608d565b605c6093565b6212750081565b6107e081565b60001981565b61ffff60d01b8156fea265627a7a72315820c698b384a60d7308692167697814c7f3554f9856ad77f463574a495cd8e3124864736f6c63430005110032",
  "source": "pragma solidity ^0.5.10;\n\n/** @title BitcoinSPV */\n/** @author Summa (https://summa.one) */\n\nimport {BytesLib} from \"./BytesLib.sol\";\nimport {SafeMath} from \"./SafeMath.sol\";\n\nlibrary BTCUtils {\n    using BytesLib for bytes;\n    using SafeMath for uint256;\n\n    // The target at minimum Difficulty. Also the target of the genesis block\n    uint256 public constant DIFF1_TARGET = 0xffff0000000000000000000000000000000000000000000000000000;\n\n    uint256 public constant RETARGET_PERIOD = 2 * 7 * 24 * 60 * 60;  // 2 weeks in seconds\n    uint256 public constant RETARGET_PERIOD_BLOCKS = 2016;  // 2 weeks in blocks\n\n    uint256 public constant ERR_BAD_ARG = 0xffffffffffffffffffffffffffffffffffffffffffffffffffffffffffffffff;\n\n    /* ***** */\n    /* UTILS */\n    /* ***** */\n\n    /// @notice         Determines the length of a VarInt in bytes\n    /// @dev            A VarInt of >1 byte is prefixed with a flag indicating its length\n    /// @param _flag    The first byte of a VarInt\n    /// @return         The number of non-flag bytes in the VarInt\n    function determineVarIntDataLength(bytes memory _flag) internal pure returns (uint8) {\n        if (uint8(_flag[0]) == 0xff) {\n            return 8;  // one-byte flag, 8 bytes data\n        }\n        if (uint8(_flag[0]) == 0xfe) {\n            return 4;  // one-byte flag, 4 bytes data\n        }\n        if (uint8(_flag[0]) == 0xfd) {\n            return 2;  // one-byte flag, 2 bytes data\n        }\n\n        return 0;  // flag is data\n    }\n\n    /// @notice     Parse a VarInt into its data length and the number it represents\n    /// @dev        Useful for Parsing Vins and Vouts. Returns ERR_BAD_ARG if insufficient bytes.\n    ///             Caller SHOULD explicitly handle this case (or bubble it up)\n    /// @param _b   A byte-string starting with a VarInt\n    /// @return     number of bytes in the encoding (not counting the tag), the encoded int\n    function parseVarInt(bytes memory _b) internal pure returns (uint256, uint256) {\n        uint8 _dataLen = determineVarIntDataLength(_b);\n\n        if (_dataLen == 0) {\n            return (0, uint8(_b[0]));\n        }\n        if (_b.length < 1 + _dataLen) {\n            return (ERR_BAD_ARG, 0);\n        }\n        uint256 _number = bytesToUint(reverseEndianness(_b.slice(1, _dataLen)));\n        return (_dataLen, _number);\n    }\n\n    /// @notice          Changes the endianness of a byte array\n    /// @dev             Returns a new, backwards, bytes\n    /// @param _b        The bytes to reverse\n    /// @return          The reversed bytes\n    function reverseEndianness(bytes memory _b) internal pure returns (bytes memory) {\n        bytes memory _newValue = new bytes(_b.length);\n\n        for (uint i = 0; i < _b.length; i++) {\n            _newValue[_b.length - i - 1] = _b[i];\n        }\n\n        return _newValue;\n    }\n\n    /// @notice          Changes the endianness of a uint256\n    /// @dev             https://graphics.stanford.edu/~seander/bithacks.html#ReverseParallel\n    /// @param _b        The unsigned integer to reverse\n    /// @return          The reversed value\n    function reverseUint256(uint256 _b) internal pure returns (uint256 v) {\n        v = _b;\n\n        // swap bytes\n        v = ((v >> 8) & 0x00FF00FF00FF00FF00FF00FF00FF00FF00FF00FF00FF00FF00FF00FF00FF00FF) |\n            ((v & 0x00FF00FF00FF00FF00FF00FF00FF00FF00FF00FF00FF00FF00FF00FF00FF00FF) << 8);\n        // swap 2-byte long pairs\n        v = ((v >> 16) & 0x0000FFFF0000FFFF0000FFFF0000FFFF0000FFFF0000FFFF0000FFFF0000FFFF) |\n            ((v & 0x0000FFFF0000FFFF0000FFFF0000FFFF0000FFFF0000FFFF0000FFFF0000FFFF) << 16);\n        // swap 4-byte long pairs\n        v = ((v >> 32) & 0x00000000FFFFFFFF00000000FFFFFFFF00000000FFFFFFFF00000000FFFFFFFF) |\n            ((v & 0x00000000FFFFFFFF00000000FFFFFFFF00000000FFFFFFFF00000000FFFFFFFF) << 32);\n        // swap 8-byte long pairs\n        v = ((v >> 64) & 0x0000000000000000FFFFFFFFFFFFFFFF0000000000000000FFFFFFFFFFFFFFFF) |\n            ((v & 0x0000000000000000FFFFFFFFFFFFFFFF0000000000000000FFFFFFFFFFFFFFFF) << 64);\n        // swap 16-byte long pairs\n        v = (v >> 128) | (v << 128);\n    }\n\n    /// @notice          Converts big-endian bytes to a uint\n    /// @dev             Traverses the byte array and sums the bytes\n    /// @param _b        The big-endian bytes-encoded integer\n    /// @return          The integer representation\n    function bytesToUint(bytes memory _b) internal pure returns (uint256) {\n        uint256 _number;\n\n        for (uint i = 0; i < _b.length; i++) {\n            _number = _number + uint8(_b[i]) * (2 ** (8 * (_b.length - (i + 1))));\n        }\n\n        return _number;\n    }\n\n    /// @notice          Get the last _num bytes from a byte array\n    /// @param _b        The byte array to slice\n    /// @param _num      The number of bytes to extract from the end\n    /// @return          The last _num bytes of _b\n    function lastBytes(bytes memory _b, uint256 _num) internal pure returns (bytes memory) {\n        uint256 _start = _b.length.sub(_num);\n\n        return _b.slice(_start, _num);\n    }\n\n    /// @notice          Implements bitcoin's hash160 (rmd160(sha2()))\n    /// @dev             abi.encodePacked changes the return to bytes instead of bytes32\n    /// @param _b        The pre-image\n    /// @return          The digest\n    function hash160(bytes memory _b) internal pure returns (bytes memory) {\n        return abi.encodePacked(ripemd160(abi.encodePacked(sha256(_b))));\n    }\n\n    /// @notice          Implements bitcoin's hash256 (double sha2)\n    /// @dev             abi.encodePacked changes the return to bytes instead of bytes32\n    /// @param _b        The pre-image\n    /// @return          The digest\n    function hash256(bytes memory _b) internal pure returns (bytes32) {\n        return sha256(abi.encodePacked(sha256(_b)));\n    }\n\n    /// @notice          Implements bitcoin's hash256 (double sha2)\n    /// @dev             sha2 is precompiled smart contract located at address(2)\n    /// @param _b        The pre-image\n    /// @return          The digest\n    function hash256View(bytes memory _b) internal view returns (bytes32 res) {\n        // solium-disable-next-line security/no-inline-assembly\n        assembly {\n            let ptr := mload(0x40)\n            pop(staticcall(gas, 2, add(_b, 32), mload(_b), ptr, 32))\n            pop(staticcall(gas, 2, ptr, 32, ptr, 32))\n            res := mload(ptr)\n        }\n    }\n\n    /* ************ */\n    /* Legacy Input */\n    /* ************ */\n\n    /// @notice          Extracts the nth input from the vin (0-indexed)\n    /// @dev             Iterates over the vin. If you need to extract several, write a custom function\n    /// @param _vin      The vin as a tightly-packed byte array\n    /// @param _index    The 0-indexed location of the input to extract\n    /// @return          The input as a byte array\n    function extractInputAtIndex(bytes memory _vin, uint256 _index) internal pure returns (bytes memory) {\n        uint256 _varIntDataLen;\n        uint256 _nIns;\n\n        (_varIntDataLen, _nIns) = parseVarInt(_vin);\n        require(_varIntDataLen != ERR_BAD_ARG, \"Read overrun during VarInt parsing\");\n        require(_index < _nIns, \"Vin read overrun\");\n\n        bytes memory _remaining;\n\n        uint256 _len = 0;\n        uint256 _offset = 1 + _varIntDataLen;\n\n        for (uint256 _i = 0; _i < _index; _i ++) {\n            _remaining = _vin.slice(_offset, _vin.length - _offset);\n            _len = determineInputLength(_remaining);\n            require(_len != ERR_BAD_ARG, \"Bad VarInt in scriptSig\");\n            _offset = _offset + _len;\n        }\n\n        _remaining = _vin.slice(_offset, _vin.length - _offset);\n        _len = determineInputLength(_remaining);\n        require(_len != ERR_BAD_ARG, \"Bad VarInt in scriptSig\");\n        return _vin.slice(_offset, _len);\n    }\n\n    /// @notice          Determines whether an input is legacy\n    /// @dev             False if no scriptSig, otherwise True\n    /// @param _input    The input\n    /// @return          True for legacy, False for witness\n    function isLegacyInput(bytes memory _input) internal pure returns (bool) {\n        return _input.keccak256Slice(36, 1) != keccak256(hex\"00\");\n    }\n\n    /// @notice          Determines the length of a scriptSig in an input\n    /// @dev             Will return 0 if passed a witness input.\n    /// @param _input    The LEGACY input\n    /// @return          The length of the script sig\n    function extractScriptSigLen(bytes memory _input) internal pure returns (uint256, uint256) {\n        if (_input.length < 37) {\n            return (ERR_BAD_ARG, 0);\n        }\n        bytes memory _afterOutpoint = _input.slice(36, _input.length - 36);\n\n        uint256 _varIntDataLen;\n        uint256 _scriptSigLen;\n        (_varIntDataLen, _scriptSigLen) = parseVarInt(_afterOutpoint);\n\n        return (_varIntDataLen, _scriptSigLen);\n    }\n\n    /// @notice          Determines the length of an input from its scriptSig\n    /// @dev             36 for outpoint, 1 for scriptSig length, 4 for sequence\n    /// @param _input    The input\n    /// @return          The length of the input in bytes\n    function determineInputLength(bytes memory _input) internal pure returns (uint256) {\n        uint256 _varIntDataLen;\n        uint256 _scriptSigLen;\n        (_varIntDataLen, _scriptSigLen) = extractScriptSigLen(_input);\n        if (_varIntDataLen == ERR_BAD_ARG) {\n            return ERR_BAD_ARG;\n        }\n\n        return 36 + 1 + _varIntDataLen + _scriptSigLen + 4;\n    }\n\n    /// @notice          Extracts the LE sequence bytes from an input\n    /// @dev             Sequence is used for relative time locks\n    /// @param _input    The LEGACY input\n    /// @return          The sequence bytes (LE uint)\n    function extractSequenceLELegacy(bytes memory _input) internal pure returns (bytes memory) {\n        uint256 _varIntDataLen;\n        uint256 _scriptSigLen;\n        (_varIntDataLen, _scriptSigLen) = extractScriptSigLen(_input);\n        require(_varIntDataLen != ERR_BAD_ARG, \"Bad VarInt in scriptSig\");\n        return _input.slice(36 + 1 + _varIntDataLen + _scriptSigLen, 4);\n    }\n\n    /// @notice          Extracts the sequence from the input\n    /// @dev             Sequence is a 4-byte little-endian number\n    /// @param _input    The LEGACY input\n    /// @return          The sequence number (big-endian uint)\n    function extractSequenceLegacy(bytes memory _input) internal pure returns (uint32) {\n        bytes memory _leSeqence = extractSequenceLELegacy(_input);\n        bytes memory _beSequence = reverseEndianness(_leSeqence);\n        return uint32(bytesToUint(_beSequence));\n    }\n    /// @notice          Extracts the VarInt-prepended scriptSig from the input in a tx\n    /// @dev             Will return hex\"00\" if passed a witness input\n    /// @param _input    The LEGACY input\n    /// @return          The length-prepended scriptSig\n    function extractScriptSig(bytes memory _input) internal pure returns (bytes memory) {\n        uint256 _varIntDataLen;\n        uint256 _scriptSigLen;\n        (_varIntDataLen, _scriptSigLen) = extractScriptSigLen(_input);\n        require(_varIntDataLen != ERR_BAD_ARG, \"Bad VarInt in scriptSig\");\n        return _input.slice(36, 1 + _varIntDataLen + _scriptSigLen);\n    }\n\n\n    /* ************* */\n    /* Witness Input */\n    /* ************* */\n\n    /// @notice          Extracts the LE sequence bytes from an input\n    /// @dev             Sequence is used for relative time locks\n    /// @param _input    The WITNESS input\n    /// @return          The sequence bytes (LE uint)\n    function extractSequenceLEWitness(bytes memory _input) internal pure returns (bytes memory) {\n        return _input.slice(37, 4);\n    }\n\n    /// @notice          Extracts the sequence from the input in a tx\n    /// @dev             Sequence is a 4-byte little-endian number\n    /// @param _input    The WITNESS input\n    /// @return          The sequence number (big-endian uint)\n    function extractSequenceWitness(bytes memory _input) internal pure returns (uint32) {\n        bytes memory _leSeqence = extractSequenceLEWitness(_input);\n        bytes memory _inputeSequence = reverseEndianness(_leSeqence);\n        return uint32(bytesToUint(_inputeSequence));\n    }\n\n    /// @notice          Extracts the outpoint from the input in a tx\n    /// @dev             32-byte tx id with 4-byte index\n    /// @param _input    The input\n    /// @return          The outpoint (LE bytes of prev tx hash + LE bytes of prev tx index)\n    function extractOutpoint(bytes memory _input) internal pure returns (bytes memory) {\n        return _input.slice(0, 36);\n    }\n\n    /// @notice          Extracts the outpoint tx id from an input\n    /// @dev             32-byte tx id\n    /// @param _input    The input\n    /// @return          The tx id (little-endian bytes)\n    function extractInputTxIdLE(bytes memory _input) internal pure returns (bytes32) {\n        return _input.slice(0, 32).toBytes32();\n    }\n\n    /// @notice          Extracts the LE tx input index from the input in a tx\n    /// @dev             4-byte tx index\n    /// @param _input    The input\n    /// @return          The tx index (little-endian bytes)\n    function extractTxIndexLE(bytes memory _input) internal pure returns (bytes memory) {\n        return _input.slice(32, 4);\n    }\n\n    /* ****** */\n    /* Output */\n    /* ****** */\n\n    /// @notice          Determines the length of an output\n    /// @dev             Works with any properly formatted output\n    /// @param _output   The output\n    /// @return          The length indicated by the prefix, error if invalid length\n    function determineOutputLength(bytes memory _output) internal pure returns (uint256) {\n        if (_output.length < 9) {\n            return ERR_BAD_ARG;\n        }\n        bytes memory _afterValue = _output.slice(8, _output.length - 8);\n\n        uint256 _varIntDataLen;\n        uint256 _scriptPubkeyLength;\n        (_varIntDataLen, _scriptPubkeyLength) = parseVarInt(_afterValue);\n\n        if (_varIntDataLen == ERR_BAD_ARG) {\n            return ERR_BAD_ARG;\n        }\n\n        // 8-byte value, 1-byte for tag itself\n        return 8 + 1 + _varIntDataLen + _scriptPubkeyLength;\n    }\n\n    /// @notice          Extracts the output at a given index in the TxOuts vector\n    /// @dev             Iterates over the vout. If you need to extract multiple, write a custom function\n    /// @param _vout     The _vout to extract from\n    /// @param _index    The 0-indexed location of the output to extract\n    /// @return          The specified output\n    function extractOutputAtIndex(bytes memory _vout, uint256 _index) internal pure returns (bytes memory) {\n        uint256 _varIntDataLen;\n        uint256 _nOuts;\n\n        (_varIntDataLen, _nOuts) = parseVarInt(_vout);\n        require(_varIntDataLen != ERR_BAD_ARG, \"Read overrun during VarInt parsing\");\n        require(_index < _nOuts, \"Vout read overrun\");\n\n        bytes memory _remaining;\n\n        uint256 _len = 0;\n        uint256 _offset = 1 + _varIntDataLen;\n\n        for (uint256 _i = 0; _i < _index; _i ++) {\n            _remaining = _vout.slice(_offset, _vout.length - _offset);\n            _len = determineOutputLength(_remaining);\n            require(_len != ERR_BAD_ARG, \"Bad VarInt in scriptPubkey\");\n            _offset += _len;\n        }\n\n        _remaining = _vout.slice(_offset, _vout.length - _offset);\n        _len = determineOutputLength(_remaining);\n        require(_len != ERR_BAD_ARG, \"Bad VarInt in scriptPubkey\");\n        return _vout.slice(_offset, _len);\n    }\n\n    /// @notice          Extracts the value bytes from the output in a tx\n    /// @dev             Value is an 8-byte little-endian number\n    /// @param _output   The output\n    /// @return          The output value as LE bytes\n    function extractValueLE(bytes memory _output) internal pure returns (bytes memory) {\n        return _output.slice(0, 8);\n    }\n\n    /// @notice          Extracts the value from the output in a tx\n    /// @dev             Value is an 8-byte little-endian number\n    /// @param _output   The output\n    /// @return          The output value\n    function extractValue(bytes memory _output) internal pure returns (uint64) {\n        bytes memory _leValue = extractValueLE(_output);\n        bytes memory _beValue = reverseEndianness(_leValue);\n        return uint64(bytesToUint(_beValue));\n    }\n\n    /// @notice          Extracts the data from an op return output\n    /// @dev             Returns hex\"\" if no data or not an op return\n    /// @param _output   The output\n    /// @return          Any data contained in the opreturn output, null if not an op return\n    function extractOpReturnData(bytes memory _output) internal pure returns (bytes memory) {\n        if (_output.keccak256Slice(9, 1) != keccak256(hex\"6a\")) {\n            return hex\"\";\n        }\n        bytes memory _dataLen = _output.slice(10, 1);\n        return _output.slice(11, bytesToUint(_dataLen));\n    }\n\n    /// @notice          Extracts the hash from the output script\n    /// @dev             Determines type by the length prefix and validates format\n    /// @param _output   The output\n    /// @return          The hash committed to by the pk_script, or null for errors\n    function extractHash(bytes memory _output) internal pure returns (bytes memory) {\n        uint8 _scriptLen = uint8(_output[8]);\n\n        // don't have to worry about overflow here.\n        // if _scriptLen + 9 overflows, then output.length would have to be < 9\n        // for this check to pass. if it's < 9, then we errored when assigning\n        // _scriptLen\n        if (_scriptLen + 9 != _output.length) {\n            return hex\"\";\n        }\n\n        if (uint8(_output[9]) == 0) {\n            if (_scriptLen < 2) {\n                return hex\"\";\n            }\n            uint256 _payloadLen = uint8(_output[10]);\n            // Check for maliciously formatted witness outputs.\n            // No need to worry about underflow as long b/c of the `< 2` check\n            if (_payloadLen != _scriptLen - 2 || (_payloadLen != 0x20 && _payloadLen != 0x14)) {\n                return hex\"\";\n            }\n            return _output.slice(11, _payloadLen);\n        } else {\n            bytes32 _tag = _output.keccak256Slice(8, 3);\n            // p2pkh\n            if (_tag == keccak256(hex\"1976a9\")) {\n                // Check for maliciously formatted p2pkh\n                // No need to worry about underflow, b/c of _scriptLen check\n                if (uint8(_output[11]) != 0x14 ||\n                    _output.keccak256Slice(_output.length - 2, 2) != keccak256(hex\"88ac\")) {\n                    return hex\"\";\n                }\n                return _output.slice(12, 20);\n            //p2sh\n            } else if (_tag == keccak256(hex\"17a914\")) {\n                // Check for maliciously formatted p2sh\n                // No need to worry about underflow, b/c of _scriptLen check\n                if (uint8(_output[_output.length - 1]) != 0x87) {\n                    return hex\"\";\n                }\n                return _output.slice(11, 20);\n            }\n        }\n        return hex\"\";  /* NB: will trigger on OPRETURN and any non-standard that doesn't overrun */\n    }\n\n    /* ********** */\n    /* Witness TX */\n    /* ********** */\n\n\n    /// @notice      Checks that the vin passed up is properly formatted\n    /// @dev         Consider a vin with a valid vout in its scriptsig\n    /// @param _vin  Raw bytes length-prefixed input vector\n    /// @return      True if it represents a validly formatted vin\n    function validateVin(bytes memory _vin) internal pure returns (bool) {\n        uint256 _varIntDataLen;\n        uint256 _nIns;\n\n        (_varIntDataLen, _nIns) = parseVarInt(_vin);\n\n        // Not valid if it says there are too many or no inputs\n        if (_nIns == 0 || _varIntDataLen == ERR_BAD_ARG) {\n            return false;\n        }\n\n        uint256 _offset = 1 + _varIntDataLen;\n\n        for (uint256 i = 0; i < _nIns; i++) {\n            // If we're at the end, but still expect more\n            if (_offset >= _vin.length) {\n                return false;\n            }\n\n            // Grab the next input and determine its length.\n            bytes memory _next = _vin.slice(_offset, _vin.length - _offset);\n            uint256 _nextLen = determineInputLength(_next);\n            if (_nextLen == ERR_BAD_ARG) {\n                return false;\n            }\n\n            // Increase the offset by that much\n            _offset += _nextLen;\n        }\n\n        // Returns false if we're not exactly at the end\n        return _offset == _vin.length;\n    }\n\n    /// @notice      Checks that the vout passed up is properly formatted\n    /// @dev         Consider a vout with a valid scriptpubkey\n    /// @param _vout Raw bytes length-prefixed output vector\n    /// @return      True if it represents a validly formatted vout\n    function validateVout(bytes memory _vout) internal pure returns (bool) {\n        uint256 _varIntDataLen;\n        uint256 _nOuts;\n\n        (_varIntDataLen, _nOuts) = parseVarInt(_vout);\n\n        // Not valid if it says there are too many or no outputs\n        if (_nOuts == 0 || _varIntDataLen == ERR_BAD_ARG) {\n            return false;\n        }\n\n        uint256 _offset = 1 + _varIntDataLen;\n\n        for (uint256 i = 0; i < _nOuts; i++) {\n            // If we're at the end, but still expect more\n            if (_offset >= _vout.length) {\n                return false;\n            }\n\n            // Grab the next output and determine its length.\n            // Increase the offset by that much\n            bytes memory _next = _vout.slice(_offset, _vout.length - _offset);\n            uint256 _nextLen = determineOutputLength(_next);\n            if (_nextLen == ERR_BAD_ARG) {\n                return false;\n            }\n\n            _offset += _nextLen;\n        }\n\n        // Returns false if we're not exactly at the end\n        return _offset == _vout.length;\n    }\n\n\n\n    /* ************ */\n    /* Block Header */\n    /* ************ */\n\n    /// @notice          Extracts the transaction merkle root from a block header\n    /// @dev             Use verifyHash256Merkle to verify proofs with this root\n    /// @param _header   The header\n    /// @return          The merkle root (little-endian)\n    function extractMerkleRootLE(bytes memory _header) internal pure returns (bytes memory) {\n        return _header.slice(36, 32);\n    }\n\n    /// @notice          Extracts the target from a block header\n    /// @dev             Target is a 256-bit number encoded as a 3-byte mantissa and 1-byte exponent\n    /// @param _header   The header\n    /// @return          The target threshold\n    function extractTarget(bytes memory _header) internal pure returns (uint256) {\n        bytes memory _m = _header.slice(72, 3);\n        uint8 _e = uint8(_header[75]);\n        uint256 _mantissa = bytesToUint(reverseEndianness(_m));\n        uint _exponent = _e - 3;\n\n        return _mantissa * (256 ** _exponent);\n    }\n\n    /// @notice          Calculate difficulty from the difficulty 1 target and current target\n    /// @dev             Difficulty 1 is 0x1d00ffff on mainnet and testnet\n    /// @dev             Difficulty 1 is a 256-bit number encoded as a 3-byte mantissa and 1-byte exponent\n    /// @param _target   The current target\n    /// @return          The block difficulty (bdiff)\n    function calculateDifficulty(uint256 _target) internal pure returns (uint256) {\n        // Difficulty 1 calculated from 0x1d00ffff\n        return DIFF1_TARGET.div(_target);\n    }\n\n    /// @notice          Extracts the previous block's hash from a block header\n    /// @dev             Block headers do NOT include block number :(\n    /// @param _header   The header\n    /// @return          The previous block's hash (little-endian)\n    function extractPrevBlockLE(bytes memory _header) internal pure returns (bytes memory) {\n        return _header.slice(4, 32);\n    }\n\n    /// @notice          Extracts the timestamp from a block header\n    /// @dev             Time is not 100% reliable\n    /// @param _header   The header\n    /// @return          The timestamp (little-endian bytes)\n    function extractTimestampLE(bytes memory _header) internal pure returns (bytes memory) {\n        return _header.slice(68, 4);\n    }\n\n    /// @notice          Extracts the timestamp from a block header\n    /// @dev             Time is not 100% reliable\n    /// @param _header   The header\n    /// @return          The timestamp (uint)\n    function extractTimestamp(bytes memory _header) internal pure returns (uint32) {\n        return uint32(bytesToUint(reverseEndianness(extractTimestampLE(_header))));\n    }\n\n    /// @notice          Extracts the expected difficulty from a block header\n    /// @dev             Does NOT verify the work\n    /// @param _header   The header\n    /// @return          The difficulty as an integer\n    function extractDifficulty(bytes memory _header) internal pure returns (uint256) {\n        return calculateDifficulty(extractTarget(_header));\n    }\n\n    /// @notice          Concatenates and hashes two inputs for merkle proving\n    /// @param _a        The first hash\n    /// @param _b        The second hash\n    /// @return          The double-sha256 of the concatenated hashes\n    function _hash256MerkleStep(bytes memory _a, bytes memory _b) internal pure returns (bytes32) {\n        return hash256(abi.encodePacked(_a, _b));\n    }\n\n    /// @notice          Verifies a Bitcoin-style merkle tree\n    /// @dev             Leaves are 0-indexed.\n    /// @param _proof    The proof. Tightly packed LE sha256 hashes. The last hash is the root\n    /// @param _index    The index of the leaf\n    /// @return          true if the proof is valid, else false\n    function verifyHash256Merkle(bytes memory _proof, uint _index) internal pure returns (bool) {\n        // Not an even number of hashes\n        if (_proof.length % 32 != 0) {\n            return false;\n        }\n\n        // Special case for coinbase-only blocks\n        if (_proof.length == 32) {\n            return true;\n        }\n\n        // Should never occur\n        if (_proof.length == 64) {\n            return false;\n        }\n\n        uint _idx = _index;\n        bytes32 _root = _proof.slice(_proof.length - 32, 32).toBytes32();\n        bytes32 _current = _proof.slice(0, 32).toBytes32();\n\n        for (uint i = 1; i < (_proof.length.div(32)) - 1; i++) {\n            if (_idx % 2 == 1) {\n                _current = _hash256MerkleStep(_proof.slice(i * 32, 32), abi.encodePacked(_current));\n            } else {\n                _current = _hash256MerkleStep(abi.encodePacked(_current), _proof.slice(i * 32, 32));\n            }\n            _idx = _idx >> 1;\n        }\n        return _current == _root;\n    }\n\n    /*\n    NB: https://github.com/bitcoin/bitcoin/blob/78dae8caccd82cfbfd76557f1fb7d7557c7b5edb/src/pow.cpp#L49-L72\n    NB: We get a full-bitlength target from this. For comparison with\n        header-encoded targets we need to mask it with the header target\n        e.g. (full & truncated) == truncated\n    */\n    /// @notice                 performs the bitcoin difficulty retarget\n    /// @dev                    implements the Bitcoin algorithm precisely\n    /// @param _previousTarget  the target of the previous period\n    /// @param _firstTimestamp  the timestamp of the first block in the difficulty period\n    /// @param _secondTimestamp the timestamp of the last block in the difficulty period\n    /// @return                 the new period's target threshold\n    function retargetAlgorithm(\n        uint256 _previousTarget,\n        uint256 _firstTimestamp,\n        uint256 _secondTimestamp\n    ) internal pure returns (uint256) {\n        uint256 _elapsedTime = _secondTimestamp.sub(_firstTimestamp);\n\n        // Normalize ratio to factor of 4 if very long or very short\n        if (_elapsedTime < RETARGET_PERIOD.div(4)) {\n            _elapsedTime = RETARGET_PERIOD.div(4);\n        }\n        if (_elapsedTime > RETARGET_PERIOD.mul(4)) {\n            _elapsedTime = RETARGET_PERIOD.mul(4);\n        }\n\n        /*\n          NB: high targets e.g. ffff0020 can cause overflows here\n              so we divide it by 256**2, then multiply by 256**2 later\n              we know the target is evenly divisible by 256**2, so this isn't an issue\n        */\n\n        uint256 _adjusted = _previousTarget.div(65536).mul(_elapsedTime);\n        return _adjusted.div(RETARGET_PERIOD).mul(65536);\n    }\n}\n",
  "sourcePath": "@summa-tx\\bitcoin-spv-sol\\contracts\\BTCUtils.sol",
  "compiler": {
    "name": "solc",
    "version": "0.5.17+commit.d19bba13.Emscripten.clang"
  },
  "schemaVersion": "3.3.1",
  "updatedAt": "2020-10-27T11:33:58.752Z",
  "devdoc": {
    "methods": {}
  },
  "userdoc": {
    "methods": {}
  }
}