{
  "contractName": "CloneFactoryStub",
  "abi": [
    {
      "anonymous": false,
      "inputs": [
        {
          "indexed": false,
          "internalType": "address",
          "name": "contractCloneAddress",
          "type": "address"
        }
      ],
      "name": "ContractCloneCreated",
      "type": "event"
    },
    {
      "constant": false,
      "inputs": [
        {
          "internalType": "address",
          "name": "_target",
          "type": "address"
        }
      ],
      "name": "createClone_exposed",
      "outputs": [
        {
          "internalType": "address",
          "name": "",
          "type": "address"
        }
      ],
      "payable": false,
      "stateMutability": "nonpayable",
      "type": "function"
    },
    {
      "constant": true,
      "inputs": [
        {
          "internalType": "address",
          "name": "_target",
          "type": "address"
        },
        {
          "internalType": "address",
          "name": "_query",
          "type": "address"
        }
      ],
      "name": "isClone_exposed",
      "outputs": [
        {
          "internalType": "bool",
          "name": "result",
          "type": "bool"
        }
      ],
      "payable": false,
      "stateMutability": "view",
      "type": "function"
    }
  ],
  "bytecode": "0x608060405234801561001057600080fd5b5061020c806100206000396000f3fe608060405234801561001057600080fd5b50600436106100365760003560e01c806331c1af881461003b57806358a1957e1461007d575b600080fd5b6100696004803603604081101561005157600080fd5b506001600160a01b03813581169160200135166100bf565b604080519115158252519081900360200190f35b6100a36004803603602081101561009357600080fd5b50356001600160a01b03166100d2565b604080516001600160a01b039092168252519081900360200190f35b60006100cb8383610124565b9392505050565b6000806100de83610185565b604080516001600160a01b038316815290519192507f7c4756b565f319158dae90132615a879c6ddb073043c07baa117a816b3c758f2919081900360200190a150919050565b6000808360601b905060405169363d3d373d3d3d363d7360b01b815281600a8201526e5af43d82803e903d91602b57fd5bf360881b601e82015260408101602d600082873c600d810151600d83015114815183511416935050505092915050565b6000808260601b9050604051733d602d80600a3d3981f3363d3d373d3d3d363d7360601b81528160148201526e5af43d82803e903d91602b57fd5bf360881b60288201526037816000f094935050505056fea265627a7a72315820e43aa65f8ccdce4c9d051ebfe98cdf3242cb89e5bd556202972c106b54f05e4264736f6c63430005110032",
  "source": "pragma solidity 0.5.17;\r\n\r\nimport {CloneFactory} from \"../../../contracts/proxy/CloneFactory.sol\";\r\n\r\ncontract CloneFactoryStub is CloneFactory {\r\n\r\n    event ContractCloneCreated(address contractCloneAddress);\r\n\r\n    function createClone_exposed(address _target) external returns (address){\r\n        address cloneAddress = createClone(_target);\r\n        emit ContractCloneCreated(cloneAddress);\r\n    }\r\n\r\n    function isClone_exposed(address _target, address _query)external view returns (bool result){\r\n        return isClone(_target, _query);\r\n    }\r\n}\r\n",
  "sourcePath": "C:/Users/Zyra/Desktop/pfk/tbtc/solidity/contracts/test/factory/CloneFactoryStub.sol",
  "compiler": {
    "name": "solc",
    "version": "0.5.17+commit.d19bba13.Emscripten.clang"
  },
  "schemaVersion": "3.3.1",
  "updatedAt": "2020-10-27T11:33:58.689Z",
  "devdoc": {
    "methods": {}
  },
  "userdoc": {
    "methods": {}
  }
}