{
  "contractName": "DepositFactoryAuthority",
  "abi": [
    {
      "constant": false,
      "inputs": [
        {
          "internalType": "address",
          "name": "_factory",
          "type": "address"
        }
      ],
      "name": "initialize",
      "outputs": [],
      "payable": false,
      "stateMutability": "nonpayable",
      "type": "function"
    }
  ],
  "bytecode": "0x60806040526000805460ff1916905534801561001a57600080fd5b5061018b8061002a6000396000f3fe608060405234801561001057600080fd5b506004361061002b5760003560e01c8063c4d66de814610030575b600080fd5b6100566004803603602081101561004657600080fd5b50356001600160a01b0316610058565b005b6001600160a01b03811661009d5760405162461bcd60e51b815260040180806020018281038252602381526020018061010f6023913960400191505060405180910390fd5b60005460ff16156100df5760405162461bcd60e51b81526004018080602001828103825260258152602001806101326025913960400191505060405180910390fd5b6000805460ff196001600160a01b0390931661010002610100600160a81b03199091161791909116600117905556fe466163746f72792063616e6e6f7420626520746865207a65726f20616464726573732e466163746f72792063616e206f6e6c7920626520696e697469616c697a6564206f6e63652ea265627a7a72315820b1ead7f42500963b5a830867aa4a00005bb734eb81512d3d05973847075d07ba64736f6c63430005110032",
  "source": "pragma solidity 0.5.17;\r\n\r\n/// @title  Deposit Factory Authority\r\n/// @notice Contract to secure function calls to the Deposit Factory.\r\n/// @dev    Secured by setting the depositFactory address and using the onlyFactory\r\n///         modifier on functions requiring restriction.\r\ncontract DepositFactoryAuthority {\r\n\r\n    bool internal _initialized = false;\r\n    address internal _depositFactory;\r\n\r\n    /// @notice Set the address of the System contract on contract\r\n    ///         initialization.\r\n    /// @dev Since this function is not access-controlled, it should be called\r\n    ///      transactionally with contract instantiation. In cases where a\r\n    ///      regular contract directly inherits from DepositFactoryAuthority,\r\n    ///      that should happen in the constructor. In cases where the inheritor\r\n    ///      is binstead used via a clone factory, the same function that\r\n    ///      creates a new clone should also trigger initialization.\r\n    function initialize(address _factory) public {\r\n        require(_factory != address(0), \"Factory cannot be the zero address.\");\r\n        require(! _initialized, \"Factory can only be initialized once.\");\r\n\r\n        _depositFactory = _factory;\r\n        _initialized = true;\r\n    }\r\n\r\n    /// @notice Function modifier ensures modified function is only called by set deposit factory.\r\n    modifier onlyFactory(){\r\n        require(_initialized, \"Factory initialization must have been called.\");\r\n        require(msg.sender == _depositFactory, \"Caller must be depositFactory contract\");\r\n        _;\r\n    }\r\n}\r\n",
  "sourcePath": "C:\\Users\\Zyra\\Desktop\\pfk\\tbtc\\solidity\\contracts\\system\\DepositFactoryAuthority.sol",
  "compiler": {
    "name": "solc",
    "version": "0.5.17+commit.d19bba13.Emscripten.clang"
  },
  "schemaVersion": "3.3.1",
  "updatedAt": "2020-10-27T11:33:58.563Z",
  "devdoc": {
    "details": "Secured by setting the depositFactory address and using the onlyFactory         modifier on functions requiring restriction.",
    "methods": {
      "initialize(address)": {
        "details": "Since this function is not access-controlled, it should be called      transactionally with contract instantiation. In cases where a      regular contract directly inherits from DepositFactoryAuthority,      that should happen in the constructor. In cases where the inheritor      is binstead used via a clone factory, the same function that      creates a new clone should also trigger initialization."
      }
    },
    "title": "Deposit Factory Authority"
  },
  "userdoc": {
    "methods": {
      "initialize(address)": {
        "notice": "Set the address of the System contract on contract         initialization."
      }
    },
    "notice": "Contract to secure function calls to the Deposit Factory."
  }
}