{
  "contractName": "ECDSAKeepFactoryStub",
  "abi": [
    {
      "constant": true,
      "inputs": [],
      "name": "keepAddress",
      "outputs": [
        {
          "internalType": "address",
          "name": "",
          "type": "address"
        }
      ],
      "payable": false,
      "stateMutability": "view",
      "type": "function"
    },
    {
      "constant": true,
      "inputs": [],
      "name": "keepOwner",
      "outputs": [
        {
          "internalType": "address",
          "name": "",
          "type": "address"
        }
      ],
      "payable": false,
      "stateMutability": "view",
      "type": "function"
    },
    {
      "constant": true,
      "inputs": [],
      "name": "minimumBondableValue",
      "outputs": [
        {
          "internalType": "uint256",
          "name": "",
          "type": "uint256"
        }
      ],
      "payable": false,
      "stateMutability": "view",
      "type": "function"
    },
    {
      "constant": true,
      "inputs": [],
      "name": "stakeLockDuration",
      "outputs": [
        {
          "internalType": "uint256",
          "name": "",
          "type": "uint256"
        }
      ],
      "payable": false,
      "stateMutability": "view",
      "type": "function"
    },
    {
      "constant": false,
      "inputs": [
        {
          "internalType": "uint256",
          "name": "",
          "type": "uint256"
        },
        {
          "internalType": "uint256",
          "name": "",
          "type": "uint256"
        },
        {
          "internalType": "address",
          "name": "_owner",
          "type": "address"
        },
        {
          "internalType": "uint256",
          "name": "",
          "type": "uint256"
        },
        {
          "internalType": "uint256",
          "name": "_stakeLockDuration",
          "type": "uint256"
        }
      ],
      "name": "openKeep",
      "outputs": [
        {
          "internalType": "address",
          "name": "",
          "type": "address"
        }
      ],
      "payable": true,
      "stateMutability": "payable",
      "type": "function"
    },
    {
      "constant": false,
      "inputs": [
        {
          "internalType": "address",
          "name": "_keepAddress",
          "type": "address"
        }
      ],
      "name": "setKeepAddress",
      "outputs": [],
      "payable": false,
      "stateMutability": "nonpayable",
      "type": "function"
    },
    {
      "constant": true,
      "inputs": [],
      "name": "openKeepFeeEstimate",
      "outputs": [
        {
          "internalType": "uint256",
          "name": "",
          "type": "uint256"
        }
      ],
      "payable": false,
      "stateMutability": "view",
      "type": "function"
    },
    {
      "constant": false,
      "inputs": [
        {
          "internalType": "uint256",
          "name": "_fee",
          "type": "uint256"
        }
      ],
      "name": "setOpenKeepFeeEstimate",
      "outputs": [],
      "payable": false,
      "stateMutability": "nonpayable",
      "type": "function"
    },
    {
      "constant": true,
      "inputs": [
        {
          "internalType": "address",
          "name": "",
          "type": "address"
        }
      ],
      "name": "getSortitionPoolWeight",
      "outputs": [
        {
          "internalType": "uint256",
          "name": "poolWeight",
          "type": "uint256"
        }
      ],
      "payable": false,
      "stateMutability": "view",
      "type": "function"
    },
    {
      "constant": false,
      "inputs": [
        {
          "internalType": "uint256",
          "name": "_minimumBondableValue",
          "type": "uint256"
        },
        {
          "internalType": "uint256",
          "name": "",
          "type": "uint256"
        },
        {
          "internalType": "uint256",
          "name": "",
          "type": "uint256"
        }
      ],
      "name": "setMinimumBondableValue",
      "outputs": [],
      "payable": false,
      "stateMutability": "nonpayable",
      "type": "function"
    }
  ],
  "bytecode": "0x6080604052600180546001600160a01b0319166103781790556103e76003556201e24060045534801561003157600080fd5b50610364806100416000396000f3fe6080604052600436106100915760003560e01c8063b8ee915611610059578063b8ee915614610162578063bc2c289f14610198578063ca050cfd146101ad578063ce01e039146101eb578063ebcbb39f1461020057610091565b8063022d44b714610096578063348d4144146100cb578063597282dd146100f25780636c3b0114146101075780638cf46eb314610138575b600080fd5b3480156100a257600080fd5b506100c9600480360360208110156100b957600080fd5b50356001600160a01b0316610233565b005b3480156100d757600080fd5b506100e0610255565b60408051918252519081900360200190f35b3480156100fe57600080fd5b506100e061025b565b34801561011357600080fd5b5061011c610261565b604080516001600160a01b039092168252519081900360200190f35b34801561014457600080fd5b506100c96004803603602081101561015b57600080fd5b5035610270565b34801561016e57600080fd5b506100c96004803603606081101561018557600080fd5b5080359060208101359060400135610275565b3480156101a457600080fd5b506100e061027c565b61011c600480360360a08110156101c357600080fd5b508035906020810135906001600160a01b036040820135169060608101359060800135610282565b3480156101f757600080fd5b5061011c6102f0565b34801561020c57600080fd5b506100e06004803603602081101561022357600080fd5b50356001600160a01b03166102ff565b600180546001600160a01b0319166001600160a01b0392909216919091179055565b60025481565b60035481565b6001546001600160a01b031681565b600455565b5050600355565b60045490565b60006004543410156102c55760405162461bcd60e51b81526004018080602001828103825260288152602001806103086028913960400191505060405180910390fd5b50600080546001600160a01b0319166001600160a01b03948516179055600255506001541692915050565b6000546001600160a01b031681565b50620186a09056fe496e73756666696369656e742076616c756520666f72206e6577206b656570206372656174696f6ea265627a7a72315820195830900a24abaf01c632b9656cd374b86d379ecdabfe35b6a8b1d9ad4935d464736f6c63430005110032",
  "source": "pragma solidity 0.5.17;\r\n\r\nimport {IBondedECDSAKeepFactory} from \"@keep-network/keep-ecdsa/contracts/api/IBondedECDSAKeepFactory.sol\";\r\n\r\ncontract ECDSAKeepFactoryStub is IBondedECDSAKeepFactory {\r\n    address public keepOwner;\r\n    address public keepAddress = address(888);\r\n    uint256 public stakeLockDuration;\r\n    uint256 public minimumBondableValue = 999;\r\n    uint256 feeEstimate = 123456;\r\n\r\n    function openKeep(\r\n        uint256,\r\n        uint256,\r\n        address _owner,\r\n        uint256,\r\n        uint256 _stakeLockDuration\r\n    ) external payable returns (address) {\r\n        require(msg.value >= feeEstimate, \"Insufficient value for new keep creation\");\r\n        keepOwner = _owner;\r\n        stakeLockDuration = _stakeLockDuration;\r\n        return keepAddress;\r\n    }\r\n\r\n    function setKeepAddress(address _keepAddress) external {\r\n        keepAddress = _keepAddress;\r\n    }\r\n\r\n    function openKeepFeeEstimate() external view returns (uint256) {\r\n        return feeEstimate;\r\n    }\r\n\r\n    function setOpenKeepFeeEstimate(uint256 _fee) external {\r\n        feeEstimate = _fee;\r\n    }\r\n\r\n    function getSortitionPoolWeight(\r\n        address\r\n    ) external view returns (uint256 poolWeight) {\r\n        return 100000;\r\n    }\r\n\r\n    function setMinimumBondableValue(\r\n        uint256 _minimumBondableValue,\r\n        uint256,\r\n        uint256\r\n    ) public {\r\n        minimumBondableValue = _minimumBondableValue;\r\n    }\r\n}\r\n",
  "sourcePath": "C:/Users/Zyra/Desktop/pfk/tbtc/solidity/contracts/test/keep/ECDSAKeepFactoryStub.sol",
  "compiler": {
    "name": "solc",
    "version": "0.5.17+commit.d19bba13.Emscripten.clang"
  },
  "schemaVersion": "3.3.1",
  "updatedAt": "2020-10-27T11:33:58.693Z",
  "devdoc": {
    "methods": {}
  },
  "userdoc": {
    "methods": {}
  }
}