{
  "contractName": "FeeRebateToken",
  "abi": [
    {
      "inputs": [
        {
          "internalType": "address",
          "name": "_vendingMachine",
          "type": "address"
        }
      ],
      "payable": false,
      "stateMutability": "nonpayable",
      "type": "constructor"
    },
    {
      "anonymous": false,
      "inputs": [
        {
          "indexed": true,
          "internalType": "address",
          "name": "owner",
          "type": "address"
        },
        {
          "indexed": true,
          "internalType": "address",
          "name": "approved",
          "type": "address"
        },
        {
          "indexed": true,
          "internalType": "uint256",
          "name": "tokenId",
          "type": "uint256"
        }
      ],
      "name": "Approval",
      "type": "event"
    },
    {
      "anonymous": false,
      "inputs": [
        {
          "indexed": true,
          "internalType": "address",
          "name": "owner",
          "type": "address"
        },
        {
          "indexed": true,
          "internalType": "address",
          "name": "operator",
          "type": "address"
        },
        {
          "indexed": false,
          "internalType": "bool",
          "name": "approved",
          "type": "bool"
        }
      ],
      "name": "ApprovalForAll",
      "type": "event"
    },
    {
      "anonymous": false,
      "inputs": [
        {
          "indexed": true,
          "internalType": "address",
          "name": "from",
          "type": "address"
        },
        {
          "indexed": true,
          "internalType": "address",
          "name": "to",
          "type": "address"
        },
        {
          "indexed": true,
          "internalType": "uint256",
          "name": "tokenId",
          "type": "uint256"
        }
      ],
      "name": "Transfer",
      "type": "event"
    },
    {
      "constant": false,
      "inputs": [
        {
          "internalType": "address",
          "name": "to",
          "type": "address"
        },
        {
          "internalType": "uint256",
          "name": "tokenId",
          "type": "uint256"
        }
      ],
      "name": "approve",
      "outputs": [],
      "payable": false,
      "stateMutability": "nonpayable",
      "type": "function"
    },
    {
      "constant": true,
      "inputs": [
        {
          "internalType": "address",
          "name": "owner",
          "type": "address"
        }
      ],
      "name": "balanceOf",
      "outputs": [
        {
          "internalType": "uint256",
          "name": "",
          "type": "uint256"
        }
      ],
      "payable": false,
      "stateMutability": "view",
      "type": "function"
    },
    {
      "constant": true,
      "inputs": [
        {
          "internalType": "uint256",
          "name": "tokenId",
          "type": "uint256"
        }
      ],
      "name": "getApproved",
      "outputs": [
        {
          "internalType": "address",
          "name": "",
          "type": "address"
        }
      ],
      "payable": false,
      "stateMutability": "view",
      "type": "function"
    },
    {
      "constant": true,
      "inputs": [
        {
          "internalType": "address",
          "name": "owner",
          "type": "address"
        },
        {
          "internalType": "address",
          "name": "operator",
          "type": "address"
        }
      ],
      "name": "isApprovedForAll",
      "outputs": [
        {
          "internalType": "bool",
          "name": "",
          "type": "bool"
        }
      ],
      "payable": false,
      "stateMutability": "view",
      "type": "function"
    },
    {
      "constant": true,
      "inputs": [],
      "name": "name",
      "outputs": [
        {
          "internalType": "string",
          "name": "",
          "type": "string"
        }
      ],
      "payable": false,
      "stateMutability": "view",
      "type": "function"
    },
    {
      "constant": true,
      "inputs": [
        {
          "internalType": "uint256",
          "name": "tokenId",
          "type": "uint256"
        }
      ],
      "name": "ownerOf",
      "outputs": [
        {
          "internalType": "address",
          "name": "",
          "type": "address"
        }
      ],
      "payable": false,
      "stateMutability": "view",
      "type": "function"
    },
    {
      "constant": false,
      "inputs": [
        {
          "internalType": "address",
          "name": "from",
          "type": "address"
        },
        {
          "internalType": "address",
          "name": "to",
          "type": "address"
        },
        {
          "internalType": "uint256",
          "name": "tokenId",
          "type": "uint256"
        }
      ],
      "name": "safeTransferFrom",
      "outputs": [],
      "payable": false,
      "stateMutability": "nonpayable",
      "type": "function"
    },
    {
      "constant": false,
      "inputs": [
        {
          "internalType": "address",
          "name": "from",
          "type": "address"
        },
        {
          "internalType": "address",
          "name": "to",
          "type": "address"
        },
        {
          "internalType": "uint256",
          "name": "tokenId",
          "type": "uint256"
        },
        {
          "internalType": "bytes",
          "name": "_data",
          "type": "bytes"
        }
      ],
      "name": "safeTransferFrom",
      "outputs": [],
      "payable": false,
      "stateMutability": "nonpayable",
      "type": "function"
    },
    {
      "constant": false,
      "inputs": [
        {
          "internalType": "address",
          "name": "to",
          "type": "address"
        },
        {
          "internalType": "bool",
          "name": "approved",
          "type": "bool"
        }
      ],
      "name": "setApprovalForAll",
      "outputs": [],
      "payable": false,
      "stateMutability": "nonpayable",
      "type": "function"
    },
    {
      "constant": true,
      "inputs": [
        {
          "internalType": "bytes4",
          "name": "interfaceId",
          "type": "bytes4"
        }
      ],
      "name": "supportsInterface",
      "outputs": [
        {
          "internalType": "bool",
          "name": "",
          "type": "bool"
        }
      ],
      "payable": false,
      "stateMutability": "view",
      "type": "function"
    },
    {
      "constant": true,
      "inputs": [],
      "name": "symbol",
      "outputs": [
        {
          "internalType": "string",
          "name": "",
          "type": "string"
        }
      ],
      "payable": false,
      "stateMutability": "view",
      "type": "function"
    },
    {
      "constant": true,
      "inputs": [
        {
          "internalType": "uint256",
          "name": "tokenId",
          "type": "uint256"
        }
      ],
      "name": "tokenURI",
      "outputs": [
        {
          "internalType": "string",
          "name": "",
          "type": "string"
        }
      ],
      "payable": false,
      "stateMutability": "view",
      "type": "function"
    },
    {
      "constant": false,
      "inputs": [
        {
          "internalType": "address",
          "name": "from",
          "type": "address"
        },
        {
          "internalType": "address",
          "name": "to",
          "type": "address"
        },
        {
          "internalType": "uint256",
          "name": "tokenId",
          "type": "uint256"
        }
      ],
      "name": "transferFrom",
      "outputs": [],
      "payable": false,
      "stateMutability": "nonpayable",
      "type": "function"
    },
    {
      "constant": false,
      "inputs": [
        {
          "internalType": "address",
          "name": "_to",
          "type": "address"
        },
        {
          "internalType": "uint256",
          "name": "_tokenId",
          "type": "uint256"
        }
      ],
      "name": "mint",
      "outputs": [],
      "payable": false,
      "stateMutability": "nonpayable",
      "type": "function"
    },
    {
      "constant": true,
      "inputs": [
        {
          "internalType": "uint256",
          "name": "_tokenId",
          "type": "uint256"
        }
      ],
      "name": "exists",
      "outputs": [
        {
          "internalType": "bool",
          "name": "",
          "type": "bool"
        }
      ],
      "payable": false,
      "stateMutability": "view",
      "type": "function"
    }
  ],
  "bytecode": "0x60806040523480156200001157600080fd5b506040516200148e3803806200148e833981810160405260208110156200003757600080fd5b5051604080518082018252601581527f74425443204665652052656261746520546f6b656e00000000000000000000006020828101919091528251808401909352600383526211949560ea1b908301528291620000a46301ffc9a760e01b6001600160e01b036200012f16565b620000bf6380ac58cd60e01b6001600160e01b036200012f16565b8151620000d4906005906020850190620001b4565b508051620000ea906006906020840190620001b4565b5062000106635b5e139f60e01b6001600160e01b036200012f16565b5050600880546001600160a01b0319166001600160a01b03929092169190911790555062000259565b6001600160e01b031980821614156200018f576040805162461bcd60e51b815260206004820152601c60248201527f4552433136353a20696e76616c696420696e7465726661636520696400000000604482015290519081900360640190fd5b6001600160e01b0319166000908152602081905260409020805460ff19166001179055565b828054600181600116156101000203166002900490600052602060002090601f016020900481019282601f10620001f757805160ff191683800117855562000227565b8280016001018555821562000227579182015b82811115620002275782518255916020019190600101906200020a565b506200023592915062000239565b5090565b6200025691905b8082111562000235576000815560010162000240565b90565b61122580620002696000396000f3fe608060405234801561001057600080fd5b50600436106100f55760003560e01c80634f558e7911610097578063a22cb46511610066578063a22cb4651461032b578063b88d4fde14610359578063c87b56dd1461041f578063e985e9c51461043c576100f5565b80634f558e79146102b15780636352211e146102ce57806370a08231146102eb57806395d89b4114610323576100f5565b8063095ea7b3116100d3578063095ea7b3146101eb57806323b872dd1461021957806340c10f191461024f57806342842e0e1461027b576100f5565b806301ffc9a7146100fa57806306fdde0314610135578063081812fc146101b2575b600080fd5b6101216004803603602081101561011057600080fd5b50356001600160e01b03191661046a565b604080519115158252519081900360200190f35b61013d610489565b6040805160208082528351818301528351919283929083019185019080838360005b8381101561017757818101518382015260200161015f565b50505050905090810190601f1680156101a45780820380516001836020036101000a031916815260200191505b509250505060405180910390f35b6101cf600480360360208110156101c857600080fd5b503561051f565b604080516001600160a01b039092168252519081900360200190f35b6102176004803603604081101561020157600080fd5b506001600160a01b038135169060200135610581565b005b6102176004803603606081101561022f57600080fd5b506001600160a01b03813581169160208101359091169060400135610692565b6102176004803603604081101561026557600080fd5b506001600160a01b0381351690602001356106e7565b6102176004803603606081101561029157600080fd5b506001600160a01b0381358116916020810135909116906040013561073e565b610121600480360360208110156102c757600080fd5b5035610759565b6101cf600480360360208110156102e457600080fd5b503561076a565b6103116004803603602081101561030157600080fd5b50356001600160a01b03166107be565b60408051918252519081900360200190f35b61013d610826565b6102176004803603604081101561034157600080fd5b506001600160a01b0381351690602001351515610887565b6102176004803603608081101561036f57600080fd5b6001600160a01b038235811692602081013590911691604082013591908101906080810160608201356401000000008111156103aa57600080fd5b8201836020820111156103bc57600080fd5b803590602001918460018302840111640100000000831117156103de57600080fd5b91908080601f016020809104026020016040519081016040528093929190818152602001838380828437600092019190915250929550610953945050505050565b61013d6004803603602081101561043557600080fd5b50356109ab565b6101216004803603604081101561045257600080fd5b506001600160a01b0381358116916020013516610a90565b6001600160e01b03191660009081526020819052604090205460ff1690565b60058054604080516020601f60026000196101006001881615020190951694909404938401819004810282018101909252828152606093909290918301828280156105155780601f106104ea57610100808354040283529160200191610515565b820191906000526020600020905b8154815290600101906020018083116104f857829003601f168201915b5050505050905090565b600061052a82610abe565b6105655760405162461bcd60e51b815260040180806020018281038252602c81526020018061111b602c913960400191505060405180910390fd5b506000908152600260205260409020546001600160a01b031690565b600061058c8261076a565b9050806001600160a01b0316836001600160a01b031614156105df5760405162461bcd60e51b815260040180806020018281038252602181526020018061119f6021913960400191505060405180910390fd5b336001600160a01b03821614806105fb57506105fb8133610a90565b6106365760405162461bcd60e51b81526004018080602001828103825260388152602001806110906038913960400191505060405180910390fd5b60008281526002602052604080822080546001600160a01b0319166001600160a01b0387811691821790925591518593918516917f8c5be1e5ebec7d5bd14f71427d1e84f3dd0314c0f7b2291e5b200ac8c7c3b92591a4505050565b61069c3382610adb565b6106d75760405162461bcd60e51b81526004018080602001828103825260318152602001806111c06031913960400191505060405180910390fd5b6106e2838383610b7f565b505050565b6008546001600160a01b031633146107305760405162461bcd60e51b8152600401808060200182810382526022815260200180610fec6022913960400191505060405180910390fd5b61073a8282610cc3565b5050565b6106e283838360405180602001604052806000815250610953565b600061076482610abe565b92915050565b6000818152600160205260408120546001600160a01b0316806107645760405162461bcd60e51b81526004018080602001828103825260298152602001806110f26029913960400191505060405180910390fd5b60006001600160a01b0382166108055760405162461bcd60e51b815260040180806020018281038252602a8152602001806110c8602a913960400191505060405180910390fd5b6001600160a01b038216600090815260036020526040902061076490610df4565b60068054604080516020601f60026000196101006001881615020190951694909404938401819004810282018101909252828152606093909290918301828280156105155780601f106104ea57610100808354040283529160200191610515565b6001600160a01b0382163314156108e5576040805162461bcd60e51b815260206004820152601960248201527f4552433732313a20617070726f766520746f2063616c6c657200000000000000604482015290519081900360640190fd5b3360008181526004602090815260408083206001600160a01b03871680855290835292819020805460ff1916861515908117909155815190815290519293927f17307eab39ab6107e8899845ad3d59bd9653f200f220920489ca2b5937696c31929181900390910190a35050565b61095e848484610692565b61096a84848484610df8565b6109a55760405162461bcd60e51b815260040180806020018281038252603281526020018061100e6032913960400191505060405180910390fd5b50505050565b60606109b682610abe565b6109f15760405162461bcd60e51b815260040180806020018281038252602f815260200180611170602f913960400191505060405180910390fd5b60008281526007602090815260409182902080548351601f600260001961010060018616150201909316929092049182018490048402810184019094528084529091830182828015610a845780601f10610a5957610100808354040283529160200191610a84565b820191906000526020600020905b815481529060010190602001808311610a6757829003601f168201915b50505050509050919050565b6001600160a01b03918216600090815260046020908152604080832093909416825291909152205460ff1690565b6000908152600160205260409020546001600160a01b0316151590565b6000610ae682610abe565b610b215760405162461bcd60e51b815260040180806020018281038252602c815260200180611064602c913960400191505060405180910390fd5b6000610b2c8361076a565b9050806001600160a01b0316846001600160a01b03161480610b675750836001600160a01b0316610b5c8461051f565b6001600160a01b0316145b80610b775750610b778185610a90565b949350505050565b826001600160a01b0316610b928261076a565b6001600160a01b031614610bd75760405162461bcd60e51b81526004018080602001828103825260298152602001806111476029913960400191505060405180910390fd5b6001600160a01b038216610c1c5760405162461bcd60e51b81526004018080602001828103825260248152602001806110406024913960400191505060405180910390fd5b610c2581610f2b565b6001600160a01b0383166000908152600360205260409020610c4690610f68565b6001600160a01b0382166000908152600360205260409020610c6790610f7f565b60008181526001602052604080822080546001600160a01b0319166001600160a01b0386811691821790925591518493918716917fddf252ad1be2c89b69c2b068fc378daa952ba7f163c4a11628f55a4df523b3ef91a4505050565b6001600160a01b038216610d1e576040805162461bcd60e51b815260206004820181905260248201527f4552433732313a206d696e7420746f20746865207a65726f2061646472657373604482015290519081900360640190fd5b610d2781610abe565b15610d79576040805162461bcd60e51b815260206004820152601c60248201527f4552433732313a20746f6b656e20616c7265616479206d696e74656400000000604482015290519081900360640190fd5b600081815260016020908152604080832080546001600160a01b0319166001600160a01b038716908117909155835260039091529020610db890610f7f565b60405181906001600160a01b038416906000907fddf252ad1be2c89b69c2b068fc378daa952ba7f163c4a11628f55a4df523b3ef908290a45050565b5490565b6000610e0c846001600160a01b0316610f88565b610e1857506001610b77565b604051630a85bd0160e11b815233600482018181526001600160a01b03888116602485015260448401879052608060648501908152865160848601528651600095928a169463150b7a029490938c938b938b939260a4019060208501908083838e5b83811015610e92578181015183820152602001610e7a565b50505050905090810190601f168015610ebf5780820380516001836020036101000a031916815260200191505b5095505050505050602060405180830381600087803b158015610ee157600080fd5b505af1158015610ef5573d6000803e3d6000fd5b505050506040513d6020811015610f0b57600080fd5b50516001600160e01b031916630a85bd0160e11b14915050949350505050565b6000818152600260205260409020546001600160a01b031615610f6557600081815260026020526040902080546001600160a01b03191690555b50565b8054610f7b90600163ffffffff610f8e16565b9055565b80546001019055565b3b151590565b600082821115610fe5576040805162461bcd60e51b815260206004820152601e60248201527f536166654d6174683a207375627472616374696f6e206f766572666c6f770000604482015290519081900360640190fd5b5090039056fe63616c6c6572206d757374206265207468652076656e64696e67206d616368696e654552433732313a207472616e7366657220746f206e6f6e20455243373231526563656976657220696d706c656d656e7465724552433732313a207472616e7366657220746f20746865207a65726f20616464726573734552433732313a206f70657261746f7220717565727920666f72206e6f6e6578697374656e7420746f6b656e4552433732313a20617070726f76652063616c6c6572206973206e6f74206f776e6572206e6f7220617070726f76656420666f7220616c6c4552433732313a2062616c616e636520717565727920666f7220746865207a65726f20616464726573734552433732313a206f776e657220717565727920666f72206e6f6e6578697374656e7420746f6b656e4552433732313a20617070726f76656420717565727920666f72206e6f6e6578697374656e7420746f6b656e4552433732313a207472616e73666572206f6620746f6b656e2074686174206973206e6f74206f776e4552433732314d657461646174613a2055524920717565727920666f72206e6f6e6578697374656e7420746f6b656e4552433732313a20617070726f76616c20746f2063757272656e74206f776e65724552433732313a207472616e736665722063616c6c6572206973206e6f74206f776e6572206e6f7220617070726f766564a265627a7a7231582055c9208e5fa7f3e0a5b2ed82d854bc09bef62df841558c6926aa472e37a8262f64736f6c63430005110032",
  "source": "pragma solidity 0.5.17;\r\n\r\nimport \"openzeppelin-solidity/contracts/token/ERC721/ERC721Metadata.sol\";\r\nimport \"./VendingMachineAuthority.sol\";\r\n\r\n/// @title  Fee Rebate Token\r\n/// @notice The Fee Rebate Token (FRT) is a non fungible token (ERC721)\r\n///         the ID of which corresponds to a given deposit address.\r\n///         If the corresponding deposit is still active, ownership of this token\r\n///         could result in reimbursement of the signer fee paid to open the deposit.\r\n/// @dev    This token is minted automatically when a TDT (`TBTCDepositToken`)\r\n///         is exchanged for TBTC (`TBTCToken`) via the Vending Machine (`VendingMachine`).\r\n///         When the Deposit is redeemed, the TDT holder will be reimbursed\r\n///         the signer fee if the redeemer is not the TDT holder and Deposit is not\r\n///         at-term or in COURTESY_CALL.\r\ncontract FeeRebateToken is ERC721Metadata, VendingMachineAuthority {\r\n\r\n    constructor(address _vendingMachine)\r\n        ERC721Metadata(\"tBTC Fee Rebate Token\", \"FRT\")\r\n        VendingMachineAuthority(_vendingMachine)\r\n    public {\r\n        // solium-disable-previous-line no-empty-blocks\r\n    }\r\n\r\n    /// @dev Mints a new token.\r\n    /// Reverts if the given token ID already exists.\r\n    /// @param _to The address that will own the minted token.\r\n    /// @param _tokenId uint256 ID of the token to be minted.\r\n    function mint(address _to, uint256 _tokenId) external onlyVendingMachine {\r\n        _mint(_to, _tokenId);\r\n    }\r\n\r\n    /// @dev Returns whether the specified token exists.\r\n    /// @param _tokenId uint256 ID of the token to query the existence of.\r\n    /// @return bool whether the token exists.\r\n    function exists(uint256 _tokenId) external view returns (bool) {\r\n        return _exists(_tokenId);\r\n    }\r\n}\r\n",
  "sourcePath": "C:\\Users\\Zyra\\Desktop\\pfk\\tbtc\\solidity\\contracts\\system\\FeeRebateToken.sol",
  "compiler": {
    "name": "solc",
    "version": "0.5.17+commit.d19bba13.Emscripten.clang"
  },
  "schemaVersion": "3.3.1",
  "updatedAt": "2020-10-27T11:33:58.566Z",
  "devdoc": {
    "details": "This token is minted automatically when a TDT (`TBTCDepositToken`)         is exchanged for TBTC (`TBTCToken`) via the Vending Machine (`VendingMachine`).         When the Deposit is redeemed, the TDT holder will be reimbursed         the signer fee if the redeemer is not the TDT holder and Deposit is not         at-term or in COURTESY_CALL.",
    "methods": {
      "approve(address,uint256)": {
        "details": "Approves another address to transfer the given token ID The zero address indicates there is no approved address. There can only be one approved address per token at a given time. Can only be called by the token owner or an approved operator.",
        "params": {
          "to": "address to be approved for the given token ID",
          "tokenId": "uint256 ID of the token to be approved"
        }
      },
      "balanceOf(address)": {
        "details": "Gets the balance of the specified address.",
        "params": {
          "owner": "address to query the balance of"
        },
        "return": "uint256 representing the amount owned by the passed address"
      },
      "exists(uint256)": {
        "details": "Returns whether the specified token exists.",
        "params": {
          "_tokenId": "uint256 ID of the token to query the existence of."
        },
        "return": "bool whether the token exists."
      },
      "getApproved(uint256)": {
        "details": "Gets the approved address for a token ID, or zero if no address set Reverts if the token ID does not exist.",
        "params": {
          "tokenId": "uint256 ID of the token to query the approval of"
        },
        "return": "address currently approved for the given token ID"
      },
      "isApprovedForAll(address,address)": {
        "details": "Tells whether an operator is approved by a given owner.",
        "params": {
          "operator": "operator address which you want to query the approval of",
          "owner": "owner address which you want to query the approval of"
        },
        "return": "bool whether the given operator is approved by the given owner"
      },
      "mint(address,uint256)": {
        "details": "Mints a new token. Reverts if the given token ID already exists.",
        "params": {
          "_to": "The address that will own the minted token.",
          "_tokenId": "uint256 ID of the token to be minted."
        }
      },
      "name()": {
        "details": "Gets the token name.",
        "return": "string representing the token name"
      },
      "ownerOf(uint256)": {
        "details": "Gets the owner of the specified token ID.",
        "params": {
          "tokenId": "uint256 ID of the token to query the owner of"
        },
        "return": "address currently marked as the owner of the given token ID"
      },
      "safeTransferFrom(address,address,uint256)": {
        "details": "Safely transfers the ownership of a given token ID to another address If the target address is a contract, it must implement `onERC721Received`, which is called upon a safe transfer, and return the magic value `bytes4(keccak256(\"onERC721Received(address,address,uint256,bytes)\"))`; otherwise, the transfer is reverted. Requires the msg.sender to be the owner, approved, or operator",
        "params": {
          "from": "current owner of the token",
          "to": "address to receive the ownership of the given token ID",
          "tokenId": "uint256 ID of the token to be transferred"
        }
      },
      "safeTransferFrom(address,address,uint256,bytes)": {
        "details": "Safely transfers the ownership of a given token ID to another address If the target address is a contract, it must implement `onERC721Received`, which is called upon a safe transfer, and return the magic value `bytes4(keccak256(\"onERC721Received(address,address,uint256,bytes)\"))`; otherwise, the transfer is reverted. Requires the msg.sender to be the owner, approved, or operator",
        "params": {
          "_data": "bytes data to send along with a safe transfer check",
          "from": "current owner of the token",
          "to": "address to receive the ownership of the given token ID",
          "tokenId": "uint256 ID of the token to be transferred"
        }
      },
      "setApprovalForAll(address,bool)": {
        "details": "Sets or unsets the approval of a given operator An operator is allowed to transfer all tokens of the sender on their behalf.",
        "params": {
          "approved": "representing the status of the approval to be set",
          "to": "operator address to set the approval"
        }
      },
      "supportsInterface(bytes4)": {
        "details": "See `IERC165.supportsInterface`.     * Time complexity O(1), guaranteed to always use less than 30 000 gas."
      },
      "symbol()": {
        "details": "Gets the token symbol.",
        "return": "string representing the token symbol"
      },
      "tokenURI(uint256)": {
        "details": "Returns an URI for a given token ID. Throws if the token ID does not exist. May return an empty string.",
        "params": {
          "tokenId": "uint256 ID of the token to query"
        }
      },
      "transferFrom(address,address,uint256)": {
        "details": "Transfers the ownership of a given token ID to another address. Usage of this method is discouraged, use `safeTransferFrom` whenever possible. Requires the msg.sender to be the owner, approved, or operator.",
        "params": {
          "from": "current owner of the token",
          "to": "address to receive the ownership of the given token ID",
          "tokenId": "uint256 ID of the token to be transferred"
        }
      }
    },
    "title": "Fee Rebate Token"
  },
  "userdoc": {
    "methods": {},
    "notice": "The Fee Rebate Token (FRT) is a non fungible token (ERC721)         the ID of which corresponds to a given deposit address.         If the corresponding deposit is still active, ownership of this token         could result in reimbursement of the signer fee paid to open the deposit."
  }
}