{
  "contractName": "FundingScript",
  "abi": [
    {
      "inputs": [
        {
          "internalType": "address",
          "name": "_VendingMachine",
          "type": "address"
        },
        {
          "internalType": "address",
          "name": "_TBTCToken",
          "type": "address"
        },
        {
          "internalType": "address",
          "name": "_TBTCDepositToken",
          "type": "address"
        },
        {
          "internalType": "address",
          "name": "_FeeRebateToken",
          "type": "address"
        }
      ],
      "payable": false,
      "stateMutability": "nonpayable",
      "type": "constructor"
    },
    {
      "constant": false,
      "inputs": [
        {
          "internalType": "address",
          "name": "_from",
          "type": "address"
        },
        {
          "internalType": "uint256",
          "name": "_tokenId",
          "type": "uint256"
        },
        {
          "internalType": "address",
          "name": "",
          "type": "address"
        },
        {
          "internalType": "bytes",
          "name": "_extraData",
          "type": "bytes"
        }
      ],
      "name": "receiveApproval",
      "outputs": [],
      "payable": false,
      "stateMutability": "nonpayable",
      "type": "function"
    }
  ],
  "bytecode": "0x608060405234801561001057600080fd5b5060405161067e38038061067e8339818101604052608081101561003357600080fd5b50805160208201516040830151606090930151600180546001600160a01b039485166001600160a01b03199182161790915560008054938516938216939093179092556002805494841694831694909417909355600380549290931691161790556105db806100a36000396000f3fe608060405234801561001057600080fd5b506004361061002b5760003560e01c80638f4ffcb114610030575b600080fd5b6100f56004803603608081101561004657600080fd5b6001600160a01b03823581169260208101359260408201359092169181019060808101606082013564010000000081111561008057600080fd5b82018360208201111561009257600080fd5b803590602001918460018302840111640100000000831117156100b457600080fd5b91908080601f0160208091040260200160405190810160405280939291908181526020018383808284376000920191909152509295506100f7945050505050565b005b6002546001600160a01b031633146101405760405162461bcd60e51b815260040180806020018281038252602c815260200180610538602c913960400191505060405180910390fd5b600254604080516323b872dd60e01b81526001600160a01b03878116600483015230602483015260448201879052915191909216916323b872dd91606480830192600092919082900301818387803b15801561019b57600080fd5b505af11580156101af573d6000803e3d6000fd5b50506002546001546040805163095ea7b360e01b81526001600160a01b03928316600482015260248101899052905191909216935063095ea7b39250604480830192600092919082900301818387803b15801561020b57600080fd5b505af115801561021f573d6000803e3d6000fd5b50505050602081015160ff198116906001600160e01b03191663efa4b19960e01b1461027c5760405162461bcd60e51b81526004018080602001828103825260438152602001806105646043913960600191505060405180910390fd5b60015460405183516000926060926001600160a01b0390911691869190819060208401908083835b602083106102c35780518252601f1990920191602091820191016102a4565b6001836020036101000a0380198251168184511680821785525050505050509050019150506000604051808303816000865af19150503d8060008114610325576040519150601f19603f3d011682016040523d82523d6000602084013e61032a565b606091505b5090925090506044810180836103be5760405162461bcd60e51b81526004018080602001828103825283818151815260200191508051906020019080838360005b8381101561038357818101518382015260200161036b565b50505050905090810190601f1680156103b05780820380516001836020036101000a031916815260200191505b509250505060405180910390fd5b50600054604080516370a0823160e01b815230600482015290516001600160a01b039092169163a9059cbb918b9184916370a08231916024808301926020929190829003018186803b15801561041357600080fd5b505afa158015610427573d6000803e3d6000fd5b505050506040513d602081101561043d57600080fd5b5051604080516001600160e01b031960e086901b1681526001600160a01b03909316600484015260248301919091525160448083019260209291908290030181600087803b15801561048e57600080fd5b505af11580156104a2573d6000803e3d6000fd5b505050506040513d60208110156104b857600080fd5b5050600354604080516323b872dd60e01b81523060048201526001600160a01b038b81166024830152604482018b9052915191909216916323b872dd91606480830192600092919082900301818387803b15801561051557600080fd5b505af1158015610529573d6000803e3d6000fd5b50505050505050505050505056fe4f6e6c7920746f6b656e20636f6e74726163742063616e2063616c6c2072656365697665417070726f76616c426164205f657874726144617461207369676e61747572652e2043616c6c206d75737420626520746f20756e7175616c69666965644465706f736974546f546274632ea265627a7a72315820a5feda62cc007d195352a7f3855a65106731ebb2e9b2048db57e3cc25029d91664736f6c63430005110032",
  "source": "pragma solidity 0.5.17;\r\n\r\nimport {ITokenRecipient} from \"../interfaces/ITokenRecipient.sol\";\r\nimport {TBTCDepositToken} from \"../system/TBTCDepositToken.sol\";\r\nimport {TBTCToken} from \"../system/TBTCToken.sol\";\r\nimport {FeeRebateToken} from \"../system/FeeRebateToken.sol\";\r\nimport {VendingMachine} from \"../system/VendingMachine.sol\";\r\n\r\n/// @notice A one-click script for minting TBTC from an unqualified TDT.\r\n/// @dev Wrapper script for VendingMachine.unqualifiedDepositToTbtc\r\n/// This contract implements receiveApproval() and can therefore use\r\n/// approveAndCall(). This pattern combines TBTC Token approval and\r\n/// vendingMachine.unqualifiedDepositToTbtc() in a single transaction.\r\ncontract FundingScript is ITokenRecipient {\r\n    TBTCToken tbtcToken;\r\n    VendingMachine vendingMachine;\r\n    TBTCDepositToken tbtcDepositToken;\r\n    FeeRebateToken feeRebateToken;\r\n\r\n    constructor(\r\n        address _VendingMachine,\r\n        address _TBTCToken,\r\n        address _TBTCDepositToken,\r\n        address _FeeRebateToken\r\n    ) public {\r\n        vendingMachine = VendingMachine(_VendingMachine);\r\n        tbtcToken = TBTCToken(_TBTCToken);\r\n        tbtcDepositToken = TBTCDepositToken(_TBTCDepositToken);\r\n        feeRebateToken = FeeRebateToken(_FeeRebateToken);\r\n    }\r\n\r\n    /// @notice Receives approval for a TDT transfer, and calls `VendingMachine.unqualifiedDepositToTbtc` for a user.\r\n    /// @dev Implements the approveAndCall receiver interface.\r\n    /// @param _from The owner of the token who approved them for transfer.\r\n    /// @param _tokenId Approved TDT for the transfer.\r\n    /// @param _extraData Encoded function call to `VendingMachine.unqualifiedDepositToTbtc`.\r\n    function receiveApproval(\r\n        address _from,\r\n        uint256 _tokenId,\r\n        address,\r\n        bytes memory _extraData\r\n    ) public { // not external to allow bytes memory parameters\r\n        require(msg.sender == address(tbtcDepositToken), \"Only token contract can call receiveApproval\");\r\n\r\n        tbtcDepositToken.transferFrom(_from, address(this), _tokenId);\r\n        tbtcDepositToken.approve(address(vendingMachine), _tokenId);\r\n\r\n        // Verify _extraData is a call to unqualifiedDepositToTbtc.\r\n        bytes4 functionSignature;\r\n        assembly {\r\n            functionSignature := and(mload(add(_extraData, 0x20)), not(0xff))\r\n        }\r\n        require(\r\n            functionSignature == vendingMachine.unqualifiedDepositToTbtc.selector,\r\n            \"Bad _extraData signature. Call must be to unqualifiedDepositToTbtc.\"\r\n        );\r\n\r\n        // Call the VendingMachine.\r\n        // We could explictly encode the call to vending machine, but this would\r\n        // involve manually parsing _extraData and allocating variables.\r\n        // We capture the `returnData` in order to forward any nested revert message\r\n        // from the contract call.\r\n        /* solium-disable-next-line security/no-low-level-calls */\r\n        (bool success, bytes memory returnData) = address(vendingMachine).call(_extraData);\r\n\r\n        string memory revertMessage;\r\n        assembly {\r\n            // A revert message is ABI-encoded as a call to Error(string).\r\n            // Slicing the Error() signature (4 bytes) and Data offset (4 bytes)\r\n            // leaves us with a pre-encoded string.\r\n            // We also slice off the ABI-coded length of returnData (32).\r\n            revertMessage := add(returnData, 0x44)\r\n        }\r\n\r\n        require(success, revertMessage);\r\n\r\n        // Transfer the TBTC and feeRebateToken to the user.\r\n        tbtcToken.transfer(_from, tbtcToken.balanceOf(address(this)));\r\n        feeRebateToken.transferFrom(address(this), _from, uint256(_tokenId));\r\n    }\r\n}\r\n",
  "sourcePath": "C:/Users/Zyra/Desktop/pfk/tbtc/solidity/contracts/scripts/FundingScript.sol",
  "compiler": {
    "name": "solc",
    "version": "0.5.17+commit.d19bba13.Emscripten.clang"
  },
  "schemaVersion": "3.3.1",
  "updatedAt": "2020-10-27T11:33:58.551Z",
  "devdoc": {
    "details": "Wrapper script for VendingMachine.unqualifiedDepositToTbtc This contract implements receiveApproval() and can therefore use approveAndCall(). This pattern combines TBTC Token approval and vendingMachine.unqualifiedDepositToTbtc() in a single transaction.",
    "methods": {
      "receiveApproval(address,uint256,address,bytes)": {
        "details": "Implements the approveAndCall receiver interface.",
        "params": {
          "_extraData": "Encoded function call to `VendingMachine.unqualifiedDepositToTbtc`.",
          "_from": "The owner of the token who approved them for transfer.",
          "_tokenId": "Approved TDT for the transfer."
        }
      }
    }
  },
  "userdoc": {
    "methods": {
      "receiveApproval(address,uint256,address,bytes)": {
        "notice": "Receives approval for a TDT transfer, and calls `VendingMachine.unqualifiedDepositToTbtc` for a user."
      }
    },
    "notice": "A one-click script for minting TBTC from an unqualified TDT."
  }
}