{
  "contractName": "KeepFactorySelectorStub",
  "abi": [
    {
      "constant": true,
      "inputs": [
        {
          "internalType": "uint256",
          "name": "",
          "type": "uint256"
        },
        {
          "internalType": "contract IBondedECDSAKeepFactory",
          "name": "_defaultFactory",
          "type": "address"
        },
        {
          "internalType": "contract IBondedECDSAKeepFactory",
          "name": "_fullyBackedFactory",
          "type": "address"
        }
      ],
      "name": "selectFactory",
      "outputs": [
        {
          "internalType": "contract IBondedECDSAKeepFactory",
          "name": "",
          "type": "address"
        }
      ],
      "payable": false,
      "stateMutability": "view",
      "type": "function"
    },
    {
      "constant": false,
      "inputs": [],
      "name": "setMaliciousMode",
      "outputs": [],
      "payable": false,
      "stateMutability": "nonpayable",
      "type": "function"
    },
    {
      "constant": false,
      "inputs": [],
      "name": "unsetMaliciousMode",
      "outputs": [],
      "payable": false,
      "stateMutability": "nonpayable",
      "type": "function"
    },
    {
      "constant": false,
      "inputs": [],
      "name": "setDefaultMode",
      "outputs": [],
      "payable": false,
      "stateMutability": "nonpayable",
      "type": "function"
    },
    {
      "constant": false,
      "inputs": [],
      "name": "setFullyBackedMode",
      "outputs": [],
      "payable": false,
      "stateMutability": "nonpayable",
      "type": "function"
    }
  ],
  "bytecode": "0x60806040526000805461ff001960ff1990911660011716905534801561002457600080fd5b50610184806100346000396000f3fe608060405234801561001057600080fd5b50600436106100575760003560e01c8063377661711461005c57806371d2fdfd146100ac578063ca606f91146100b6578063e0e82d9d146100be578063fad16bca146100c6575b600080fd5b6100906004803603606081101561007257600080fd5b508035906001600160a01b03602082013581169160400135166100ce565b604080516001600160a01b039092168252519081900360200190f35b6100b4610116565b005b6100b4610125565b6100b4610136565b6100b4610142565b60008054610100900460ff16156100fa575073afacebadfacecffeefaceacebaceafacecffeea061010f565b60005460ff161561010c57508161010f565b50805b9392505050565b6000805460ff19166001179055565b6000805461ff001916610100179055565b6000805460ff19169055565b6000805461ff001916905556fea265627a7a72315820f76807494aac27a0447407dc03011dbcb73cee3e684c4f18f4a14db2dc004e9064736f6c63430005110032",
  "source": "pragma solidity 0.5.17;\r\n\r\nimport {IBondedECDSAKeepFactory} from \"@keep-network/keep-ecdsa/contracts/api/IBondedECDSAKeepFactory.sol\";\r\n\r\nimport \"../../system/KeepFactorySelection.sol\";\r\n\r\ncontract KeepFactorySelectionStub {\r\n    using KeepFactorySelection for KeepFactorySelection.Storage;\r\n    KeepFactorySelection.Storage keepFactorySelection;\r\n\r\n    function initialize(IBondedECDSAKeepFactory _defaultFactory) public {\r\n        keepFactorySelection.initialize(_defaultFactory);\r\n    }\r\n\r\n    function selectFactory() public view returns (IBondedECDSAKeepFactory) {\r\n        return keepFactorySelection.selectFactory();\r\n    }\r\n\r\n    function setMinimumBondableValue(\r\n        uint256 _minimumBondableValue,\r\n        uint256 _groupSize,\r\n        uint256 _honestThreshold\r\n    ) public {\r\n        keepFactorySelection.setMinimumBondableValue(\r\n            _minimumBondableValue,\r\n            _groupSize,\r\n            _honestThreshold\r\n        );\r\n    }\r\n\r\n    function selectFactoryAndRefresh() public returns (IBondedECDSAKeepFactory) {\r\n        return keepFactorySelection.selectFactoryAndRefresh();\r\n    }\r\n\r\n    function setFactories(\r\n        address _keepStakedFactory,\r\n        address _fullyBackedFactory,\r\n        address _factorySelector\r\n    ) public {\r\n        keepFactorySelection.setFactories(\r\n            _keepStakedFactory,\r\n            _fullyBackedFactory,\r\n            _factorySelector\r\n        );\r\n    }\r\n\r\n    function factories()\r\n        public\r\n        view\r\n        returns (\r\n            address _keepStakedFactory,\r\n            address _fullyBackedFactory,\r\n            address _factorySelector\r\n        )\r\n    {\r\n        _keepStakedFactory = address(keepFactorySelection.keepStakedFactory);\r\n        _fullyBackedFactory = address(keepFactorySelection.fullyBackedFactory);\r\n        _factorySelector = address(keepFactorySelection.factorySelector);\r\n    }\r\n}\r\n\r\ncontract KeepFactorySelectorStub is KeepFactorySelector {\r\n\r\n    bool internal defaultMode = true;\r\n    bool internal maliciousMode = false;\r\n\r\n    function selectFactory(\r\n        uint256,\r\n        IBondedECDSAKeepFactory _defaultFactory,\r\n        IBondedECDSAKeepFactory _fullyBackedFactory\r\n    ) external view returns (IBondedECDSAKeepFactory) {\r\n        if (maliciousMode) {\r\n            return IBondedECDSAKeepFactory(0xaFacEbadfAceCffeeFaceacebacEAfAceCfFEeA0);\r\n        } else if (defaultMode) {\r\n            return _defaultFactory;\r\n        } else {\r\n            return _fullyBackedFactory;\r\n        }\r\n    }\r\n\r\n    function setMaliciousMode() public {\r\n        maliciousMode = true;\r\n    }\r\n\r\n    function unsetMaliciousMode() public {\r\n        maliciousMode = false;\r\n    }\r\n\r\n    function setDefaultMode() public {\r\n        defaultMode = true;\r\n    }\r\n\r\n    function setFullyBackedMode() public {\r\n        defaultMode = false;\r\n    }\r\n}\r\n",
  "sourcePath": "C:/Users/Zyra/Desktop/pfk/tbtc/solidity/contracts/test/system/KeepFactorySelectionStub.sol",
  "compiler": {
    "name": "solc",
    "version": "0.5.17+commit.d19bba13.Emscripten.clang"
  },
  "schemaVersion": "3.3.1",
  "updatedAt": "2020-10-27T11:33:58.718Z",
  "devdoc": {
    "methods": {}
  },
  "userdoc": {
    "methods": {}
  }
}