{
  "contractName": "KeepFactorySelectionStub",
  "abi": [
    {
      "constant": false,
      "inputs": [
        {
          "internalType": "contract IBondedECDSAKeepFactory",
          "name": "_defaultFactory",
          "type": "address"
        }
      ],
      "name": "initialize",
      "outputs": [],
      "payable": false,
      "stateMutability": "nonpayable",
      "type": "function"
    },
    {
      "constant": true,
      "inputs": [],
      "name": "selectFactory",
      "outputs": [
        {
          "internalType": "contract IBondedECDSAKeepFactory",
          "name": "",
          "type": "address"
        }
      ],
      "payable": false,
      "stateMutability": "view",
      "type": "function"
    },
    {
      "constant": false,
      "inputs": [
        {
          "internalType": "uint256",
          "name": "_minimumBondableValue",
          "type": "uint256"
        },
        {
          "internalType": "uint256",
          "name": "_groupSize",
          "type": "uint256"
        },
        {
          "internalType": "uint256",
          "name": "_honestThreshold",
          "type": "uint256"
        }
      ],
      "name": "setMinimumBondableValue",
      "outputs": [],
      "payable": false,
      "stateMutability": "nonpayable",
      "type": "function"
    },
    {
      "constant": false,
      "inputs": [],
      "name": "selectFactoryAndRefresh",
      "outputs": [
        {
          "internalType": "contract IBondedECDSAKeepFactory",
          "name": "",
          "type": "address"
        }
      ],
      "payable": false,
      "stateMutability": "nonpayable",
      "type": "function"
    },
    {
      "constant": false,
      "inputs": [
        {
          "internalType": "address",
          "name": "_keepStakedFactory",
          "type": "address"
        },
        {
          "internalType": "address",
          "name": "_fullyBackedFactory",
          "type": "address"
        },
        {
          "internalType": "address",
          "name": "_factorySelector",
          "type": "address"
        }
      ],
      "name": "setFactories",
      "outputs": [],
      "payable": false,
      "stateMutability": "nonpayable",
      "type": "function"
    },
    {
      "constant": true,
      "inputs": [],
      "name": "factories",
      "outputs": [
        {
          "internalType": "address",
          "name": "_keepStakedFactory",
          "type": "address"
        },
        {
          "internalType": "address",
          "name": "_fullyBackedFactory",
          "type": "address"
        },
        {
          "internalType": "address",
          "name": "_factorySelector",
          "type": "address"
        }
      ],
      "payable": false,
      "stateMutability": "view",
      "type": "function"
    }
  ],
  "bytecode": "0x608060405234801561001057600080fd5b5061043d806100206000396000f3fe608060405234801561001057600080fd5b50600436106100625760003560e01c80633fd19199146100675780636291fc8d1461008b5780637bd3b99514610093578063b8ee9156146100cd578063c4d66de8146100f6578063fe5b38e41461011c575b600080fd5b61006f61014f565b604080516001600160a01b039092168252519081900360200190f35b61006f6101d3565b6100cb600480360360608110156100a957600080fd5b506001600160a01b038135811691602081013582169160409091013516610226565b005b6100cb600480360360608110156100e357600080fd5b508035906020810135906040013561023e565b6100cb6004803603602081101561010c57600080fd5b50356001600160a01b03166102c0565b61012461033a565b604080516001600160a01b039485168152928416602084015292168183015290519081900360600190f35b60008073__KeepFactorySelection__________________63d83d44b090916040518263ffffffff1660e01b81526004018082815260200191505060206040518083038186803b1580156101a257600080fd5b505af41580156101b6573d6000803e3d6000fd5b505050506040513d60208110156101cc57600080fd5b5051905090565b60008073__KeepFactorySelection__________________63d857268890916040518263ffffffff1660e01b81526004018082815260200191505060206040518083038186803b1580156101a257600080fd5b610239600084848463ffffffff61035716565b505050565b6040805163e33cd97160e01b8152600060048201819052602482018690526044820185905260648201849052915173__KeepFactorySelection__________________9263e33cd9719260848082019391829003018186803b1580156102a357600080fd5b505af41580156102b7573d6000803e3d6000fd5b50505050505050565b6040805163e8e08cf160e01b81526000600482018190526001600160a01b0384166024830152915173__KeepFactorySelection__________________9263e8e08cf19260448082019391829003018186803b15801561031f57600080fd5b505af4158015610333573d6000803e3d6000fd5b5050505050565b6003546004546002546001600160a01b0392831693918316921690565b6001600160a01b03831661039c5760405162461bcd60e51b81526004018080602001828103825260238152602001806103e66023913960400191505060405180910390fd5b6003840180546001600160a01b039485166001600160a01b031991821617909155600485018054938516938216939093179092556002909301805493909216921691909117905556fe496e76616c6964204b4545502d7374616b656420666163746f72792061646472657373a265627a7a72315820d3c616fe5e14c497e30543996dbde099bc4c051118a9c1abd985e7cf7dcebe9f64736f6c63430005110032",
  "source": "pragma solidity 0.5.17;\r\n\r\nimport {IBondedECDSAKeepFactory} from \"@keep-network/keep-ecdsa/contracts/api/IBondedECDSAKeepFactory.sol\";\r\n\r\nimport \"../../system/KeepFactorySelection.sol\";\r\n\r\ncontract KeepFactorySelectionStub {\r\n    using KeepFactorySelection for KeepFactorySelection.Storage;\r\n    KeepFactorySelection.Storage keepFactorySelection;\r\n\r\n    function initialize(IBondedECDSAKeepFactory _defaultFactory) public {\r\n        keepFactorySelection.initialize(_defaultFactory);\r\n    }\r\n\r\n    function selectFactory() public view returns (IBondedECDSAKeepFactory) {\r\n        return keepFactorySelection.selectFactory();\r\n    }\r\n\r\n    function setMinimumBondableValue(\r\n        uint256 _minimumBondableValue,\r\n        uint256 _groupSize,\r\n        uint256 _honestThreshold\r\n    ) public {\r\n        keepFactorySelection.setMinimumBondableValue(\r\n            _minimumBondableValue,\r\n            _groupSize,\r\n            _honestThreshold\r\n        );\r\n    }\r\n\r\n    function selectFactoryAndRefresh() public returns (IBondedECDSAKeepFactory) {\r\n        return keepFactorySelection.selectFactoryAndRefresh();\r\n    }\r\n\r\n    function setFactories(\r\n        address _keepStakedFactory,\r\n        address _fullyBackedFactory,\r\n        address _factorySelector\r\n    ) public {\r\n        keepFactorySelection.setFactories(\r\n            _keepStakedFactory,\r\n            _fullyBackedFactory,\r\n            _factorySelector\r\n        );\r\n    }\r\n\r\n    function factories()\r\n        public\r\n        view\r\n        returns (\r\n            address _keepStakedFactory,\r\n            address _fullyBackedFactory,\r\n            address _factorySelector\r\n        )\r\n    {\r\n        _keepStakedFactory = address(keepFactorySelection.keepStakedFactory);\r\n        _fullyBackedFactory = address(keepFactorySelection.fullyBackedFactory);\r\n        _factorySelector = address(keepFactorySelection.factorySelector);\r\n    }\r\n}\r\n\r\ncontract KeepFactorySelectorStub is KeepFactorySelector {\r\n\r\n    bool internal defaultMode = true;\r\n    bool internal maliciousMode = false;\r\n\r\n    function selectFactory(\r\n        uint256,\r\n        IBondedECDSAKeepFactory _defaultFactory,\r\n        IBondedECDSAKeepFactory _fullyBackedFactory\r\n    ) external view returns (IBondedECDSAKeepFactory) {\r\n        if (maliciousMode) {\r\n            return IBondedECDSAKeepFactory(0xaFacEbadfAceCffeeFaceacebacEAfAceCfFEeA0);\r\n        } else if (defaultMode) {\r\n            return _defaultFactory;\r\n        } else {\r\n            return _fullyBackedFactory;\r\n        }\r\n    }\r\n\r\n    function setMaliciousMode() public {\r\n        maliciousMode = true;\r\n    }\r\n\r\n    function unsetMaliciousMode() public {\r\n        maliciousMode = false;\r\n    }\r\n\r\n    function setDefaultMode() public {\r\n        defaultMode = true;\r\n    }\r\n\r\n    function setFullyBackedMode() public {\r\n        defaultMode = false;\r\n    }\r\n}\r\n",
  "sourcePath": "C:/Users/Zyra/Desktop/pfk/tbtc/solidity/contracts/test/system/KeepFactorySelectionStub.sol",
  "compiler": {
    "name": "solc",
    "version": "0.5.17+commit.d19bba13.Emscripten.clang"
  },
  "schemaVersion": "3.3.1",
  "updatedAt": "2020-10-27T11:33:58.713Z",
  "devdoc": {
    "methods": {}
  },
  "userdoc": {
    "methods": {}
  }
}