{
  "contractName": "MockSatWeiPriceFeed",
  "abi": [
    {
      "constant": true,
      "inputs": [],
      "name": "getPrice",
      "outputs": [
        {
          "internalType": "uint256",
          "name": "",
          "type": "uint256"
        }
      ],
      "payable": false,
      "stateMutability": "view",
      "type": "function"
    },
    {
      "constant": false,
      "inputs": [
        {
          "internalType": "uint256",
          "name": "_price",
          "type": "uint256"
        }
      ],
      "name": "setPrice",
      "outputs": [],
      "payable": false,
      "stateMutability": "nonpayable",
      "type": "function"
    }
  ],
  "bytecode": "0x6080604052348015600f57600080fd5b5060ab8061001e6000396000f3fe6080604052348015600f57600080fd5b506004361060325760003560e01c806391b7f5ed14603757806398d5fdca146053575b600080fd5b605160048036036020811015604b57600080fd5b5035606b565b005b60596070565b60408051918252519081900360200190f35b600055565b6000549056fea265627a7a7231582073e4345ea208483c75c27e63e7cc33d2124075ae5dc51be0242f7fbab6a4c82464736f6c63430005110032",
  "source": "pragma solidity 0.5.17;\r\n\r\ncontract MockSatWeiPriceFeed{\r\n\r\n    uint256 private price;\r\n\r\n    /// @notice Get the current price of satoshi in wei.\r\n    /// @return The price of one satoshi in wei.\r\n    function getPrice()\r\n        external view returns (uint256)\r\n    {\r\n        return price;\r\n    }\r\n\r\n    function setPrice(uint256 _price) public {\r\n        price = _price;\r\n    }\r\n\r\n}\r\n",
  "sourcePath": "C:/Users/Zyra/Desktop/pfk/tbtc/solidity/contracts/test/price-feed/MockSatWeiPriceFeed.sol",
  "compiler": {
    "name": "solc",
    "version": "0.5.17+commit.d19bba13.Emscripten.clang"
  },
  "schemaVersion": "3.3.1",
  "updatedAt": "2020-10-27T11:33:58.709Z",
  "devdoc": {
    "methods": {
      "getPrice()": {
        "return": "The price of one satoshi in wei."
      }
    }
  },
  "userdoc": {
    "methods": {
      "getPrice()": {
        "notice": "Get the current price of satoshi in wei."
      }
    }
  }
}