{
  "contractName": "TBTCConstants",
  "abi": [
    {
      "constant": true,
      "inputs": [],
      "name": "AUCTION_DURATION",
      "outputs": [
        {
          "internalType": "uint256",
          "name": "",
          "type": "uint256"
        }
      ],
      "payable": false,
      "stateMutability": "view",
      "type": "function"
    },
    {
      "constant": true,
      "inputs": [],
      "name": "BENEFICIARY_FEE_DIVISOR",
      "outputs": [
        {
          "internalType": "uint256",
          "name": "",
          "type": "uint256"
        }
      ],
      "payable": false,
      "stateMutability": "view",
      "type": "function"
    },
    {
      "constant": true,
      "inputs": [],
      "name": "COURTESY_CALL_DURATION",
      "outputs": [
        {
          "internalType": "uint256",
          "name": "",
          "type": "uint256"
        }
      ],
      "payable": false,
      "stateMutability": "view",
      "type": "function"
    },
    {
      "constant": true,
      "inputs": [],
      "name": "DEPOSIT_TERM_LENGTH",
      "outputs": [
        {
          "internalType": "uint256",
          "name": "",
          "type": "uint256"
        }
      ],
      "payable": false,
      "stateMutability": "view",
      "type": "function"
    },
    {
      "constant": true,
      "inputs": [],
      "name": "FORMATION_TIMEOUT",
      "outputs": [
        {
          "internalType": "uint256",
          "name": "",
          "type": "uint256"
        }
      ],
      "payable": false,
      "stateMutability": "view",
      "type": "function"
    },
    {
      "constant": true,
      "inputs": [],
      "name": "FUNDING_PROOF_TIMEOUT",
      "outputs": [
        {
          "internalType": "uint256",
          "name": "",
          "type": "uint256"
        }
      ],
      "payable": false,
      "stateMutability": "view",
      "type": "function"
    },
    {
      "constant": true,
      "inputs": [],
      "name": "INCREASE_FEE_TIMER",
      "outputs": [
        {
          "internalType": "uint256",
          "name": "",
          "type": "uint256"
        }
      ],
      "payable": false,
      "stateMutability": "view",
      "type": "function"
    },
    {
      "constant": true,
      "inputs": [],
      "name": "MINIMUM_REDEMPTION_FEE",
      "outputs": [
        {
          "internalType": "uint256",
          "name": "",
          "type": "uint256"
        }
      ],
      "payable": false,
      "stateMutability": "view",
      "type": "function"
    },
    {
      "constant": true,
      "inputs": [],
      "name": "MINIMUM_UTXO_VALUE",
      "outputs": [
        {
          "internalType": "uint256",
          "name": "",
          "type": "uint256"
        }
      ],
      "payable": false,
      "stateMutability": "view",
      "type": "function"
    },
    {
      "constant": true,
      "inputs": [],
      "name": "REDEMPTION_PROOF_TIMEOUT",
      "outputs": [
        {
          "internalType": "uint256",
          "name": "",
          "type": "uint256"
        }
      ],
      "payable": false,
      "stateMutability": "view",
      "type": "function"
    },
    {
      "constant": true,
      "inputs": [],
      "name": "REDEMPTION_SIGNATURE_TIMEOUT",
      "outputs": [
        {
          "internalType": "uint256",
          "name": "",
          "type": "uint256"
        }
      ],
      "payable": false,
      "stateMutability": "view",
      "type": "function"
    },
    {
      "constant": true,
      "inputs": [],
      "name": "SATOSHI_MULTIPLIER",
      "outputs": [
        {
          "internalType": "uint256",
          "name": "",
          "type": "uint256"
        }
      ],
      "payable": false,
      "stateMutability": "view",
      "type": "function"
    },
    {
      "constant": true,
      "inputs": [],
      "name": "TX_PROOF_DIFFICULTY_FACTOR",
      "outputs": [
        {
          "internalType": "uint256",
          "name": "",
          "type": "uint256"
        }
      ],
      "payable": false,
      "stateMutability": "view",
      "type": "function"
    },
    {
      "constant": true,
      "inputs": [],
      "name": "getBeneficiaryRewardDivisor",
      "outputs": [
        {
          "internalType": "uint256",
          "name": "",
          "type": "uint256"
        }
      ],
      "payable": false,
      "stateMutability": "pure",
      "type": "function"
    },
    {
      "constant": true,
      "inputs": [],
      "name": "getSatoshiMultiplier",
      "outputs": [
        {
          "internalType": "uint256",
          "name": "",
          "type": "uint256"
        }
      ],
      "payable": false,
      "stateMutability": "pure",
      "type": "function"
    },
    {
      "constant": true,
      "inputs": [],
      "name": "getDepositTerm",
      "outputs": [
        {
          "internalType": "uint256",
          "name": "",
          "type": "uint256"
        }
      ],
      "payable": false,
      "stateMutability": "pure",
      "type": "function"
    },
    {
      "constant": true,
      "inputs": [],
      "name": "getTxProofDifficultyFactor",
      "outputs": [
        {
          "internalType": "uint256",
          "name": "",
          "type": "uint256"
        }
      ],
      "payable": false,
      "stateMutability": "pure",
      "type": "function"
    },
    {
      "constant": true,
      "inputs": [],
      "name": "getSignatureTimeout",
      "outputs": [
        {
          "internalType": "uint256",
          "name": "",
          "type": "uint256"
        }
      ],
      "payable": false,
      "stateMutability": "pure",
      "type": "function"
    },
    {
      "constant": true,
      "inputs": [],
      "name": "getIncreaseFeeTimer",
      "outputs": [
        {
          "internalType": "uint256",
          "name": "",
          "type": "uint256"
        }
      ],
      "payable": false,
      "stateMutability": "pure",
      "type": "function"
    },
    {
      "constant": true,
      "inputs": [],
      "name": "getRedemptionProofTimeout",
      "outputs": [
        {
          "internalType": "uint256",
          "name": "",
          "type": "uint256"
        }
      ],
      "payable": false,
      "stateMutability": "pure",
      "type": "function"
    },
    {
      "constant": true,
      "inputs": [],
      "name": "getMinimumRedemptionFee",
      "outputs": [
        {
          "internalType": "uint256",
          "name": "",
          "type": "uint256"
        }
      ],
      "payable": false,
      "stateMutability": "pure",
      "type": "function"
    },
    {
      "constant": true,
      "inputs": [],
      "name": "getMinimumUtxoValue",
      "outputs": [
        {
          "internalType": "uint256",
          "name": "",
          "type": "uint256"
        }
      ],
      "payable": false,
      "stateMutability": "pure",
      "type": "function"
    },
    {
      "constant": true,
      "inputs": [],
      "name": "getFundingTimeout",
      "outputs": [
        {
          "internalType": "uint256",
          "name": "",
          "type": "uint256"
        }
      ],
      "payable": false,
      "stateMutability": "pure",
      "type": "function"
    },
    {
      "constant": true,
      "inputs": [],
      "name": "getSigningGroupFormationTimeout",
      "outputs": [
        {
          "internalType": "uint256",
          "name": "",
          "type": "uint256"
        }
      ],
      "payable": false,
      "stateMutability": "pure",
      "type": "function"
    },
    {
      "constant": true,
      "inputs": [],
      "name": "getCourtesyCallTimeout",
      "outputs": [
        {
          "internalType": "uint256",
          "name": "",
          "type": "uint256"
        }
      ],
      "payable": false,
      "stateMutability": "pure",
      "type": "function"
    },
    {
      "constant": true,
      "inputs": [],
      "name": "getAuctionDuration",
      "outputs": [
        {
          "internalType": "uint256",
          "name": "",
          "type": "uint256"
        }
      ],
      "payable": false,
      "stateMutability": "pure",
      "type": "function"
    }
  ],
  "bytecode": "0x610304610026600b82828239805160001a60731461001957fe5b30600052607381538281f3fe73000000000000000000000000000000000000000030146080604052600436106101985760003560e01c80639887426d116100e8578063ae9eb127116100a1578063d565d1f11161007b578063d565d1f114610237578063d891dcdb1461023f578063f653c0b914610247578063fc94f1d61461021f57610198565b8063ae9eb12714610227578063c342b1f7146101d7578063c7ba03471461022f57610198565b80639887426d146101df5780639b3fd99f14610207578063a1f6c6391461020f578063a271e52514610217578063a99b5283146101c7578063ac8bfdad1461021f57610198565b80635480b4b211610155578063741b5e4c1161012f578063741b5e4c146101b757806378cb51af146101f75780638446bd38146101ff57806386322af7146101ff57610198565b80635480b4b2146101df5780635b6b452a146101e75780636da1dda2146101ef57610198565b806302b7044b1461019d57806309a753e0146101b75780630a913dea146101bf57806312aeac83146101c7578063242c0ed0146101cf57806338c86093146101d7575b600080fd5b6101a561024f565b60408051918252519081900360200190f35b6101a5610254565b6101a561025a565b6101a5610261565b6101a5610267565b6101a561026d565b6101a5610273565b6101a5610279565b6101a561027f565b6101a5610285565b6101a561028c565b6101a5610292565b6101a5610297565b6101a561029d565b6101a56102a4565b6101a56102aa565b6101a56102b3565b6101a56102bc565b6101a56102c3565b6101a56102c9565b600681565b6107d081565b62ed4e0081565b612a3081565b61384081565b612a3090565b61546090565b611c2081565b6103e881565b6201518090565b6107d090565b600690565b6103e890565b6201518081565b61546081565b6402540be40090565b6402540be40081565b62ed4e0090565b611c2090565b6138409056fea265627a7a7231582067f5011ee73d936dd8c87250239f2e4db9753cfc3912c885815dfb36dbc1c9ff64736f6c63430005110032",
  "source": "pragma solidity 0.5.17;\r\n\r\nlibrary TBTCConstants {\r\n    // This is intended to make it easy to update system params\r\n    // During testing swap this out with another constats contract\r\n\r\n    // System Parameters\r\n    uint256 public constant BENEFICIARY_FEE_DIVISOR = 1000;  // 1/1000 = 10 bps = 0.1% = 0.001\r\n    uint256 public constant SATOSHI_MULTIPLIER = 10 ** 10; // multiplier to convert satoshi to TBTC token units\r\n    uint256 public constant DEPOSIT_TERM_LENGTH = 180 * 24 * 60 * 60; // 180 days in seconds\r\n    uint256 public constant TX_PROOF_DIFFICULTY_FACTOR = 6; // confirmations on the Bitcoin chain\r\n\r\n    // Redemption Flow\r\n    uint256 public constant REDEMPTION_SIGNATURE_TIMEOUT = 2 * 60 * 60;  // seconds\r\n    uint256 public constant INCREASE_FEE_TIMER = 4 * 60 * 60;  // seconds\r\n    uint256 public constant REDEMPTION_PROOF_TIMEOUT = 6 * 60 * 60;  // seconds\r\n    uint256 public constant MINIMUM_REDEMPTION_FEE = 2000; // satoshi\r\n    uint256 public constant MINIMUM_UTXO_VALUE = 2000; // satoshi\r\n\r\n    // Funding Flow\r\n    uint256 public constant FUNDING_PROOF_TIMEOUT = 3 * 60 * 60; // seconds\r\n    uint256 public constant FORMATION_TIMEOUT = 3 * 60 * 60; // seconds\r\n\r\n    // Liquidation Flow\r\n    uint256 public constant COURTESY_CALL_DURATION = 6 * 60 * 60; // seconds\r\n    uint256 public constant AUCTION_DURATION = 24 * 60 * 60; // seconds\r\n\r\n    // Getters for easy access\r\n    function getBeneficiaryRewardDivisor() external pure returns (uint256) { return BENEFICIARY_FEE_DIVISOR; }\r\n    function getSatoshiMultiplier() external pure returns (uint256) { return SATOSHI_MULTIPLIER; }\r\n    function getDepositTerm() external pure returns (uint256) { return DEPOSIT_TERM_LENGTH; }\r\n    function getTxProofDifficultyFactor() external pure returns (uint256) { return TX_PROOF_DIFFICULTY_FACTOR; }\r\n\r\n    function getSignatureTimeout() external pure returns (uint256) { return REDEMPTION_SIGNATURE_TIMEOUT; }\r\n    function getIncreaseFeeTimer() external pure returns (uint256) { return INCREASE_FEE_TIMER; }\r\n    function getRedemptionProofTimeout() external pure returns (uint256) { return REDEMPTION_PROOF_TIMEOUT; }\r\n    function getMinimumRedemptionFee() external pure returns (uint256) { return MINIMUM_REDEMPTION_FEE; }\r\n    function getMinimumUtxoValue() external pure returns (uint256) { return MINIMUM_UTXO_VALUE; }\r\n\r\n    function getFundingTimeout() external pure returns (uint256) { return FUNDING_PROOF_TIMEOUT; }\r\n    function getSigningGroupFormationTimeout() external pure returns (uint256) { return FORMATION_TIMEOUT; }\r\n\r\n    function getCourtesyCallTimeout() external pure returns (uint256) { return COURTESY_CALL_DURATION; }\r\n    function getAuctionDuration() external pure returns (uint256) { return AUCTION_DURATION; }\r\n}\r\n",
  "sourcePath": "C:\\Users\\Zyra\\Desktop\\pfk\\tbtc\\solidity\\contracts\\system\\TBTCConstants.sol",
  "compiler": {
    "name": "solc",
    "version": "0.5.17+commit.d19bba13.Emscripten.clang"
  },
  "schemaVersion": "3.3.1",
  "updatedAt": "2020-10-27T11:33:58.586Z",
  "devdoc": {
    "methods": {}
  },
  "userdoc": {
    "methods": {}
  }
}