{
  "contractName": "TBTCSystem",
  "abi": [
    {
      "inputs": [
        {
          "internalType": "address",
          "name": "_priceFeed",
          "type": "address"
        },
        {
          "internalType": "address",
          "name": "_relay",
          "type": "address"
        }
      ],
      "payable": false,
      "stateMutability": "nonpayable",
      "type": "constructor"
    },
    {
      "anonymous": false,
      "inputs": [
        {
          "indexed": false,
          "internalType": "bool",
          "name": "_allowNewDeposits",
          "type": "bool"
        }
      ],
      "name": "AllowNewDepositsUpdated",
      "type": "event"
    },
    {
      "anonymous": false,
      "inputs": [
        {
          "indexed": false,
          "internalType": "uint16",
          "name": "_initialCollateralizedPercent",
          "type": "uint16"
        },
        {
          "indexed": false,
          "internalType": "uint16",
          "name": "_undercollateralizedThresholdPercent",
          "type": "uint16"
        },
        {
          "indexed": false,
          "internalType": "uint16",
          "name": "_severelyUndercollateralizedThresholdPercent",
          "type": "uint16"
        },
        {
          "indexed": false,
          "internalType": "uint256",
          "name": "_timestamp",
          "type": "uint256"
        }
      ],
      "name": "CollateralizationThresholdsUpdateStarted",
      "type": "event"
    },
    {
      "anonymous": false,
      "inputs": [
        {
          "indexed": false,
          "internalType": "uint16",
          "name": "_initialCollateralizedPercent",
          "type": "uint16"
        },
        {
          "indexed": false,
          "internalType": "uint16",
          "name": "_undercollateralizedThresholdPercent",
          "type": "uint16"
        },
        {
          "indexed": false,
          "internalType": "uint16",
          "name": "_severelyUndercollateralizedThresholdPercent",
          "type": "uint16"
        }
      ],
      "name": "CollateralizationThresholdsUpdated",
      "type": "event"
    },
    {
      "anonymous": false,
      "inputs": [
        {
          "indexed": true,
          "internalType": "address",
          "name": "_depositContractAddress",
          "type": "address"
        },
        {
          "indexed": false,
          "internalType": "uint256",
          "name": "_timestamp",
          "type": "uint256"
        }
      ],
      "name": "CourtesyCalled",
      "type": "event"
    },
    {
      "anonymous": false,
      "inputs": [
        {
          "indexed": true,
          "internalType": "address",
          "name": "_depositContractAddress",
          "type": "address"
        },
        {
          "indexed": true,
          "internalType": "address",
          "name": "_keepAddress",
          "type": "address"
        },
        {
          "indexed": false,
          "internalType": "uint256",
          "name": "_timestamp",
          "type": "uint256"
        }
      ],
      "name": "Created",
      "type": "event"
    },
    {
      "anonymous": false,
      "inputs": [
        {
          "indexed": false,
          "internalType": "address",
          "name": "_priceFeed",
          "type": "address"
        }
      ],
      "name": "EthBtcPriceFeedAdded",
      "type": "event"
    },
    {
      "anonymous": false,
      "inputs": [
        {
          "indexed": false,
          "internalType": "address",
          "name": "_priceFeed",
          "type": "address"
        },
        {
          "indexed": false,
          "internalType": "uint256",
          "name": "_timestamp",
          "type": "uint256"
        }
      ],
      "name": "EthBtcPriceFeedAdditionStarted",
      "type": "event"
    },
    {
      "anonymous": false,
      "inputs": [
        {
          "indexed": true,
          "internalType": "address",
          "name": "_depositContractAddress",
          "type": "address"
        },
        {
          "indexed": false,
          "internalType": "uint256",
          "name": "_timestamp",
          "type": "uint256"
        }
      ],
      "name": "ExitedCourtesyCall",
      "type": "event"
    },
    {
      "anonymous": false,
      "inputs": [
        {
          "indexed": true,
          "internalType": "address",
          "name": "_depositContractAddress",
          "type": "address"
        },
        {
          "indexed": false,
          "internalType": "uint256",
          "name": "_timestamp",
          "type": "uint256"
        }
      ],
      "name": "FraudDuringSetup",
      "type": "event"
    },
    {
      "anonymous": false,
      "inputs": [
        {
          "indexed": true,
          "internalType": "address",
          "name": "_depositContractAddress",
          "type": "address"
        },
        {
          "indexed": true,
          "internalType": "bytes32",
          "name": "_txid",
          "type": "bytes32"
        },
        {
          "indexed": false,
          "internalType": "uint256",
          "name": "_timestamp",
          "type": "uint256"
        }
      ],
      "name": "Funded",
      "type": "event"
    },
    {
      "anonymous": false,
      "inputs": [
        {
          "indexed": true,
          "internalType": "address",
          "name": "_depositContractAddress",
          "type": "address"
        },
        {
          "indexed": false,
          "internalType": "bytes",
          "name": "_abortOutputScript",
          "type": "bytes"
        }
      ],
      "name": "FunderAbortRequested",
      "type": "event"
    },
    {
      "anonymous": false,
      "inputs": [
        {
          "indexed": true,
          "internalType": "address",
          "name": "_depositContractAddress",
          "type": "address"
        },
        {
          "indexed": true,
          "internalType": "bytes32",
          "name": "_digest",
          "type": "bytes32"
        },
        {
          "indexed": false,
          "internalType": "bytes32",
          "name": "_r",
          "type": "bytes32"
        },
        {
          "indexed": false,
          "internalType": "bytes32",
          "name": "_s",
          "type": "bytes32"
        },
        {
          "indexed": false,
          "internalType": "uint256",
          "name": "_timestamp",
          "type": "uint256"
        }
      ],
      "name": "GotRedemptionSignature",
      "type": "event"
    },
    {
      "anonymous": false,
      "inputs": [
        {
          "indexed": false,
          "internalType": "address",
          "name": "_keepStakedFactory",
          "type": "address"
        },
        {
          "indexed": false,
          "internalType": "address",
          "name": "_fullyBackedFactory",
          "type": "address"
        },
        {
          "indexed": false,
          "internalType": "address",
          "name": "_factorySelector",
          "type": "address"
        },
        {
          "indexed": false,
          "internalType": "uint256",
          "name": "_timestamp",
          "type": "uint256"
        }
      ],
      "name": "KeepFactoriesUpdateStarted",
      "type": "event"
    },
    {
      "anonymous": false,
      "inputs": [
        {
          "indexed": false,
          "internalType": "address",
          "name": "_keepStakedFactory",
          "type": "address"
        },
        {
          "indexed": false,
          "internalType": "address",
          "name": "_fullyBackedFactory",
          "type": "address"
        },
        {
          "indexed": false,
          "internalType": "address",
          "name": "_factorySelector",
          "type": "address"
        }
      ],
      "name": "KeepFactoriesUpdated",
      "type": "event"
    },
    {
      "anonymous": false,
      "inputs": [
        {
          "indexed": true,
          "internalType": "address",
          "name": "_depositContractAddress",
          "type": "address"
        },
        {
          "indexed": false,
          "internalType": "uint256",
          "name": "_timestamp",
          "type": "uint256"
        }
      ],
      "name": "Liquidated",
      "type": "event"
    },
    {
      "anonymous": false,
      "inputs": [
        {
          "indexed": false,
          "internalType": "uint64[]",
          "name": "_lotSizes",
          "type": "uint64[]"
        },
        {
          "indexed": false,
          "internalType": "uint256",
          "name": "_timestamp",
          "type": "uint256"
        }
      ],
      "name": "LotSizesUpdateStarted",
      "type": "event"
    },
    {
      "anonymous": false,
      "inputs": [
        {
          "indexed": false,
          "internalType": "uint64[]",
          "name": "_lotSizes",
          "type": "uint64[]"
        }
      ],
      "name": "LotSizesUpdated",
      "type": "event"
    },
    {
      "anonymous": false,
      "inputs": [
        {
          "indexed": true,
          "internalType": "address",
          "name": "previousOwner",
          "type": "address"
        },
        {
          "indexed": true,
          "internalType": "address",
          "name": "newOwner",
          "type": "address"
        }
      ],
      "name": "OwnershipTransferred",
      "type": "event"
    },
    {
      "anonymous": false,
      "inputs": [
        {
          "indexed": true,
          "internalType": "address",
          "name": "_depositContractAddress",
          "type": "address"
        },
        {
          "indexed": true,
          "internalType": "bytes32",
          "name": "_txid",
          "type": "bytes32"
        },
        {
          "indexed": false,
          "internalType": "uint256",
          "name": "_timestamp",
          "type": "uint256"
        }
      ],
      "name": "Redeemed",
      "type": "event"
    },
    {
      "anonymous": false,
      "inputs": [
        {
          "indexed": true,
          "internalType": "address",
          "name": "_depositContractAddress",
          "type": "address"
        },
        {
          "indexed": true,
          "internalType": "address",
          "name": "_requester",
          "type": "address"
        },
        {
          "indexed": true,
          "internalType": "bytes32",
          "name": "_digest",
          "type": "bytes32"
        },
        {
          "indexed": false,
          "internalType": "uint256",
          "name": "_utxoValue",
          "type": "uint256"
        },
        {
          "indexed": false,
          "internalType": "bytes",
          "name": "_redeemerOutputScript",
          "type": "bytes"
        },
        {
          "indexed": false,
          "internalType": "uint256",
          "name": "_requestedFee",
          "type": "uint256"
        },
        {
          "indexed": false,
          "internalType": "bytes",
          "name": "_outpoint",
          "type": "bytes"
        }
      ],
      "name": "RedemptionRequested",
      "type": "event"
    },
    {
      "anonymous": false,
      "inputs": [
        {
          "indexed": true,
          "internalType": "address",
          "name": "_depositContractAddress",
          "type": "address"
        },
        {
          "indexed": false,
          "internalType": "bytes32",
          "name": "_signingGroupPubkeyX",
          "type": "bytes32"
        },
        {
          "indexed": false,
          "internalType": "bytes32",
          "name": "_signingGroupPubkeyY",
          "type": "bytes32"
        },
        {
          "indexed": false,
          "internalType": "uint256",
          "name": "_timestamp",
          "type": "uint256"
        }
      ],
      "name": "RegisteredPubkey",
      "type": "event"
    },
    {
      "anonymous": false,
      "inputs": [
        {
          "indexed": true,
          "internalType": "address",
          "name": "_depositContractAddress",
          "type": "address"
        },
        {
          "indexed": false,
          "internalType": "uint256",
          "name": "_timestamp",
          "type": "uint256"
        }
      ],
      "name": "SetupFailed",
      "type": "event"
    },
    {
      "anonymous": false,
      "inputs": [
        {
          "indexed": false,
          "internalType": "uint16",
          "name": "_signerFeeDivisor",
          "type": "uint16"
        },
        {
          "indexed": false,
          "internalType": "uint256",
          "name": "_timestamp",
          "type": "uint256"
        }
      ],
      "name": "SignerFeeDivisorUpdateStarted",
      "type": "event"
    },
    {
      "anonymous": false,
      "inputs": [
        {
          "indexed": false,
          "internalType": "uint16",
          "name": "_signerFeeDivisor",
          "type": "uint16"
        }
      ],
      "name": "SignerFeeDivisorUpdated",
      "type": "event"
    },
    {
      "anonymous": false,
      "inputs": [
        {
          "indexed": true,
          "internalType": "address",
          "name": "_depositContractAddress",
          "type": "address"
        },
        {
          "indexed": false,
          "internalType": "bool",
          "name": "_wasFraud",
          "type": "bool"
        },
        {
          "indexed": false,
          "internalType": "uint256",
          "name": "_timestamp",
          "type": "uint256"
        }
      ],
      "name": "StartedLiquidation",
      "type": "event"
    },
    {
      "constant": true,
      "inputs": [
        {
          "internalType": "address",
          "name": "_caller",
          "type": "address"
        }
      ],
      "name": "approvedToLog",
      "outputs": [
        {
          "internalType": "bool",
          "name": "",
          "type": "bool"
        }
      ],
      "payable": false,
      "stateMutability": "view",
      "type": "function"
    },
    {
      "constant": true,
      "inputs": [],
      "name": "isOwner",
      "outputs": [
        {
          "internalType": "bool",
          "name": "",
          "type": "bool"
        }
      ],
      "payable": false,
      "stateMutability": "view",
      "type": "function"
    },
    {
      "constant": true,
      "inputs": [],
      "name": "keepSize",
      "outputs": [
        {
          "internalType": "uint16",
          "name": "",
          "type": "uint16"
        }
      ],
      "payable": false,
      "stateMutability": "view",
      "type": "function"
    },
    {
      "constant": true,
      "inputs": [],
      "name": "keepThreshold",
      "outputs": [
        {
          "internalType": "uint16",
          "name": "",
          "type": "uint16"
        }
      ],
      "payable": false,
      "stateMutability": "view",
      "type": "function"
    },
    {
      "constant": false,
      "inputs": [],
      "name": "logCourtesyCalled",
      "outputs": [],
      "payable": false,
      "stateMutability": "nonpayable",
      "type": "function"
    },
    {
      "constant": false,
      "inputs": [
        {
          "internalType": "address",
          "name": "_keepAddress",
          "type": "address"
        }
      ],
      "name": "logCreated",
      "outputs": [],
      "payable": false,
      "stateMutability": "nonpayable",
      "type": "function"
    },
    {
      "constant": false,
      "inputs": [],
      "name": "logExitedCourtesyCall",
      "outputs": [],
      "payable": false,
      "stateMutability": "nonpayable",
      "type": "function"
    },
    {
      "constant": false,
      "inputs": [],
      "name": "logFraudDuringSetup",
      "outputs": [],
      "payable": false,
      "stateMutability": "nonpayable",
      "type": "function"
    },
    {
      "constant": false,
      "inputs": [
        {
          "internalType": "bytes32",
          "name": "_txid",
          "type": "bytes32"
        }
      ],
      "name": "logFunded",
      "outputs": [],
      "payable": false,
      "stateMutability": "nonpayable",
      "type": "function"
    },
    {
      "constant": false,
      "inputs": [
        {
          "internalType": "bytes",
          "name": "_abortOutputScript",
          "type": "bytes"
        }
      ],
      "name": "logFunderRequestedAbort",
      "outputs": [],
      "payable": false,
      "stateMutability": "nonpayable",
      "type": "function"
    },
    {
      "constant": false,
      "inputs": [
        {
          "internalType": "bytes32",
          "name": "_digest",
          "type": "bytes32"
        },
        {
          "internalType": "bytes32",
          "name": "_r",
          "type": "bytes32"
        },
        {
          "internalType": "bytes32",
          "name": "_s",
          "type": "bytes32"
        }
      ],
      "name": "logGotRedemptionSignature",
      "outputs": [],
      "payable": false,
      "stateMutability": "nonpayable",
      "type": "function"
    },
    {
      "constant": false,
      "inputs": [],
      "name": "logLiquidated",
      "outputs": [],
      "payable": false,
      "stateMutability": "nonpayable",
      "type": "function"
    },
    {
      "constant": false,
      "inputs": [
        {
          "internalType": "bytes32",
          "name": "_txid",
          "type": "bytes32"
        }
      ],
      "name": "logRedeemed",
      "outputs": [],
      "payable": false,
      "stateMutability": "nonpayable",
      "type": "function"
    },
    {
      "constant": false,
      "inputs": [
        {
          "internalType": "address",
          "name": "_requester",
          "type": "address"
        },
        {
          "internalType": "bytes32",
          "name": "_digest",
          "type": "bytes32"
        },
        {
          "internalType": "uint256",
          "name": "_utxoValue",
          "type": "uint256"
        },
        {
          "internalType": "bytes",
          "name": "_redeemerOutputScript",
          "type": "bytes"
        },
        {
          "internalType": "uint256",
          "name": "_requestedFee",
          "type": "uint256"
        },
        {
          "internalType": "bytes",
          "name": "_outpoint",
          "type": "bytes"
        }
      ],
      "name": "logRedemptionRequested",
      "outputs": [],
      "payable": false,
      "stateMutability": "nonpayable",
      "type": "function"
    },
    {
      "constant": false,
      "inputs": [
        {
          "internalType": "bytes32",
          "name": "_signingGroupPubkeyX",
          "type": "bytes32"
        },
        {
          "internalType": "bytes32",
          "name": "_signingGroupPubkeyY",
          "type": "bytes32"
        }
      ],
      "name": "logRegisteredPubkey",
      "outputs": [],
      "payable": false,
      "stateMutability": "nonpayable",
      "type": "function"
    },
    {
      "constant": false,
      "inputs": [],
      "name": "logSetupFailed",
      "outputs": [],
      "payable": false,
      "stateMutability": "nonpayable",
      "type": "function"
    },
    {
      "constant": false,
      "inputs": [
        {
          "internalType": "bool",
          "name": "_wasFraud",
          "type": "bool"
        }
      ],
      "name": "logStartedLiquidation",
      "outputs": [],
      "payable": false,
      "stateMutability": "nonpayable",
      "type": "function"
    },
    {
      "constant": true,
      "inputs": [],
      "name": "owner",
      "outputs": [
        {
          "internalType": "address",
          "name": "",
          "type": "address"
        }
      ],
      "payable": false,
      "stateMutability": "view",
      "type": "function"
    },
    {
      "constant": true,
      "inputs": [],
      "name": "priceFeed",
      "outputs": [
        {
          "internalType": "contract ISatWeiPriceFeed",
          "name": "",
          "type": "address"
        }
      ],
      "payable": false,
      "stateMutability": "view",
      "type": "function"
    },
    {
      "constant": true,
      "inputs": [],
      "name": "relay",
      "outputs": [
        {
          "internalType": "contract IRelay",
          "name": "",
          "type": "address"
        }
      ],
      "payable": false,
      "stateMutability": "view",
      "type": "function"
    },
    {
      "constant": false,
      "inputs": [],
      "name": "renounceOwnership",
      "outputs": [],
      "payable": false,
      "stateMutability": "nonpayable",
      "type": "function"
    },
    {
      "constant": false,
      "inputs": [
        {
          "internalType": "address",
          "name": "newOwner",
          "type": "address"
        }
      ],
      "name": "transferOwnership",
      "outputs": [],
      "payable": false,
      "stateMutability": "nonpayable",
      "type": "function"
    },
    {
      "constant": false,
      "inputs": [
        {
          "internalType": "contract IBondedECDSAKeepFactory",
          "name": "_defaultKeepFactory",
          "type": "address"
        },
        {
          "internalType": "contract DepositFactory",
          "name": "_depositFactory",
          "type": "address"
        },
        {
          "internalType": "address payable",
          "name": "_masterDepositAddress",
          "type": "address"
        },
        {
          "internalType": "contract TBTCToken",
          "name": "_tbtcToken",
          "type": "address"
        },
        {
          "internalType": "contract TBTCDepositToken",
          "name": "_tbtcDepositToken",
          "type": "address"
        },
        {
          "internalType": "contract FeeRebateToken",
          "name": "_feeRebateToken",
          "type": "address"
        },
        {
          "internalType": "contract VendingMachine",
          "name": "_vendingMachine",
          "type": "address"
        },
        {
          "internalType": "uint16",
          "name": "_keepThreshold",
          "type": "uint16"
        },
        {
          "internalType": "uint16",
          "name": "_keepSize",
          "type": "uint16"
        }
      ],
      "name": "initialize",
      "outputs": [],
      "payable": false,
      "stateMutability": "nonpayable",
      "type": "function"
    },
    {
      "constant": true,
      "inputs": [],
      "name": "getAllowNewDeposits",
      "outputs": [
        {
          "internalType": "bool",
          "name": "",
          "type": "bool"
        }
      ],
      "payable": false,
      "stateMutability": "view",
      "type": "function"
    },
    {
      "constant": true,
      "inputs": [],
      "name": "getMinimumLotSize",
      "outputs": [
        {
          "internalType": "uint256",
          "name": "",
          "type": "uint256"
        }
      ],
      "payable": false,
      "stateMutability": "view",
      "type": "function"
    },
    {
      "constant": true,
      "inputs": [],
      "name": "getMaximumLotSize",
      "outputs": [
        {
          "internalType": "uint256",
          "name": "",
          "type": "uint256"
        }
      ],
      "payable": false,
      "stateMutability": "view",
      "type": "function"
    },
    {
      "constant": false,
      "inputs": [],
      "name": "emergencyPauseNewDeposits",
      "outputs": [],
      "payable": false,
      "stateMutability": "nonpayable",
      "type": "function"
    },
    {
      "constant": false,
      "inputs": [],
      "name": "resumeNewDeposits",
      "outputs": [],
      "payable": false,
      "stateMutability": "nonpayable",
      "type": "function"
    },
    {
      "constant": true,
      "inputs": [],
      "name": "getRemainingPauseTerm",
      "outputs": [
        {
          "internalType": "uint256",
          "name": "",
          "type": "uint256"
        }
      ],
      "payable": false,
      "stateMutability": "view",
      "type": "function"
    },
    {
      "constant": false,
      "inputs": [
        {
          "internalType": "uint16",
          "name": "_signerFeeDivisor",
          "type": "uint16"
        }
      ],
      "name": "beginSignerFeeDivisorUpdate",
      "outputs": [],
      "payable": false,
      "stateMutability": "nonpayable",
      "type": "function"
    },
    {
      "constant": false,
      "inputs": [
        {
          "internalType": "uint64[]",
          "name": "_lotSizes",
          "type": "uint64[]"
        }
      ],
      "name": "beginLotSizesUpdate",
      "outputs": [],
      "payable": false,
      "stateMutability": "nonpayable",
      "type": "function"
    },
    {
      "constant": false,
      "inputs": [
        {
          "internalType": "uint16",
          "name": "_initialCollateralizedPercent",
          "type": "uint16"
        },
        {
          "internalType": "uint16",
          "name": "_undercollateralizedThresholdPercent",
          "type": "uint16"
        },
        {
          "internalType": "uint16",
          "name": "_severelyUndercollateralizedThresholdPercent",
          "type": "uint16"
        }
      ],
      "name": "beginCollateralizationThresholdsUpdate",
      "outputs": [],
      "payable": false,
      "stateMutability": "nonpayable",
      "type": "function"
    },
    {
      "constant": false,
      "inputs": [
        {
          "internalType": "address",
          "name": "_keepStakedFactory",
          "type": "address"
        },
        {
          "internalType": "address",
          "name": "_fullyBackedFactory",
          "type": "address"
        },
        {
          "internalType": "address",
          "name": "_factorySelector",
          "type": "address"
        }
      ],
      "name": "beginKeepFactoriesUpdate",
      "outputs": [],
      "payable": false,
      "stateMutability": "nonpayable",
      "type": "function"
    },
    {
      "constant": false,
      "inputs": [
        {
          "internalType": "contract IMedianizer",
          "name": "_ethBtcPriceFeed",
          "type": "address"
        }
      ],
      "name": "beginEthBtcPriceFeedAddition",
      "outputs": [],
      "payable": false,
      "stateMutability": "nonpayable",
      "type": "function"
    },
    {
      "constant": false,
      "inputs": [],
      "name": "finalizeSignerFeeDivisorUpdate",
      "outputs": [],
      "payable": false,
      "stateMutability": "nonpayable",
      "type": "function"
    },
    {
      "constant": false,
      "inputs": [],
      "name": "finalizeLotSizesUpdate",
      "outputs": [],
      "payable": false,
      "stateMutability": "nonpayable",
      "type": "function"
    },
    {
      "constant": false,
      "inputs": [],
      "name": "finalizeCollateralizationThresholdsUpdate",
      "outputs": [],
      "payable": false,
      "stateMutability": "nonpayable",
      "type": "function"
    },
    {
      "constant": false,
      "inputs": [],
      "name": "finalizeKeepFactoriesUpdate",
      "outputs": [],
      "payable": false,
      "stateMutability": "nonpayable",
      "type": "function"
    },
    {
      "constant": false,
      "inputs": [],
      "name": "finalizeEthBtcPriceFeedAddition",
      "outputs": [],
      "payable": false,
      "stateMutability": "nonpayable",
      "type": "function"
    },
    {
      "constant": true,
      "inputs": [],
      "name": "getSignerFeeDivisor",
      "outputs": [
        {
          "internalType": "uint16",
          "name": "",
          "type": "uint16"
        }
      ],
      "payable": false,
      "stateMutability": "view",
      "type": "function"
    },
    {
      "constant": true,
      "inputs": [],
      "name": "getAllowedLotSizes",
      "outputs": [
        {
          "internalType": "uint64[]",
          "name": "",
          "type": "uint64[]"
        }
      ],
      "payable": false,
      "stateMutability": "view",
      "type": "function"
    },
    {
      "constant": true,
      "inputs": [],
      "name": "getUndercollateralizedThresholdPercent",
      "outputs": [
        {
          "internalType": "uint16",
          "name": "",
          "type": "uint16"
        }
      ],
      "payable": false,
      "stateMutability": "view",
      "type": "function"
    },
    {
      "constant": true,
      "inputs": [],
      "name": "getSeverelyUndercollateralizedThresholdPercent",
      "outputs": [
        {
          "internalType": "uint16",
          "name": "",
          "type": "uint16"
        }
      ],
      "payable": false,
      "stateMutability": "view",
      "type": "function"
    },
    {
      "constant": true,
      "inputs": [],
      "name": "getInitialCollateralizedPercent",
      "outputs": [
        {
          "internalType": "uint16",
          "name": "",
          "type": "uint16"
        }
      ],
      "payable": false,
      "stateMutability": "view",
      "type": "function"
    },
    {
      "constant": true,
      "inputs": [],
      "name": "fetchBitcoinPrice",
      "outputs": [
        {
          "internalType": "uint256",
          "name": "",
          "type": "uint256"
        }
      ],
      "payable": false,
      "stateMutability": "view",
      "type": "function"
    },
    {
      "constant": true,
      "inputs": [],
      "name": "fetchRelayCurrentDifficulty",
      "outputs": [
        {
          "internalType": "uint256",
          "name": "",
          "type": "uint256"
        }
      ],
      "payable": false,
      "stateMutability": "view",
      "type": "function"
    },
    {
      "constant": true,
      "inputs": [],
      "name": "fetchRelayPreviousDifficulty",
      "outputs": [
        {
          "internalType": "uint256",
          "name": "",
          "type": "uint256"
        }
      ],
      "payable": false,
      "stateMutability": "view",
      "type": "function"
    },
    {
      "constant": true,
      "inputs": [],
      "name": "getRemainingSignerFeeDivisorUpdateTime",
      "outputs": [
        {
          "internalType": "uint256",
          "name": "",
          "type": "uint256"
        }
      ],
      "payable": false,
      "stateMutability": "view",
      "type": "function"
    },
    {
      "constant": true,
      "inputs": [],
      "name": "getRemainingLotSizesUpdateTime",
      "outputs": [
        {
          "internalType": "uint256",
          "name": "",
          "type": "uint256"
        }
      ],
      "payable": false,
      "stateMutability": "view",
      "type": "function"
    },
    {
      "constant": true,
      "inputs": [],
      "name": "getRemainingCollateralizationThresholdsUpdateTime",
      "outputs": [
        {
          "internalType": "uint256",
          "name": "",
          "type": "uint256"
        }
      ],
      "payable": false,
      "stateMutability": "view",
      "type": "function"
    },
    {
      "constant": true,
      "inputs": [],
      "name": "getRemainingKeepFactoriesUpdateTime",
      "outputs": [
        {
          "internalType": "uint256",
          "name": "",
          "type": "uint256"
        }
      ],
      "payable": false,
      "stateMutability": "view",
      "type": "function"
    },
    {
      "constant": true,
      "inputs": [],
      "name": "getRemainingEthBtcPriceFeedAdditionTime",
      "outputs": [
        {
          "internalType": "uint256",
          "name": "",
          "type": "uint256"
        }
      ],
      "payable": false,
      "stateMutability": "view",
      "type": "function"
    },
    {
      "constant": true,
      "inputs": [],
      "name": "getRemainingKeepFactoriesUpgradeabilityTime",
      "outputs": [
        {
          "internalType": "uint256",
          "name": "",
          "type": "uint256"
        }
      ],
      "payable": false,
      "stateMutability": "view",
      "type": "function"
    },
    {
      "constant": false,
      "inputs": [],
      "name": "refreshMinimumBondableValue",
      "outputs": [],
      "payable": false,
      "stateMutability": "nonpayable",
      "type": "function"
    },
    {
      "constant": true,
      "inputs": [],
      "name": "getGovernanceTimeDelay",
      "outputs": [
        {
          "internalType": "uint256",
          "name": "",
          "type": "uint256"
        }
      ],
      "payable": false,
      "stateMutability": "pure",
      "type": "function"
    },
    {
      "constant": true,
      "inputs": [],
      "name": "getKeepFactoriesUpgradeabilityPeriod",
      "outputs": [
        {
          "internalType": "uint256",
          "name": "",
          "type": "uint256"
        }
      ],
      "payable": false,
      "stateMutability": "pure",
      "type": "function"
    },
    {
      "constant": true,
      "inputs": [],
      "name": "getPriceFeedGovernanceTimeDelay",
      "outputs": [
        {
          "internalType": "uint256",
          "name": "",
          "type": "uint256"
        }
      ],
      "payable": false,
      "stateMutability": "pure",
      "type": "function"
    },
    {
      "constant": true,
      "inputs": [],
      "name": "getNewDepositFeeEstimate",
      "outputs": [
        {
          "internalType": "uint256",
          "name": "",
          "type": "uint256"
        }
      ],
      "payable": false,
      "stateMutability": "view",
      "type": "function"
    },
    {
      "constant": false,
      "inputs": [
        {
          "internalType": "uint64",
          "name": "_requestedLotSizeSatoshis",
          "type": "uint64"
        },
        {
          "internalType": "uint256",
          "name": "_maxSecuredLifetime",
          "type": "uint256"
        }
      ],
      "name": "requestNewKeep",
      "outputs": [
        {
          "internalType": "address",
          "name": "",
          "type": "address"
        }
      ],
      "payable": true,
      "stateMutability": "payable",
      "type": "function"
    },
    {
      "constant": true,
      "inputs": [
        {
          "internalType": "uint64",
          "name": "_requestedLotSizeSatoshis",
          "type": "uint64"
        }
      ],
      "name": "isAllowedLotSize",
      "outputs": [
        {
          "internalType": "bool",
          "name": "",
          "type": "bool"
        }
      ],
      "payable": false,
      "stateMutability": "view",
      "type": "function"
    }
  ],
  "bytecode": "0x6000600255600b805462ffffff60201b19166607d000000000001761ffff60381b19166796000000000000001761ffff60481b1916697d0000000000000000001761ffff60581b19166b6e0000000000000000000000179055610120604052620f424060809081526298968060a0526301312d0060c0526302faf08060e0526305f5e100610100526200009790600c9060056200014f565b50348015620000a557600080fd5b50604051620042343803806200423483398181016040526040811015620000cb57600080fd5b508051602090910151600080546001600160a01b03191633178082556040516001600160a01b039190911691907f8be0079c531659141344cd1fd0a4f28419497f9722a3daafe3b4186f6b6457e0908290a3600480546001600160a01b039384166001600160a01b0319918216179091556005805492909316911617905562000235565b82805482825590600052602060002090600301600490048101928215620001f95791602002820160005b83821115620001c257835183826101000a8154816001600160401b03021916908363ffffffff160217905550926020019260080160208160070104928301926001030262000179565b8015620001f75782816101000a8154906001600160401b030219169055600801602081600701049283019260010302620001c2565b505b50620002079291506200020b565b5090565b6200023291905b80821115620002075780546001600160401b031916815560010162000212565b90565b613fef80620002456000396000f3fe6080604052600436106103975760003560e01c806380f04b8c116101dc578063b792a38e11610102578063de1e57d0116100a0578063eae6191f1161006f578063eae6191f14610cb7578063f2e7234714610cfc578063f2fde38b14610d11578063f760621e14610d4457610397565b8063de1e57d014610c63578063e2c50ad814610c78578063e5426d2e14610c8d578063e5a6d77d14610ca257610397565b8063cd3a9490116100dc578063cd3a949014610b48578063ce2c07ce14610b5d578063dab70cb114610c0e578063dde3fdd214610c2357610397565b8063b792a38e14610b09578063c074d55014610b1e578063c8fba24314610b3357610397565b8063a28b79f11161017a578063adc3ef7011610149578063adc3ef7014610ab5578063ae7f4a5f14610aca578063b196b5a314610adf578063b59589d114610af457610397565b8063a28b79f114610a43578063a2cd75da14610a76578063a6c1691c14610a8b578063a831c81614610aa057610397565b80638da5cb5b116101b65780638da5cb5b146109d15780638f32d59b146109e6578063987ecea7146109fb5780639ffb386214610a1057610397565b806380f04b8c1461096057806382f9196814610975578063869f9469146109a157610397565b806334d534a9116102c157806364bdb6671161025f578063741bef1a1161022e578063741bef1a146108db5780637c33fc051461090c5780637c75b115146109215780637ed451a41461093657610397565b806364bdb667146108725780636e1ba283146108875780636f4fef62146108b1578063715018a6146108c657610397565b8063402b783d1161029b578063402b783d146107ee57806349b6473014610803578063575350881461083157806360e98d591461084657610397565b806334d534a9146107985780633aac3467146107ad5780633ee850bc146107d957610397565b806318e647dd116103395780632753d84b116103085780632753d84b146106c0578063282bfd38146106d55780632b155e37146107085780632d00f1ee1461078357610397565b806318e647dd146104c55780631c52d90c1461061f57806322a147e61461069657806322e5724c146106ab57610397565b80630af488f9116103755780630af488f91461045d5780630ce0e700146104725780630d4455dc146104875780630d7eb1c41461049c57610397565b8063013b0f301461039c57806307a3d659146103c3578063086c9edd146103f8575b600080fd5b3480156103a857600080fd5b506103b1610d7a565b60408051918252519081900360200190f35b3480156103cf57600080fd5b506103f6600480360360208110156103e657600080fd5b50356001600160a01b0316610e1b565b005b34801561040457600080fd5b5061040d610f82565b60408051602080825283518183015283519192839290830191858101910280838360005b83811015610449578181015183820152602001610431565b505050509050019250505060405180910390f35b34801561046957600080fd5b506103b161100c565b34801561047e57600080fd5b506103f661101d565b34801561049357600080fd5b506103f6611175565b3480156104a857600080fd5b506104b161132a565b604080519115158252519081900360200190f35b3480156104d157600080fd5b506103f6600480360360c08110156104e857600080fd5b6001600160a01b038235169160208101359160408201359190810190608081016060820135600160201b81111561051e57600080fd5b82018360208201111561053057600080fd5b803590602001918460018302840111600160201b8311171561055157600080fd5b91908080601f01602080910402602001604051908101604052809392919081815260200183838082843760009201919091525092958435959094909350604081019250602001359050600160201b8111156105ab57600080fd5b8201836020820111156105bd57600080fd5b803590602001918460018302840111600160201b831117156105de57600080fd5b91908080601f01602080910402602001604051908101604052809392919081815260200183838082843760009201919091525092955061133a945050505050565b34801561062b57600080fd5b506103f6600480360361012081101561064357600080fd5b506001600160a01b038135811691602081013582169160408201358116916060810135821691608082013581169160a081013582169160c0820135169061ffff60e08201358116916101000135166114ab565b3480156106a257600080fd5b506103f6611703565b3480156106b757600080fd5b506103f661177f565b3480156106cc57600080fd5b506103b16117fb565b3480156106e157600080fd5b506103f6600480360360208110156106f857600080fd5b50356001600160a01b031661183d565b34801561071457600080fd5b506103f66004803603602081101561072b57600080fd5b810190602081018135600160201b81111561074557600080fd5b82018360208201111561075757600080fd5b803590602001918460208302840111600160201b8311171561077857600080fd5b5090925090506118c4565b34801561078f57600080fd5b506103b1611c25565b3480156107a457600080fd5b506103b1611d1c565b3480156107b957600080fd5b506103f6600480360360208110156107d057600080fd5b50351515611d2c565b3480156107e557600080fd5b506103b1611dae565b3480156107fa57600080fd5b506103b1611dbf565b34801561080f57600080fd5b506103f66004803603602081101561082657600080fd5b503561ffff16611e35565b34801561083d57600080fd5b506103b1611f5b565b34801561085257600080fd5b5061085b611f6c565b6040805161ffff9092168252519081900360200190f35b34801561087e57600080fd5b5061085b611f7f565b34801561089357600080fd5b506103f6600480360360208110156108aa57600080fd5b5035611f89565b3480156108bd57600080fd5b5061085b612007565b3480156108d257600080fd5b506103f6612018565b3480156108e757600080fd5b506108f06120a9565b604080516001600160a01b039092168252519081900360200190f35b34801561091857600080fd5b506103f66120b8565b34801561092d57600080fd5b506103f661220b565b34801561094257600080fd5b506103f66004803603602081101561095957600080fd5b50356122b1565b34801561096c57600080fd5b506103f661232f565b6108f06004803603604081101561098b57600080fd5b506001600160401b038135169060200135612444565b3480156109ad57600080fd5b506103f6600480360360408110156109c457600080fd5b5080359060200135612694565b3480156109dd57600080fd5b506108f061271e565b3480156109f257600080fd5b506104b161272d565b348015610a0757600080fd5b5061085b61273e565b348015610a1c57600080fd5b506104b160048036036020811015610a3357600080fd5b50356001600160a01b031661274f565b348015610a4f57600080fd5b506104b160048036036020811015610a6657600080fd5b50356001600160401b03166127d4565b348015610a8257600080fd5b5061085b612841565b348015610a9757600080fd5b506103b1612852565b348015610aac57600080fd5b506103f661290c565b348015610ac157600080fd5b506103f6612988565b348015610ad657600080fd5b506103b1612b3b565b348015610aeb57600080fd5b506103b1612b42565b348015610b0057600080fd5b506108f0612b53565b348015610b1557600080fd5b506103b1612b62565b348015610b2a57600080fd5b506103b1612b73565b348015610b3f57600080fd5b506103f6612b84565b348015610b5457600080fd5b506103f6612c00565b348015610b6957600080fd5b506103f660048036036020811015610b8057600080fd5b810190602081018135600160201b811115610b9a57600080fd5b820183602082011115610bac57600080fd5b803590602001918460018302840111600160201b83111715610bcd57600080fd5b91908080601f016020809104026020016040519081016040528093929190818152602001838380828437600092019190915250929550612dc4945050505050565b348015610c1a57600080fd5b506103b1612ea4565b348015610c2f57600080fd5b506103f660048036036060811015610c4657600080fd5b5061ffff8135811691602081013582169160409091013516612ee9565b348015610c6f57600080fd5b506103f66130d6565b348015610c8457600080fd5b506103f6613283565b348015610c9957600080fd5b5061085b6132ff565b348015610cae57600080fd5b506103b161330f565b348015610cc357600080fd5b506103f660048036036060811015610cda57600080fd5b506001600160a01b038135811691602081013582169160409091013516613316565b348015610d0857600080fd5b506103b1613494565b348015610d1d57600080fd5b506103f660048036036020811015610d3457600080fd5b50356001600160a01b031661349b565b348015610d5057600080fd5b506103f660048036036060811015610d6757600080fd5b50803590602081013590604001356134ee565b600b54600090600160201b900460ff1615610dc65760405162461bcd60e51b8152600401808060200182810382526022815260200180613f026022913960400191505060405180910390fd5b620d2f00610ddf6003544261357a90919063ffffffff16565b1015610e1257610e0d610dfd6003544261357a90919063ffffffff16565b620d2f009063ffffffff61357a16565b610e15565b60005b90505b90565b610e2361272d565b610e62576040805162461bcd60e51b81526020600482018190526024820152600080516020613de4833981519152604482015290519081900360640190fd5b6000816001600160a01b03166359e02dd76040518163ffffffff1660e01b8152600401604080518083038186803b158015610e9c57600080fd5b505afa158015610eb0573d6000803e3d6000fd5b505050506040513d6040811015610ec657600080fd5b5060200151905080610f1f576040805162461bcd60e51b815260206004820152601860248201527f43616e6e6f742061646420696e61637469766520666565640000000000000000604482015290519081900360640190fd5b601780546001600160a01b0319166001600160a01b03841690811790915542601681905560408051928352602083019190915280517f5a3d3d9197f5c60c16de28887dccf83284a4fd034b930272637c83307b4fffe79281900390910190a15050565b6060600c80548060200260200160405190810160405280929190818152602001828054801561100257602002820191906000526020600020906000905b82829054906101000a90046001600160401b03166001600160401b031681526020019060080190602082600701049283019260010382029150808411610fbf5790505b5050505050905090565b6000610e156016546276a7006135d7565b61102561272d565b611064576040805162461bcd60e51b81526020600482018190526024820152600080516020613de4833981519152604482015290519081900360640190fd5b600d546202a300600082116110b7576040805162461bcd60e51b815260206004820152601460248201527310da185b99d9481b9bdd081a5b9a5d1a585d195960621b604482015290519081900360640190fd5b806110c8428463ffffffff61357a16565b1015611109576040805162461bcd60e51b81526020600482018190526024820152600080516020613dc4833981519152604482015290519081900360640190fd5b601154600b80546501000000000061ffff90931692830266ffff00000000001990911617905560408051918252517f236dec26d53c6a51390e98ed703106e132fd062b0e38b8a9cf8b4d13f47952c89181900360200190a150506011805461ffff191690556000600d55565b61117d61272d565b6111bc576040805162461bcd60e51b81526020600482018190526024820152600080516020613de4833981519152604482015290519081900360640190fd5b6010546202a3006000821161120f576040805162461bcd60e51b815260206004820152601460248201527310da185b99d9481b9bdd081a5b9a5d1a585d195960621b604482015290519081900360640190fd5b80611220428463ffffffff61357a16565b1015611261576040805162461bcd60e51b81526020600482018190526024820152600080516020613dc4833981519152604482015290519081900360640190fd5b601354601454601554611294926006926001600160a01b03600160301b909204821692908216911663ffffffff61366116565b601354601454601554604080516001600160a01b03600160301b90950485168152928416602084015292168183015290517f75cd06e2a95bd62ad447184bf0950b3af3aabd0960994d09da9724686d0c17209181900360600190a150506000601055601380546601000000000000600160d01b0319169055601480546001600160a01b0319908116909155601580549091169055565b600b54600160201b900460ff1690565b6113433361274f565b61137e5760405162461bcd60e51b8152600401808060200182810382526024815260200180613c9a6024913960400191505060405180910390fd5b84866001600160a01b0316336001600160a01b03167f7959c380174061a21a3ba80243a032ba9cd10dc8bd1736d7e835c94e97a35a9887878787604051808581526020018060200184815260200180602001838103835286818151815260200191508051906020019080838360005b838110156114055781810151838201526020016113ed565b50505050905090810190601f1680156114325780820380516001836020036101000a031916815260200191505b50838103825284518152845160209182019186019080838360005b8381101561146557818101518382015260200161144d565b50505050905090810190601f1680156114925780820380516001836020036101000a031916815260200191505b50965050505050505060405180910390a4505050505050565b6114b361272d565b6114f2576040805162461bcd60e51b81526020600482018190526024820152600080516020613de4833981519152604482015290519081900360640190fd5b6002541561153d576040805162461bcd60e51b8152602060048201526013602482015272185b1c9958591e481a5b9a5d1a585b1a5e9959606a1b604482015290519081900360640190fd5b6040805163e8e08cf160e01b8152600660048201526001600160a01b038b166024820152905173__KeepFactorySelection__________________9163e8e08cf1916044808301926000929190829003018186803b15801561159e57600080fd5b505af41580156115b2573d6000803e3d6000fd5b5050600b80544260025564ff000000001961ffff86811661ffff19918916620100000263ffff00001990941693909317169190911716600160201b179055506115fc9050856136ef565b60408051630d4815e560e21b81526001600160a01b0388811660048301528781166024830152868116604483015291519185169163352057949160648082019260009290919082900301818387803b15801561165757600080fd5b505af115801561166b573d6000803e3d6000fd5b50506040805163bbe2bbd560e01b81526001600160a01b038b811660048301523060248301528a811660448301528981166064830152888116608483015287811660a48301529151918c16935063bbe2bbd5925060c48082019260009290919082900301818387803b1580156116e057600080fd5b505af11580156116f4573d6000803e3d6000fd5b50505050505050505050505050565b61170c3361274f565b6117475760405162461bcd60e51b8152600401808060200182810382526024815260200180613c9a6024913960400191505060405180910390fd5b60408051428152905133917f6e7b45210b79c12cd1332babd8d86c0bbb9ca898a89ce0404f17064dbfba18c0919081900360200190a2565b6117883361274f565b6117c35760405162461bcd60e51b8152600401808060200182810382526024815260200180613c9a6024913960400191505060405180910390fd5b60408051428152905133917f07f0eaafadb9abb1d28da85d4b4c74f1939fd61b535c7f5ab501f618f07e76ee919081900360200190a2565b600c805460009190600019810190811061181157fe5b6000918252602090912060048204015460039091166008026101000a90046001600160401b0316919050565b6118463361274f565b6118815760405162461bcd60e51b8152600401808060200182810382526024815260200180613c9a6024913960400191505060405180910390fd5b6040805142815290516001600160a01b0383169133917f822b3073be62c5c7f143c2dcd71ee266434ee935d90a1eec3be34710ac8ec1a29181900360200190a350565b6118cc61272d565b61190b576040805162461bcd60e51b81526020600482018190526024820152600080516020613de4833981519152604482015290519081900360640190fd5b6000805b82811015611b675783838281811061192357fe5b905060200201356001600160401b03166001600160401b03166305f5e10014156119505760019150611b5f565b61c35084848381811061195f57fe5b905060200201356001600160401b03166001600160401b031610156119b55760405162461bcd60e51b815260040180806020018281038252602e815260200180613d2f602e913960400191505060405180910390fd5b6402540be4008484838181106119c757fe5b905060200201356001600160401b03166001600160401b03161115611a1d5760405162461bcd60e51b815260040180806020018281038252602e815260200180613ed4602e913960400191505060405180910390fd5b600081118015611a775750838360018303818110611a3757fe5b905060200201356001600160401b03166001600160401b0316848483818110611a5c57fe5b905060200201356001600160401b03166001600160401b0316145b15611ab35760405162461bcd60e51b8152600401808060200182810382526027815260200180613d086027913960400191505060405180910390fd5b600081118015611b0d5750838360018303818110611acd57fe5b905060200201356001600160401b03166001600160401b0316848483818110611af257fe5b905060200201356001600160401b03166001600160401b0316105b15611b5f576040805162461bcd60e51b815260206004820152601d60248201527f4c6f742073697a65206172726179206d75737420626520736f72746564000000604482015290519081900360640190fd5b60010161190f565b5080611ba45760405162461bcd60e51b8152600401808060200182810382526028815260200180613e516028913960400191505060405180910390fd5b7fffb1e2bce3c7a63d0cac5492540bd370e1156621adde36cd481262c2846a2b7b83834260405180806020018381526020018281038252858582818152602001925060200280828437600083820152604051601f909101601f1916909201829003965090945050505050a1611c1b601284846139fb565b505042600e555050565b600080600673__KeepFactorySelection__________________63d83d44b090916040518263ffffffff1660e01b81526004018082815260200191505060206040518083038186803b158015611c7a57600080fd5b505af4158015611c8e573d6000803e3d6000fd5b505050506040513d6020811015611ca457600080fd5b50516040805163bc2c289f60e01b815290519192506001600160a01b0383169163bc2c289f91600480820192602092909190829003018186803b158015611cea57600080fd5b505afa158015611cfe573d6000803e3d6000fd5b505050506040513d6020811015611d1457600080fd5b505191505090565b6000600c60008154811061181157fe5b611d353361274f565b611d705760405162461bcd60e51b8152600401808060200182810382526024815260200180613c9a6024913960400191505060405180910390fd5b604080518215158152426020820152815133927fbef11c059eefba82a15aea8a3a89c86fd08d7711c88fa7daea2632a55488510c928290030190a250565b6000610e15600e546202a3006135d7565b60055460408051630ae5ef8960e21b815290516000926001600160a01b031691632b97be24916004808301926020929190829003018186803b158015611e0457600080fd5b505afa158015611e18573d6000803e3d6000fd5b505050506040513d6020811015611e2e57600080fd5b5051905090565b611e3d61272d565b611e7c576040805162461bcd60e51b81526020600482018190526024820152600080516020613de4833981519152604482015290519081900360640190fd5b60098161ffff1611611ebf5760405162461bcd60e51b815260040180806020018281038252604a815260200180613cbe604a913960600191505060405180910390fd5b6113888161ffff1610611f035760405162461bcd60e51b815260040180806020018281038252604b815260200180613f24604b913960600191505060405180910390fd5b6011805461ffff191661ffff831690811790915542600d81905560408051928352602083019190915280517f38cb7049f0daf658ca989e9ef6b850ef11e3740ff07a0c16706042c39adf48fc9281900390910190a150565b6000610e156010546202a3006135d7565b600b5465010000000000900461ffff1690565b600b5461ffff1681565b611f923361274f565b611fcd5760405162461bcd60e51b8152600401808060200182810382526024815260200180613c9a6024913960400191505060405180910390fd5b604080514281529051829133917f44b7f176bcc739b54bd0800fe491cbdea19df7d4d6b19c281462e6b4fc5043449181900360200190a350565b600b54600160581b900461ffff1690565b61202061272d565b61205f576040805162461bcd60e51b81526020600482018190526024820152600080516020613de4833981519152604482015290519081900360640190fd5b600080546040516001600160a01b03909116907f8be0079c531659141344cd1fd0a4f28419497f9722a3daafe3b4186f6b6457e0908390a3600080546001600160a01b0319169055565b6004546001600160a01b031681565b600b54600160201b900460ff16156121015760405162461bcd60e51b8152600401808060200182810382526022815260200180613f026022913960400191505060405180910390fd5b600354612155576040805162461bcd60e51b815260206004820152601b60248201527f4465706f73697420686173206e6f74206265656e207061757365640000000000604482015290519081900360640190fd5b620d2f0061216e6003544261357a90919063ffffffff16565b10156121c1576040805162461bcd60e51b815260206004820152601960248201527f4465706f7369747320617265207374696c6c2070617573656400000000000000604482015290519081900360640190fd5b600b805464ff000000001916600160201b179055604080516001815290517f3a854be74be62dd3ba5f0fdb7aa5b535683f999e90cda09ba75a2d99b27225239181900360200190a1565b73__KeepFactorySelection__________________63e33cd9716006612237612232611d1c565b61376f565b600b54604080516001600160e01b031960e087901b1681526004810194909452602484019290925261ffff808216604485015262010000909104166064830152516084808301926000929190829003018186803b15801561229757600080fd5b505af41580156122ab573d6000803e3d6000fd5b50505050565b6122ba3361274f565b6122f55760405162461bcd60e51b8152600401808060200182810382526024815260200180613c9a6024913960400191505060405180910390fd5b604080514281529051829133917fe34c70bd3e03956978a5c76d2ea5f3a60819171afea6dee4fc12b2e45f72d43d9181900360200190a350565b61233761272d565b612376576040805162461bcd60e51b81526020600482018190526024820152600080516020613de4833981519152604482015290519081900360640190fd5b600354156123b55760405162461bcd60e51b8152600401808060200182810382526031815260200180613ba66031913960400191505060405180910390fd5b600254420362ed4e0081106123fb5760405162461bcd60e51b815260040180806020018281038252604e815260200180613bd7604e913960600191505060405180910390fd5b42600355600b805464ff0000000019169055604080516000815290517f3a854be74be62dd3ba5f0fdb7aa5b535683f999e90cda09ba75a2d99b27225239181900360200190a150565b60015460408051634f558e7960e01b815233600482015290516000926001600160a01b031691634f558e79916024808301926020929190829003018186803b15801561248f57600080fd5b505afa1580156124a3573d6000803e3d6000fd5b505050506040513d60208110156124b957600080fd5b50516124f65760405162461bcd60e51b8152600401808060200182810382526021815260200180613c4b6021913960400191505060405180910390fd5b6124ff836127d4565b612550576040805162461bcd60e51b815260206004820152601f60248201527f70726f7669646564206c6f742073697a65206e6f7420737570706f7274656400604482015290519081900360640190fd5b6000600673__KeepFactorySelection__________________63d857268890916040518263ffffffff1660e01b81526004018082815260200191505060206040518083038186803b1580156125a457600080fd5b505af41580156125b8573d6000803e3d6000fd5b505050506040513d60208110156125ce57600080fd5b5051905060006125e66001600160401b03861661376f565b600b546040805163ca050cfd60e01b815261ffff80841660048301526201000090930490921660248301523360448301526064820183905260848201879052519192506001600160a01b0384169163ca050cfd91349160a480830192602092919082900301818588803b15801561265c57600080fd5b505af1158015612670573d6000803e3d6000fd5b50505050506040513d602081101561268757600080fd5b5051925050505b92915050565b61269d3361274f565b6126d85760405162461bcd60e51b8152600401808060200182810382526024815260200180613c9a6024913960400191505060405180910390fd5b60408051838152602081018390524281830152905133917f8ee737ab16909c4e9d1b750814a4393c9f84ab5d3a29c08c313b783fc846ae33919081900360600190a25050565b6000546001600160a01b031690565b6000546001600160a01b0316331490565b600b54600160381b900461ffff1690565b60015460408051634f558e7960e01b81526001600160a01b03848116600483015291516000939290921691634f558e7991602480820192602092909190829003018186803b1580156127a057600080fd5b505afa1580156127b4573d6000803e3d6000fd5b505050506040513d60208110156127ca57600080fd5b505190505b919050565b6000805b600c5481101561283857826001600160401b0316600c82815481106127f957fe5b6000918252602090912060048204015460039091166008026101000a90046001600160401b031614156128305760019150506127cf565b6001016127d8565b50600092915050565b600b54600160481b900461ffff1690565b60015460408051634f558e7960e01b815233600482015290516000926001600160a01b031691634f558e79916024808301926020929190829003018186803b15801561289d57600080fd5b505afa1580156128b1573d6000803e3d6000fd5b505050506040513d60208110156128c757600080fd5b50516129045760405162461bcd60e51b8152600401808060200182810382526021815260200180613c4b6021913960400191505060405180910390fd5b610e156137c0565b6129153361274f565b6129505760405162461bcd60e51b8152600401808060200182810382526024815260200180613c9a6024913960400191505060405180910390fd5b60408051428152905133917f8fd2cfb62a35fccc1ecef829f83a6c2f840b73dad49d3eaaa402909752086d4b919081900360200190a2565b61299061272d565b6129cf576040805162461bcd60e51b81526020600482018190526024820152600080516020613de4833981519152604482015290519081900360640190fd5b6016546276a70060008211612a22576040805162461bcd60e51b815260206004820152601460248201527310da185b99d9481b9bdd081a5b9a5d1a585d195960621b604482015290519081900360640190fd5b80612a33428463ffffffff61357a16565b1015612a74576040805162461bcd60e51b81526020600482018190526024820152600080516020613dc4833981519152604482015290519081900360640190fd5b601780546001600160a01b031981169091556000601655604080516001600160a01b03909216808352905190917f5e4bd1f6e413d39e172d96a88ee6b1b2ba9e1a6207e2ca34fa8c3ccd152ff21a919081900360200190a1600480546040805163d14dd41360e01b81526001600160a01b03858116948201949094529051929091169163d14dd4139160248082019260009290919082900301818387803b158015612b1e57600080fd5b505af1158015612b32573d6000803e3d6000fd5b50505050505050565b6276a70090565b6000610e1560025462ed4e006135d7565b6005546001600160a01b031681565b6000610e15600d546202a3006135d7565b6000610e15600f546202a3006135d7565b612b8d3361274f565b612bc85760405162461bcd60e51b8152600401808060200182810382526024815260200180613c9a6024913960400191505060405180910390fd5b60408051428152905133917fa5ee7a2b0254fce91deed604506790ed7fa072d0b14cba4859c3bc8955b9caac919081900360200190a2565b612c0861272d565b612c47576040805162461bcd60e51b81526020600482018190526024820152600080516020613de4833981519152604482015290519081900360640190fd5b600e546202a30060008211612c9a576040805162461bcd60e51b815260206004820152601460248201527310da185b99d9481b9bdd081a5b9a5d1a585d195960621b604482015290519081900360640190fd5b80612cab428463ffffffff61357a16565b1015612cec576040805162461bcd60e51b81526020600482018190526024820152600080516020613dc4833981519152604482015290519081900360640190fd5b60128054612cfc91600c91613abc565b507fa801e49d33e856d89d06e647753d9d9dda3d0b0520c4346290ada455a00cafcc601260405180806020018281038252838181548152602001915080548015612d9757602002820191906000526020600020906000905b82829054906101000a90046001600160401b03166001600160401b031681526020019060080190602082600701049283019260010382029150808411612d545790505b50509250505060405180910390a16000600e819055612db7601282613b0a565b50612dc061220b565b5050565b612dcd3361274f565b612e085760405162461bcd60e51b8152600401808060200182810382526024815260200180613c9a6024913960400191505060405180910390fd5b604080516020808252835181830152835133937fa6e9673b5d53b3fe3c62b6459720f9c2a1b129d4f69acb771404ba8681b6a9309386939092839283019185019080838360005b83811015612e67578181015183820152602001612e4f565b50505050905090810190601f168015612e945780820380516001836020036101000a031916815260200191505b509250505060405180910390a250565b6005546040805163089bb25f60e11b815290516000926001600160a01b03169163113764be916004808301926020929190829003018186803b158015611e0457600080fd5b612ef161272d565b612f30576040805162461bcd60e51b81526020600482018190526024820152600080516020613de4833981519152604482015290519081900360640190fd5b61012c8361ffff161115612f755760405162461bcd60e51b815260040180806020018281038252602e815260200180613e79602e913960400191505060405180910390fd5b60648361ffff1611612fb85760405162461bcd60e51b815260040180806020018281038252602e815260200180613c6c602e913960400191505060405180910390fd5b8161ffff168361ffff1611612ffe5760405162461bcd60e51b8152600401808060200182810382526046815260200180613d5d6046913960600191505060405180910390fd5b8061ffff168261ffff16116130445760405162461bcd60e51b815260040180806020018281038252604c815260200180613f6f604c913960600191505060405180910390fd5b6013805461ffff191661ffff85811691821763ffff00001916620100008683169081029190911765ffff000000001916600160201b9286169283021790935542600f81905560408051938452602084019490945282840191909152606082015290517fc9e225c2db3e9f70966e6c0403de785bcda0172ec4e41111a6e8f4b85b1f30fb916080908290030190a1505050565b6130de61272d565b61311d576040805162461bcd60e51b81526020600482018190526024820152600080516020613de4833981519152604482015290519081900360640190fd5b600f546202a30060008211613170576040805162461bcd60e51b815260206004820152601460248201527310da185b99d9481b9bdd081a5b9a5d1a585d195960621b604482015290519081900360640190fd5b80613181428463ffffffff61357a16565b10156131c2576040805162461bcd60e51b81526020600482018190526024820152600080516020613dc4833981519152604482015290519081900360640190fd5b601354600b805468ffff00000000000000191661ffff808416600160381b8102929092176affff00000000000000000019166201000085048216600160481b81029190911761ffff60581b1916600160201b90950491909116600160581b81029490941790925560408051918252602082019290925280820192909252517f07ac9ce7dc4b2edb6435fb2255e9e867f357ef2052b982ce468442aa9d6c1d50916060908290030190a150506013805465ffffffffffff191690556000600f55565b61328c3361274f565b6132c75760405162461bcd60e51b8152600401808060200182810382526024815260200180613c9a6024913960400191505060405180910390fd5b60408051428152905133917f1e61af503f1d7de21d5300094c18bf8700f82b2951a4d54dd2adda13f6b3da30919081900360200190a2565b600b5462010000900461ffff1681565b62ed4e0090565b61331e61272d565b61335d576040805162461bcd60e51b81526020600482018190526024820152600080516020613de4833981519152604482015290519081900360640190fd5b600254420362ed4e0081106133a35760405162461bcd60e51b815260040180806020018281038252604d815260200180613e04604d913960600191505060405180910390fd5b6001600160a01b0384166133e85760405162461bcd60e51b815260040180806020018281038252602d815260200180613ea7602d913960400191505060405180910390fd5b601380546001600160a01b03808716600160301b81026601000000000000600160d01b031990931692909217909255601480548684166001600160a01b0319918216811790925560158054948716949091168417905542601081905560408051938452602084019290925282820193909352606082019290925290517f1608ec8025d64cdb0ed78e62a67d271a33b9d738842a6eb6e6449bc3afab6dca9181900360800190a150505050565b6202a30090565b6134a361272d565b6134e2576040805162461bcd60e51b81526020600482018190526024820152600080516020613de4833981519152604482015290519081900360640190fd5b6134eb81613898565b50565b6134f73361274f565b6135325760405162461bcd60e51b8152600401808060200182810382526024815260200180613c9a6024913960400191505060405180910390fd5b604080518381526020810183905242818301529051849133917f7f7d7327762d01d2c4a552ea0be2bc5a76264574a80aa78083e691a840e509f29181900360600190a3505050565b6000828211156135d1576040805162461bcd60e51b815260206004820152601e60248201527f536166654d6174683a207375627472616374696f6e206f766572666c6f770000604482015290519081900360640190fd5b50900390565b6000808311613624576040805162461bcd60e51b8152602060048201526014602482015273155c19185d19481b9bdd081a5b9a5d1a585d195960621b604482015290519081900360640190fd5b6000613636428563ffffffff61357a16565b905082811061364957600091505061268e565b613659838263ffffffff61357a16565b91505061268e565b6001600160a01b0383166136a65760405162461bcd60e51b8152600401808060200182810382526023815260200180613b836023913960400191505060405180910390fd5b6003840180546001600160a01b039485166001600160a01b0319918216179091556004850180549385169382169390931790925560029093018054939092169216919091179055565b6001546001600160a01b03161561374d576040805162461bcd60e51b815260206004820152601f60248201527f746274634465706f736974546f6b656e20697320616c72656164792073657400604482015290519081900360640190fd5b600180546001600160a01b0319166001600160a01b0392909216919091179055565b60008061378a8361377e6137c0565b9063ffffffff61393816565b600b549091506137b9906064906137ad908490600160381b900461ffff16613938565b9063ffffffff61399116565b9392505050565b6004805460408051634c6afee560e11b8152905160009384936001600160a01b0316926398d5fdca9281830192602092829003018186803b15801561380457600080fd5b505afa158015613818573d6000803e3d6000fd5b505050506040513d602081101561382e57600080fd5b505190508015806138465750670de0b6b3a764000081115b15610e15576040805162461bcd60e51b815260206004820152601b60248201527f53797374656d2072657475726e65642061206261642070726963650000000000604482015290519081900360640190fd5b6001600160a01b0381166138dd5760405162461bcd60e51b8152600401808060200182810382526026815260200180613c256026913960400191505060405180910390fd5b600080546040516001600160a01b03808516939216917f8be0079c531659141344cd1fd0a4f28419497f9722a3daafe3b4186f6b6457e091a3600080546001600160a01b0319166001600160a01b0392909216919091179055565b6000826139475750600061268e565b8282028284828161395457fe5b04146137b95760405162461bcd60e51b8152600401808060200182810382526021815260200180613da36021913960400191505060405180910390fd5b60008082116139e7576040805162461bcd60e51b815260206004820152601a60248201527f536166654d6174683a206469766973696f6e206279207a65726f000000000000604482015290519081900360640190fd5b60008284816139f257fe5b04949350505050565b82805482825590600052602060002090600301600490048101928215613aac5791602002820160005b83821115613a775783356001600160401b031683826101000a8154816001600160401b0302191690836001600160401b031602179055509260200192600801602081600701049283019260010302613a24565b8015613aaa5782816101000a8154906001600160401b030219169055600801602081600701049283019260010302613a77565b505b50613ab8929150613b43565b5090565b82805482825590600052602060002090600301600490048101928215613aac576000526020600020916003016004900482015b82811115613aac578254825591600101919060010190613aef565b815481835581811115613b3e576003016004900481600301600490048360005260206000209182019101613b3e9190613b68565b505050565b610e1891905b80821115613ab857805467ffffffffffffffff19168155600101613b49565b610e1891905b80821115613ab85760008155600101613b6e56fe496e76616c6964204b4545502d7374616b656420666163746f72792061646472657373656d657267656e637950617573654e65774465706f736974732063616e206f6e6c792062652063616c6c6564206f6e6365656d657267656e637950617573654e65774465706f736974732063616e206f6e6c792062652063616c6c65642077697468696e203138302064617973206f6620696e697469616c697a6174696f6e4f776e61626c653a206e6577206f776e657220697320746865207a65726f206164647265737343616c6c6572206d7573742062652061204465706f73697420636f6e7472616374496e697469616c20636f6c6c61746572616c697a65642070657263656e74206d757374206265203e3d203130302543616c6c6572206973206e6f7420617070726f76656420746f206c6f67206576656e74735369676e6572206665652064697669736f72206d7573742062652067726561746572207468616e20392c20666f722061207369676e6572206665652074686174206973203c3d203130254c6f742073697a65206172726179206d757374206e6f742068617665206475706c6963617465734c6f742073697a6573206c657373207468616e20302e303030352042544320617265206e6f7420616c6c6f776564556e646572636f6c6c61746572616c697a6564207468726573686f6c64206d757374206265203c20696e697469616c20636f6c6c61746572616c697a65642070657263656e74536166654d6174683a206d756c7469706c69636174696f6e206f766572666c6f77476f7665726e616e63652064656c617920686173206e6f7420656c61707365644f776e61626c653a2063616c6c6572206973206e6f7420746865206f776e6572626567696e4b656570466163746f726965735570646174652063616e206f6e6c792062652063616c6c65642077697468696e203138302064617973206f6620696e697469616c697a6174696f6e4c6f742073697a65206172726179206d75737420616c7761797320636f6e7461696e203120425443496e697469616c20636f6c6c61746572616c697a65642070657263656e74206d757374206265203c3d20333030254b454550207374616b656420666163746f7279206d7573742062652061206e6f6e7a65726f20616464726573734c6f742073697a65732067726561746572207468616e203130302042544320617265206e6f7420616c6c6f7765644e6577206465706f73697473206172652063757272656e746c7920616c6c6f7765645369676e6572206665652064697669736f72206d757374206265206c657373207468616e20353030302c20666f722061207369676e6572206665652074686174206973203e20302e30322553657665726520756e646572636f6c6c61746572616c697a6564207468726573686f6c64206d757374206265203c20756e646572636f6c6c61746572616c697a6564207468726573686f6c64a265627a7a72315820f674d51990753a5aeb4bebd4e380dc14f25fc38d6f8a6b131fdab880fd92fa0764736f6c63430005110032",
  "source": "/* solium-disable function-order */\r\npragma solidity 0.5.17;\r\n\r\nimport {IBondedECDSAKeepFactory} from \"@keep-network/keep-ecdsa/contracts/api/IBondedECDSAKeepFactory.sol\";\r\n\r\nimport {VendingMachine} from \"./VendingMachine.sol\";\r\nimport {DepositFactory} from \"../proxy/DepositFactory.sol\";\r\n\r\nimport {IRelay} from \"@summa-tx/relay-sol/contracts/Relay.sol\";\r\nimport \"../external/IMedianizer.sol\";\r\n\r\nimport {ITBTCSystem} from \"../interfaces/ITBTCSystem.sol\";\r\nimport {ISatWeiPriceFeed} from \"../interfaces/ISatWeiPriceFeed.sol\";\r\nimport {DepositLog} from \"../DepositLog.sol\";\r\n\r\nimport {TBTCDepositToken} from \"./TBTCDepositToken.sol\";\r\nimport \"./TBTCToken.sol\";\r\nimport \"./FeeRebateToken.sol\";\r\nimport \"openzeppelin-solidity/contracts/ownership/Ownable.sol\";\r\nimport \"openzeppelin-solidity/contracts/math/SafeMath.sol\";\r\nimport \"./KeepFactorySelection.sol\";\r\n\r\n/// @title TBTC System.\r\n/// @notice This contract acts as a central point for access control,\r\n///         value governance, and price feed.\r\n/// @dev    Governable values should only affect new deposit creation.\r\ncontract TBTCSystem is Ownable, ITBTCSystem, DepositLog {\r\n\r\n    using SafeMath for uint256;\r\n    using KeepFactorySelection for KeepFactorySelection.Storage;\r\n\r\n    event EthBtcPriceFeedAdditionStarted(address _priceFeed, uint256 _timestamp);\r\n    event LotSizesUpdateStarted(uint64[] _lotSizes, uint256 _timestamp);\r\n    event SignerFeeDivisorUpdateStarted(uint16 _signerFeeDivisor, uint256 _timestamp);\r\n    event CollateralizationThresholdsUpdateStarted(\r\n        uint16 _initialCollateralizedPercent,\r\n        uint16 _undercollateralizedThresholdPercent,\r\n        uint16 _severelyUndercollateralizedThresholdPercent,\r\n        uint256 _timestamp\r\n    );\r\n    event KeepFactoriesUpdateStarted(\r\n        address _keepStakedFactory,\r\n        address _fullyBackedFactory,\r\n        address _factorySelector,\r\n        uint256 _timestamp\r\n    );\r\n\r\n    event EthBtcPriceFeedAdded(address _priceFeed);\r\n    event LotSizesUpdated(uint64[] _lotSizes);\r\n    event AllowNewDepositsUpdated(bool _allowNewDeposits);\r\n    event SignerFeeDivisorUpdated(uint16 _signerFeeDivisor);\r\n    event CollateralizationThresholdsUpdated(\r\n        uint16 _initialCollateralizedPercent,\r\n        uint16 _undercollateralizedThresholdPercent,\r\n        uint16 _severelyUndercollateralizedThresholdPercent\r\n    );\r\n    event KeepFactoriesUpdated(\r\n        address _keepStakedFactory,\r\n        address _fullyBackedFactory,\r\n        address _factorySelector\r\n    );\r\n\r\n    uint256 initializedTimestamp = 0;\r\n    uint256 pausedTimestamp;\r\n    uint256 constant pausedDuration = 10 days;\r\n\r\n    ISatWeiPriceFeed public priceFeed;\r\n    IRelay public relay;\r\n\r\n    KeepFactorySelection.Storage keepFactorySelection;\r\n\r\n    uint16 public keepSize;\r\n    uint16 public keepThreshold;\r\n\r\n    // Parameters governed by the TBTCSystem owner\r\n    bool private allowNewDeposits = false;\r\n    uint16 private signerFeeDivisor = 2000; // 1/2000 == 5bps == 0.05% == 0.0005\r\n    uint16 private initialCollateralizedPercent = 150; // percent\r\n    uint16 private undercollateralizedThresholdPercent = 125;  // percent\r\n    uint16 private severelyUndercollateralizedThresholdPercent = 110; // percent\r\n    uint64[] lotSizesSatoshis = [10**6, 10**7, 2 * 10**7, 5 * 10**7, 10**8]; // [0.01, 0.1, 0.2, 0.5, 1.0] BTC\r\n\r\n    uint256 constant governanceTimeDelay = 48 hours;\r\n    uint256 constant keepFactoriesUpgradeabilityPeriod = 180 days;\r\n\r\n    uint256 private signerFeeDivisorChangeInitiated;\r\n    uint256 private lotSizesChangeInitiated;\r\n    uint256 private collateralizationThresholdsChangeInitiated;\r\n    uint256 private keepFactoriesUpdateInitiated;\r\n\r\n    uint16 private newSignerFeeDivisor;\r\n    uint64[] newLotSizesSatoshis;\r\n    uint16 private newInitialCollateralizedPercent;\r\n    uint16 private newUndercollateralizedThresholdPercent;\r\n    uint16 private newSeverelyUndercollateralizedThresholdPercent;\r\n    address private newKeepStakedFactory;\r\n    address private newFullyBackedFactory;\r\n    address private newFactorySelector;\r\n\r\n    // price feed\r\n    uint256 constant priceFeedGovernanceTimeDelay = 90 days;\r\n    uint256 ethBtcPriceFeedAdditionInitiated;\r\n    IMedianizer nextEthBtcPriceFeed;\r\n\r\n    constructor(address _priceFeed, address _relay) public {\r\n        priceFeed = ISatWeiPriceFeed(_priceFeed);\r\n        relay = IRelay(_relay);\r\n    }\r\n\r\n    /// @notice        Initialize contracts\r\n    /// @dev           Only the Deposit factory should call this, and only once.\r\n    /// @param _defaultKeepFactory       ECDSA keep factory backed by KEEP stake.\r\n    /// @param _depositFactory    Deposit Factory. More info in `DepositFactory`.\r\n    /// @param _masterDepositAddress  Master Deposit address. More info in `Deposit`.\r\n    /// @param _tbtcToken         TBTCToken. More info in `TBTCToken`.\r\n    /// @param _tbtcDepositToken  TBTCDepositToken (TDT). More info in `TBTCDepositToken`.\r\n    /// @param _feeRebateToken    FeeRebateToken (FRT). More info in `FeeRebateToken`.\r\n    /// @param _keepThreshold     Signing group honesty threshold.\r\n    /// @param _keepSize          Signing group size.\r\n    function initialize(\r\n        IBondedECDSAKeepFactory _defaultKeepFactory,\r\n        DepositFactory _depositFactory,\r\n        address payable _masterDepositAddress,\r\n        TBTCToken _tbtcToken,\r\n        TBTCDepositToken _tbtcDepositToken,\r\n        FeeRebateToken _feeRebateToken,\r\n        VendingMachine _vendingMachine,\r\n        uint16 _keepThreshold,\r\n        uint16 _keepSize\r\n    ) external onlyOwner {\r\n        require(initializedTimestamp == 0, \"already initialized\");\r\n\r\n        keepFactorySelection.initialize(_defaultKeepFactory);\r\n        keepThreshold = _keepThreshold;\r\n        keepSize = _keepSize;\r\n        initializedTimestamp = block.timestamp;\r\n        allowNewDeposits = true;\r\n\r\n        setTbtcDepositToken(_tbtcDepositToken);\r\n\r\n        _vendingMachine.setExternalAddresses(\r\n            _tbtcToken,\r\n            _tbtcDepositToken,\r\n            _feeRebateToken\r\n        );\r\n        _depositFactory.setExternalDependencies(\r\n            _masterDepositAddress,\r\n            this,\r\n            _tbtcToken,\r\n            _tbtcDepositToken,\r\n            _feeRebateToken,\r\n            address(_vendingMachine)\r\n        );\r\n    }\r\n\r\n    /// @notice Returns whether new deposits should be allowed.\r\n    /// @return True if new deposits should be allowed by the emergency pause button\r\n    function getAllowNewDeposits() external view returns (bool) {\r\n        return allowNewDeposits;\r\n    }\r\n\r\n    /// @notice Return the lowest lot size currently enabled for deposits.\r\n    /// @return The lowest lot size, in satoshis.\r\n    function getMinimumLotSize() public view returns (uint256) {\r\n        return lotSizesSatoshis[0];\r\n    }\r\n\r\n    /// @notice Return the largest lot size currently enabled for deposits.\r\n    /// @return The largest lot size, in satoshis.\r\n    function getMaximumLotSize() external view returns (uint256) {\r\n        return lotSizesSatoshis[lotSizesSatoshis.length - 1];\r\n    }\r\n\r\n    /// @notice One-time-use emergency function to disallow future deposit creation for 10 days.\r\n    function emergencyPauseNewDeposits() external onlyOwner {\r\n        require(pausedTimestamp == 0, \"emergencyPauseNewDeposits can only be called once\");\r\n        uint256 sinceInit = block.timestamp - initializedTimestamp;\r\n        require(sinceInit < 180 days, \"emergencyPauseNewDeposits can only be called within 180 days of initialization\");\r\n        pausedTimestamp = block.timestamp;\r\n        allowNewDeposits = false;\r\n        emit AllowNewDepositsUpdated(false);\r\n    }\r\n\r\n    /// @notice Anyone can reactivate deposit creations after the pause duration is over.\r\n    function resumeNewDeposits() external {\r\n        require(! allowNewDeposits, \"New deposits are currently allowed\");\r\n        require(pausedTimestamp != 0, \"Deposit has not been paused\");\r\n        require(block.timestamp.sub(pausedTimestamp) >= pausedDuration, \"Deposits are still paused\");\r\n        allowNewDeposits = true;\r\n        emit AllowNewDepositsUpdated(true);\r\n    }\r\n\r\n    function getRemainingPauseTerm() external view returns (uint256) {\r\n        require(! allowNewDeposits, \"New deposits are currently allowed\");\r\n        return (block.timestamp.sub(pausedTimestamp) >= pausedDuration)?\r\n            0:\r\n            pausedDuration.sub(block.timestamp.sub(pausedTimestamp));\r\n    }\r\n\r\n    /// @notice Set the system signer fee divisor.\r\n    /// @dev    This can be finalized by calling `finalizeSignerFeeDivisorUpdate`\r\n    ///         Anytime after `governanceTimeDelay` has elapsed.\r\n    /// @param _signerFeeDivisor The signer fee divisor.\r\n    function beginSignerFeeDivisorUpdate(uint16 _signerFeeDivisor)\r\n        external onlyOwner\r\n    {\r\n        require(\r\n            _signerFeeDivisor > 9,\r\n            \"Signer fee divisor must be greater than 9, for a signer fee that is <= 10%\"\r\n        );\r\n        require(\r\n            _signerFeeDivisor < 5000,\r\n            \"Signer fee divisor must be less than 5000, for a signer fee that is > 0.02%\"\r\n        );\r\n\r\n        newSignerFeeDivisor = _signerFeeDivisor;\r\n        signerFeeDivisorChangeInitiated = block.timestamp;\r\n        emit SignerFeeDivisorUpdateStarted(_signerFeeDivisor, block.timestamp);\r\n    }\r\n\r\n    /// @notice Set the allowed deposit lot sizes.\r\n    /// @dev    Lot size array should always contain 10**8 satoshis (1 BTC) and\r\n    ///         cannot contain values less than 50000 satoshis (0.0005 BTC) or\r\n    ///         greater than 10**10 satoshis (100 BTC). Lot size array must not\r\n    ///         have duplicates and it must be sorted.\r\n    ///         This can be finalized by calling `finalizeLotSizesUpdate`\r\n    ///         anytime after `governanceTimeDelay` has elapsed.\r\n    /// @param _lotSizes Array of allowed lot sizes.\r\n    function beginLotSizesUpdate(uint64[] calldata _lotSizes)\r\n        external onlyOwner\r\n    {\r\n        bool hasSingleBitcoin = false;\r\n        for (uint i = 0; i < _lotSizes.length; i++) {\r\n            if (_lotSizes[i] == 10**8) {\r\n                hasSingleBitcoin = true;\r\n            } else if (_lotSizes[i] < 50 * 10**3) {\r\n                // Failed the minimum requirement, break on out.\r\n                revert(\"Lot sizes less than 0.0005 BTC are not allowed\");\r\n            } else if (_lotSizes[i] > 10 * 10**9) {\r\n                // Failed the maximum requirement, break on out.\r\n                revert(\"Lot sizes greater than 100 BTC are not allowed\");\r\n            } else if (i > 0 && _lotSizes[i] == _lotSizes[i-1]) {\r\n                revert(\"Lot size array must not have duplicates\");\r\n            } else if (i > 0 && _lotSizes[i] < _lotSizes[i-1]) {\r\n                revert(\"Lot size array must be sorted\");\r\n            }\r\n        }\r\n\r\n        require(hasSingleBitcoin, \"Lot size array must always contain 1 BTC\");\r\n\r\n        emit LotSizesUpdateStarted(_lotSizes, block.timestamp);\r\n        newLotSizesSatoshis = _lotSizes;\r\n        lotSizesChangeInitiated = block.timestamp;\r\n    }\r\n\r\n    /// @notice Set the system collateralization levels\r\n    /// @dev    This can be finalized by calling `finalizeCollateralizationThresholdsUpdate`\r\n    ///         Anytime after `governanceTimeDelay` has elapsed.\r\n    /// @param _initialCollateralizedPercent default signing bond percent for new deposits\r\n    /// @param _undercollateralizedThresholdPercent first undercollateralization trigger\r\n    /// @param _severelyUndercollateralizedThresholdPercent second undercollateralization trigger\r\n    function beginCollateralizationThresholdsUpdate(\r\n        uint16 _initialCollateralizedPercent,\r\n        uint16 _undercollateralizedThresholdPercent,\r\n        uint16 _severelyUndercollateralizedThresholdPercent\r\n    ) external onlyOwner {\r\n        require(\r\n            _initialCollateralizedPercent <= 300,\r\n            \"Initial collateralized percent must be <= 300%\"\r\n        );\r\n        require(\r\n            _initialCollateralizedPercent > 100,\r\n            \"Initial collateralized percent must be >= 100%\"\r\n        );\r\n        require(\r\n            _initialCollateralizedPercent > _undercollateralizedThresholdPercent,\r\n            \"Undercollateralized threshold must be < initial collateralized percent\"\r\n        );\r\n        require(\r\n            _undercollateralizedThresholdPercent > _severelyUndercollateralizedThresholdPercent,\r\n            \"Severe undercollateralized threshold must be < undercollateralized threshold\"\r\n        );\r\n\r\n        newInitialCollateralizedPercent = _initialCollateralizedPercent;\r\n        newUndercollateralizedThresholdPercent = _undercollateralizedThresholdPercent;\r\n        newSeverelyUndercollateralizedThresholdPercent = _severelyUndercollateralizedThresholdPercent;\r\n        collateralizationThresholdsChangeInitiated = block.timestamp;\r\n        emit CollateralizationThresholdsUpdateStarted(\r\n            _initialCollateralizedPercent,\r\n            _undercollateralizedThresholdPercent,\r\n            _severelyUndercollateralizedThresholdPercent,\r\n            block.timestamp\r\n        );\r\n    }\r\n\r\n    /// @notice Sets the addresses of the KEEP-staked ECDSA keep factory,\r\n    ///         ETH-only-backed ECDSA keep factory and the selection strategy\r\n    ///         that will choose between the two factories for new deposits.\r\n    ///         When the ETH-only-backed factory and strategy are not set TBTCSystem\r\n    ///         will use KEEP-staked factory. When both factories and strategy\r\n    ///         are set, TBTCSystem load balances between two factories based on\r\n    ///         the selection strategy.\r\n    /// @dev It can be finalized by calling `finalizeKeepFactoriesUpdate`\r\n    ///      any time after `governanceTimeDelay` has elapsed. This can be\r\n    ///      called more than once until finalized to reset the values and\r\n    ///      timer. An update can only be initialized before\r\n    ///      `keepFactoriesUpgradeabilityPeriod` elapses after system initialization;\r\n    ///      after that, no further updates can be initialized, though any pending\r\n    ///      update can be finalized. All calls must set all three properties to\r\n    ///      their desired value; leaving a value as 0, even if it was previously\r\n    ///      set, will update that value to be 0. ETH-bond-only factory or the\r\n    ///      strategy are allowed to be set as zero addresses.\r\n    /// @param _keepStakedFactory Address of the KEEP staked based factory.\r\n    /// @param _fullyBackedFactory Address of the ETH-bond-only-based factory.\r\n    /// @param _factorySelector Address of the keep factory selection strategy.\r\n    function beginKeepFactoriesUpdate(\r\n        address _keepStakedFactory,\r\n        address _fullyBackedFactory,\r\n        address _factorySelector\r\n    )\r\n        external onlyOwner\r\n    {\r\n        uint256 sinceInit = block.timestamp - initializedTimestamp;\r\n        require(\r\n            sinceInit < keepFactoriesUpgradeabilityPeriod,\r\n            \"beginKeepFactoriesUpdate can only be called within 180 days of initialization\"\r\n        );\r\n\r\n        // It is required that KEEP staked factory address is configured as this is\r\n        // a default choice factory. Fully backed factory and factory selector\r\n        // are optional for the system to work, hence they don't have to be provided.\r\n        require(\r\n            _keepStakedFactory != address(0),\r\n            \"KEEP staked factory must be a nonzero address\"\r\n        );\r\n\r\n        newKeepStakedFactory = _keepStakedFactory;\r\n        newFullyBackedFactory = _fullyBackedFactory;\r\n        newFactorySelector = _factorySelector;\r\n        keepFactoriesUpdateInitiated = block.timestamp;\r\n\r\n        emit KeepFactoriesUpdateStarted(\r\n            _keepStakedFactory,\r\n            _fullyBackedFactory,\r\n            _factorySelector,\r\n            block.timestamp\r\n        );\r\n    }\r\n\r\n    /// @notice Add a new ETH/BTC price feed contract to the priecFeed.\r\n    /// @dev This can be finalized by calling `finalizeEthBtcPriceFeedAddition`\r\n    ///      anytime after `priceFeedGovernanceTimeDelay` has elapsed.\r\n    function beginEthBtcPriceFeedAddition(IMedianizer _ethBtcPriceFeed) external onlyOwner {\r\n        bool ethBtcActive;\r\n        (, ethBtcActive) = _ethBtcPriceFeed.peek();\r\n        require(ethBtcActive, \"Cannot add inactive feed\");\r\n\r\n        nextEthBtcPriceFeed = _ethBtcPriceFeed;\r\n        ethBtcPriceFeedAdditionInitiated = block.timestamp;\r\n        emit EthBtcPriceFeedAdditionStarted(address(_ethBtcPriceFeed), block.timestamp);\r\n    }\r\n\r\n    modifier onlyAfterGovernanceDelay(\r\n        uint256 _changeInitializedTimestamp,\r\n        uint256 _delay\r\n    ) {\r\n        require(_changeInitializedTimestamp > 0, \"Change not initiated\");\r\n        require(\r\n            block.timestamp.sub(_changeInitializedTimestamp) >= _delay,\r\n            \"Governance delay has not elapsed\"\r\n        );\r\n        _;\r\n    }\r\n\r\n    /// @notice Finish setting the system signer fee divisor.\r\n    /// @dev `beginSignerFeeDivisorUpdate` must be called first, once `governanceTimeDelay`\r\n    ///       has passed, this function can be called to set the signer fee divisor to the\r\n    ///       value set in `beginSignerFeeDivisorUpdate`\r\n    function finalizeSignerFeeDivisorUpdate()\r\n        external\r\n        onlyOwner\r\n        onlyAfterGovernanceDelay(signerFeeDivisorChangeInitiated, governanceTimeDelay)\r\n    {\r\n        signerFeeDivisor = newSignerFeeDivisor;\r\n        emit SignerFeeDivisorUpdated(newSignerFeeDivisor);\r\n        newSignerFeeDivisor = 0;\r\n        signerFeeDivisorChangeInitiated = 0;\r\n    }\r\n    /// @notice Finish setting the accepted system lot sizes.\r\n    /// @dev `beginLotSizesUpdate` must be called first, once `governanceTimeDelay`\r\n    ///       has passed, this function can be called to set the lot sizes to the\r\n    ///       value set in `beginLotSizesUpdate`\r\n    function finalizeLotSizesUpdate()\r\n        external\r\n        onlyOwner\r\n        onlyAfterGovernanceDelay(lotSizesChangeInitiated, governanceTimeDelay) {\r\n\r\n        lotSizesSatoshis = newLotSizesSatoshis;\r\n        emit LotSizesUpdated(newLotSizesSatoshis);\r\n        lotSizesChangeInitiated = 0;\r\n        newLotSizesSatoshis.length = 0;\r\n\r\n        refreshMinimumBondableValue();\r\n    }\r\n\r\n    /// @notice Finish setting the system collateralization levels\r\n    /// @dev `beginCollateralizationThresholdsUpdate` must be called first, once `governanceTimeDelay`\r\n    ///       has passed, this function can be called to set the collateralization thresholds to the\r\n    ///       value set in `beginCollateralizationThresholdsUpdate`\r\n    function finalizeCollateralizationThresholdsUpdate()\r\n        external\r\n        onlyOwner\r\n        onlyAfterGovernanceDelay(\r\n            collateralizationThresholdsChangeInitiated,\r\n            governanceTimeDelay\r\n        ) {\r\n\r\n        initialCollateralizedPercent = newInitialCollateralizedPercent;\r\n        undercollateralizedThresholdPercent = newUndercollateralizedThresholdPercent;\r\n        severelyUndercollateralizedThresholdPercent = newSeverelyUndercollateralizedThresholdPercent;\r\n\r\n        emit CollateralizationThresholdsUpdated(\r\n            newInitialCollateralizedPercent,\r\n            newUndercollateralizedThresholdPercent,\r\n            newSeverelyUndercollateralizedThresholdPercent\r\n        );\r\n\r\n        newInitialCollateralizedPercent = 0;\r\n        newUndercollateralizedThresholdPercent = 0;\r\n        newSeverelyUndercollateralizedThresholdPercent = 0;\r\n        collateralizationThresholdsChangeInitiated = 0;\r\n    }\r\n\r\n    /// @notice Finish setting addresses of the KEEP-staked ECDSA keep factory,\r\n    ///         ETH-only-backed ECDSA keep factory, and the selection strategy\r\n    ///         that will choose between the two factories for new deposits.\r\n    /// @dev `beginKeepFactoriesUpdate` must be called first; once\r\n    ///      `governanceTimeDelay` has passed, this function can be called to\r\n    ///      set factories addresses to the values set in `beginKeepFactoriesUpdate`.\r\n    function finalizeKeepFactoriesUpdate()\r\n        external\r\n        onlyOwner\r\n        onlyAfterGovernanceDelay(\r\n            keepFactoriesUpdateInitiated,\r\n            governanceTimeDelay\r\n        ) {\r\n\r\n        keepFactorySelection.setFactories(\r\n            newKeepStakedFactory,\r\n            newFullyBackedFactory,\r\n            newFactorySelector\r\n        );\r\n\r\n        emit KeepFactoriesUpdated(\r\n            newKeepStakedFactory,\r\n            newFullyBackedFactory,\r\n            newFactorySelector\r\n        );\r\n\r\n        keepFactoriesUpdateInitiated = 0;\r\n        newKeepStakedFactory = address(0);\r\n        newFullyBackedFactory = address(0);\r\n        newFactorySelector = address(0);\r\n    }\r\n\r\n    /// @notice Finish adding a new price feed contract to the priceFeed.\r\n    /// @dev `beginEthBtcPriceFeedAddition` must be called first; once\r\n    ///      `ethBtcPriceFeedAdditionInitiated` has passed, this function can be\r\n    ///      called to append a new price feed.\r\n    function finalizeEthBtcPriceFeedAddition()\r\n            external\r\n            onlyOwner\r\n            onlyAfterGovernanceDelay(\r\n                ethBtcPriceFeedAdditionInitiated,\r\n                priceFeedGovernanceTimeDelay\r\n            ) {\r\n        // This process interacts with external contracts, so\r\n        // Checks-Effects-Interactions it.\r\n        IMedianizer _nextEthBtcPriceFeed = nextEthBtcPriceFeed;\r\n        nextEthBtcPriceFeed = IMedianizer(0);\r\n        ethBtcPriceFeedAdditionInitiated = 0;\r\n\r\n        emit EthBtcPriceFeedAdded(address(_nextEthBtcPriceFeed));\r\n\r\n        priceFeed.addEthBtcFeed(_nextEthBtcPriceFeed);\r\n    }\r\n\r\n    /// @notice Gets the system signer fee divisor.\r\n    /// @return The signer fee divisor.\r\n    function getSignerFeeDivisor() external view returns (uint16) { return signerFeeDivisor; }\r\n\r\n    /// @notice Gets the allowed lot sizes\r\n    /// @return Uint64 array of allowed lot sizes\r\n    function getAllowedLotSizes() external view returns (uint64[] memory){\r\n        return lotSizesSatoshis;\r\n    }\r\n\r\n    /// @notice Get the system undercollateralization level for new deposits\r\n    function getUndercollateralizedThresholdPercent() external view returns (uint16) {\r\n        return undercollateralizedThresholdPercent;\r\n    }\r\n\r\n    /// @notice Get the system severe undercollateralization level for new deposits\r\n    function getSeverelyUndercollateralizedThresholdPercent() external view returns (uint16) {\r\n        return severelyUndercollateralizedThresholdPercent;\r\n    }\r\n\r\n    /// @notice Get the system initial collateralized level for new deposits.\r\n    function getInitialCollateralizedPercent() external view returns (uint16) {\r\n        return initialCollateralizedPercent;\r\n    }\r\n\r\n    /// @notice Get the price of one satoshi in wei.\r\n    /// @dev Reverts if the price of one satoshi is 0 wei, or if the price of\r\n    ///      one satoshi is 1 ether. Can only be called by a deposit with minted\r\n    ///      TDT.\r\n    /// @return The price of one satoshi in wei.\r\n    function fetchBitcoinPrice() external view returns (uint256) {\r\n        require(\r\n            tbtcDepositToken.exists(uint256(msg.sender)),\r\n            \"Caller must be a Deposit contract\"\r\n        );\r\n\r\n        return _fetchBitcoinPrice();\r\n    }\r\n\r\n    // Difficulty Oracle\r\n    function fetchRelayCurrentDifficulty() external view returns (uint256) {\r\n        return relay.getCurrentEpochDifficulty();\r\n    }\r\n\r\n    function fetchRelayPreviousDifficulty() external view returns (uint256) {\r\n        return relay.getPrevEpochDifficulty();\r\n    }\r\n\r\n    /// @notice Get the time remaining until the signer fee divisor can be updated.\r\n    function getRemainingSignerFeeDivisorUpdateTime() external view returns (uint256) {\r\n        return getRemainingChangeTime(\r\n            signerFeeDivisorChangeInitiated,\r\n            governanceTimeDelay\r\n        );\r\n    }\r\n\r\n    /// @notice Get the time remaining until the lot sizes can be updated.\r\n    function getRemainingLotSizesUpdateTime() external view returns (uint256) {\r\n        return getRemainingChangeTime(\r\n            lotSizesChangeInitiated,\r\n            governanceTimeDelay\r\n        );\r\n    }\r\n\r\n    /// @notice Get the time remaining until the collateralization thresholds can be updated.\r\n    function getRemainingCollateralizationThresholdsUpdateTime() external view returns (uint256) {\r\n        return getRemainingChangeTime(\r\n            collateralizationThresholdsChangeInitiated,\r\n            governanceTimeDelay\r\n        );\r\n    }\r\n\r\n    /// @notice Get the time remaining until the Keep ETH-only-backed ECDSA keep\r\n    ///         factory and the selection strategy that will choose between it\r\n    ///         and the KEEP-backed factory can be updated.\r\n    function getRemainingKeepFactoriesUpdateTime() external view returns (uint256) {\r\n        return getRemainingChangeTime(\r\n            keepFactoriesUpdateInitiated,\r\n            governanceTimeDelay\r\n        );\r\n    }\r\n\r\n    /// @notice Get the time remaining until the signer fee divisor can be updated.\r\n    function getRemainingEthBtcPriceFeedAdditionTime() external view returns (uint256) {\r\n        return getRemainingChangeTime(\r\n            ethBtcPriceFeedAdditionInitiated,\r\n            priceFeedGovernanceTimeDelay\r\n        );\r\n    }\r\n\r\n    /// @notice Get the time remaining until Keep factories can no longer be updated.\r\n    function getRemainingKeepFactoriesUpgradeabilityTime() external view returns (uint256) {\r\n        return getRemainingChangeTime(\r\n            initializedTimestamp,\r\n            keepFactoriesUpgradeabilityPeriod\r\n        );\r\n    }\r\n\r\n    /// @notice Refreshes the minimum bondable value required from the operator\r\n    /// to join the sortition pool for tBTC. The minimum bondable value is\r\n    /// equal to the current minimum lot size collateralized 150% multiplied by\r\n    /// the current BTC price.\r\n    /// @dev It is recommended to call this function on tBTC initialization and\r\n    /// after minimum lot size update.\r\n    function refreshMinimumBondableValue() public {\r\n        keepFactorySelection.setMinimumBondableValue(\r\n            calculateBondRequirementWei(getMinimumLotSize()),\r\n            keepSize,\r\n            keepThreshold\r\n        );\r\n    }\r\n\r\n    /// @notice Returns the time delay used for governance actions except for\r\n    ///         price feed additions.\r\n    function getGovernanceTimeDelay() external pure returns (uint256) {\r\n        return governanceTimeDelay;\r\n    }\r\n\r\n    /// @notice Returns the time period when keep factories upgrades are allowed.\r\n    function getKeepFactoriesUpgradeabilityPeriod() public pure returns (uint256) {\r\n        return keepFactoriesUpgradeabilityPeriod;\r\n    }\r\n\r\n    /// @notice Returns the time delay used for price feed addition governance\r\n    ///         actions.\r\n    function getPriceFeedGovernanceTimeDelay() external pure returns (uint256) {\r\n        return priceFeedGovernanceTimeDelay;\r\n    }\r\n\r\n    /// @notice Gets a fee estimate for creating a new Deposit.\r\n    /// @return Uint256 estimate.\r\n    function getNewDepositFeeEstimate()\r\n        external\r\n        view\r\n        returns (uint256)\r\n    {\r\n        IBondedECDSAKeepFactory _keepFactory = keepFactorySelection.selectFactory();\r\n        return _keepFactory.openKeepFeeEstimate();\r\n    }\r\n\r\n    /// @notice Request a new keep opening.\r\n    /// @param _requestedLotSizeSatoshis Lot size in satoshis.\r\n    /// @param _maxSecuredLifetime Duration of stake lock in seconds.\r\n    /// @return Address of a new keep.\r\n    function requestNewKeep(\r\n        uint64 _requestedLotSizeSatoshis,\r\n        uint256 _maxSecuredLifetime\r\n    )\r\n        external\r\n        payable\r\n        returns (address)\r\n    {\r\n        require(tbtcDepositToken.exists(uint256(msg.sender)), \"Caller must be a Deposit contract\");\r\n        require(isAllowedLotSize(_requestedLotSizeSatoshis), \"provided lot size not supported\");\r\n\r\n        IBondedECDSAKeepFactory _keepFactory = keepFactorySelection.selectFactoryAndRefresh();\r\n        uint256 bond = calculateBondRequirementWei(_requestedLotSizeSatoshis);\r\n        return _keepFactory.openKeep.value(msg.value)(keepSize, keepThreshold, msg.sender, bond, _maxSecuredLifetime);\r\n    }\r\n\r\n    /// @notice Check if a lot size is allowed.\r\n    /// @param _requestedLotSizeSatoshis Lot size to check.\r\n    /// @return True if lot size is allowed, false otherwise.\r\n    function isAllowedLotSize(uint64 _requestedLotSizeSatoshis) public view returns (bool){\r\n        for( uint i = 0; i < lotSizesSatoshis.length; i++){\r\n            if (lotSizesSatoshis[i] == _requestedLotSizeSatoshis){\r\n                return true;\r\n            }\r\n        }\r\n        return false;\r\n    }\r\n\r\n    /// @notice Calculates bond requirement in wei for the given lot size in\r\n    ///         satoshis based on the current ETHBTC price.\r\n    /// @param _requestedLotSizeSatoshis Lot size in satoshis.\r\n    /// @return Bond requirement in wei.\r\n    function calculateBondRequirementWei(\r\n        uint256 _requestedLotSizeSatoshis\r\n    ) internal view returns (uint256) {\r\n        uint256 lotSizeInWei = _fetchBitcoinPrice().mul(_requestedLotSizeSatoshis);\r\n        return lotSizeInWei.mul(initialCollateralizedPercent).div(100);\r\n    }\r\n\r\n    function _fetchBitcoinPrice() internal view returns (uint256) {\r\n        uint256 price = priceFeed.getPrice();\r\n        if (price == 0 || price > 10 ** 18) {\r\n            // This is if a sat is worth 0 wei, or is worth >1 ether. Revert at\r\n            // once.\r\n            revert(\"System returned a bad price\");\r\n        }\r\n        return price;\r\n    }\r\n\r\n    /// @notice Get the time remaining until the function parameter timer value can be updated.\r\n    function getRemainingChangeTime(\r\n        uint256 _changeTimestamp,\r\n        uint256 _delayAmount\r\n    ) internal view returns (uint256){\r\n        require(_changeTimestamp > 0, \"Update not initiated\");\r\n        uint256 elapsed = block.timestamp.sub(_changeTimestamp);\r\n        if (elapsed >= _delayAmount) {\r\n            return 0;\r\n        } else {\r\n            return _delayAmount.sub(elapsed);\r\n        }\r\n    }\r\n}\r\n",
  "sourcePath": "C:\\Users\\Zyra\\Desktop\\pfk\\tbtc\\solidity\\contracts\\system\\TBTCSystem.sol",
  "compiler": {
    "name": "solc",
    "version": "0.5.17+commit.d19bba13.Emscripten.clang"
  },
  "schemaVersion": "3.3.1",
  "updatedAt": "2020-10-27T11:33:58.603Z",
  "devdoc": {
    "details": "Governable values should only affect new deposit creation.",
    "methods": {
      "approvedToLog(address)": {
        "details": "checks tbtcDepositToken to see if the caller represents                     an existing deposit.                     We don't require this, so deposits are not bricked if the system borks.",
        "params": {
          "_caller": "The address of the calling contract."
        },
        "return": "True if approved, otherwise false."
      },
      "beginCollateralizationThresholdsUpdate(uint16,uint16,uint16)": {
        "details": "This can be finalized by calling `finalizeCollateralizationThresholdsUpdate`         Anytime after `governanceTimeDelay` has elapsed.",
        "params": {
          "_initialCollateralizedPercent": "default signing bond percent for new deposits",
          "_severelyUndercollateralizedThresholdPercent": "second undercollateralization trigger",
          "_undercollateralizedThresholdPercent": "first undercollateralization trigger"
        }
      },
      "beginEthBtcPriceFeedAddition(address)": {
        "details": "This can be finalized by calling `finalizeEthBtcPriceFeedAddition`      anytime after `priceFeedGovernanceTimeDelay` has elapsed."
      },
      "beginKeepFactoriesUpdate(address,address,address)": {
        "details": "It can be finalized by calling `finalizeKeepFactoriesUpdate`      any time after `governanceTimeDelay` has elapsed. This can be      called more than once until finalized to reset the values and      timer. An update can only be initialized before      `keepFactoriesUpgradeabilityPeriod` elapses after system initialization;      after that, no further updates can be initialized, though any pending      update can be finalized. All calls must set all three properties to      their desired value; leaving a value as 0, even if it was previously      set, will update that value to be 0. ETH-bond-only factory or the      strategy are allowed to be set as zero addresses.",
        "params": {
          "_factorySelector": "Address of the keep factory selection strategy.",
          "_fullyBackedFactory": "Address of the ETH-bond-only-based factory.",
          "_keepStakedFactory": "Address of the KEEP staked based factory."
        }
      },
      "beginLotSizesUpdate(uint64[])": {
        "details": "Lot size array should always contain 10**8 satoshis (1 BTC) and         cannot contain values less than 50000 satoshis (0.0005 BTC) or         greater than 10**10 satoshis (100 BTC). Lot size array must not         have duplicates and it must be sorted.         This can be finalized by calling `finalizeLotSizesUpdate`         anytime after `governanceTimeDelay` has elapsed.",
        "params": {
          "_lotSizes": "Array of allowed lot sizes."
        }
      },
      "beginSignerFeeDivisorUpdate(uint16)": {
        "details": "This can be finalized by calling `finalizeSignerFeeDivisorUpdate`         Anytime after `governanceTimeDelay` has elapsed.",
        "params": {
          "_signerFeeDivisor": "The signer fee divisor."
        }
      },
      "fetchBitcoinPrice()": {
        "details": "Reverts if the price of one satoshi is 0 wei, or if the price of      one satoshi is 1 ether. Can only be called by a deposit with minted      TDT.",
        "return": "The price of one satoshi in wei."
      },
      "finalizeCollateralizationThresholdsUpdate()": {
        "details": "`beginCollateralizationThresholdsUpdate` must be called first, once `governanceTimeDelay`       has passed, this function can be called to set the collateralization thresholds to the       value set in `beginCollateralizationThresholdsUpdate`"
      },
      "finalizeEthBtcPriceFeedAddition()": {
        "details": "`beginEthBtcPriceFeedAddition` must be called first; once      `ethBtcPriceFeedAdditionInitiated` has passed, this function can be      called to append a new price feed."
      },
      "finalizeKeepFactoriesUpdate()": {
        "details": "`beginKeepFactoriesUpdate` must be called first; once      `governanceTimeDelay` has passed, this function can be called to      set factories addresses to the values set in `beginKeepFactoriesUpdate`."
      },
      "finalizeLotSizesUpdate()": {
        "details": "`beginLotSizesUpdate` must be called first, once `governanceTimeDelay`       has passed, this function can be called to set the lot sizes to the       value set in `beginLotSizesUpdate`"
      },
      "finalizeSignerFeeDivisorUpdate()": {
        "details": "`beginSignerFeeDivisorUpdate` must be called first, once `governanceTimeDelay`       has passed, this function can be called to set the signer fee divisor to the       value set in `beginSignerFeeDivisorUpdate`"
      },
      "getAllowNewDeposits()": {
        "return": "True if new deposits should be allowed by the emergency pause button"
      },
      "getAllowedLotSizes()": {
        "return": "Uint64 array of allowed lot sizes"
      },
      "getMaximumLotSize()": {
        "return": "The largest lot size, in satoshis."
      },
      "getMinimumLotSize()": {
        "return": "The lowest lot size, in satoshis."
      },
      "getNewDepositFeeEstimate()": {
        "return": "Uint256 estimate."
      },
      "getSignerFeeDivisor()": {
        "return": "The signer fee divisor."
      },
      "initialize(address,address,address,address,address,address,address,uint16,uint16)": {
        "details": "Only the Deposit factory should call this, and only once.",
        "params": {
          "_defaultKeepFactory": "ECDSA keep factory backed by KEEP stake.",
          "_depositFactory": "Deposit Factory. More info in `DepositFactory`.",
          "_feeRebateToken": "FeeRebateToken (FRT). More info in `FeeRebateToken`.",
          "_keepSize": "Signing group size.",
          "_keepThreshold": "Signing group honesty threshold.",
          "_masterDepositAddress": "Master Deposit address. More info in `Deposit`.",
          "_tbtcDepositToken": "TBTCDepositToken (TDT). More info in `TBTCDepositToken`.",
          "_tbtcToken": "TBTCToken. More info in `TBTCToken`."
        }
      },
      "isAllowedLotSize(uint64)": {
        "params": {
          "_requestedLotSizeSatoshis": "Lot size to check."
        },
        "return": "True if lot size is allowed, false otherwise."
      },
      "isOwner()": {
        "details": "Returns true if the caller is the current owner."
      },
      "logCourtesyCalled()": {
        "details": "We append the sender, which is the deposit contract that called."
      },
      "logCreated(address)": {
        "details": "We append the sender, which is the deposit contract that called.",
        "params": {
          "_keepAddress": "The address of the associated keep."
        },
        "return": "True if successful, else revert."
      },
      "logExitedCourtesyCall()": {
        "details": "We append the sender, which is the deposit contract that called."
      },
      "logFraudDuringSetup()": {
        "details": "We append the sender, which is the deposit contract that called."
      },
      "logFunded(bytes32)": {
        "details": "We append the sender, which is the deposit contract that called."
      },
      "logFunderRequestedAbort(bytes)": {
        "details": "We append the sender, which is the deposit contract that called."
      },
      "logGotRedemptionSignature(bytes32,bytes32,bytes32)": {
        "details": "We append the sender, which is the deposit contract that called.",
        "params": {
          "_digest": "signed digest.",
          "_r": "signature r value.",
          "_s": "signature s value."
        }
      },
      "logLiquidated()": {
        "details": "We append the sender, which is the deposit contract that called."
      },
      "logRedeemed(bytes32)": {
        "details": "We append the sender, which is the deposit contract that called."
      },
      "logRedemptionRequested(address,bytes32,uint256,bytes,uint256,bytes)": {
        "details": "This is the only event without an explicit timestamp.",
        "params": {
          "_digest": "The calculated sighash digest.",
          "_outpoint": "The 36 byte outpoint.",
          "_redeemerOutputScript": "The redeemer's length-prefixed output script.",
          "_requestedFee": "The requester or bump-system specified fee.",
          "_requester": "The ethereum address of the requester.",
          "_utxoValue": "The size of the utxo in sat."
        },
        "return": "True if successful, else revert."
      },
      "logRegisteredPubkey(bytes32,bytes32)": {
        "details": "We append the sender, which is the deposit contract that called."
      },
      "logSetupFailed()": {
        "details": "We append the sender, which is the deposit contract that called."
      },
      "logStartedLiquidation(bool)": {
        "details": "We append the sender, which is the deposit contract that called.",
        "params": {
          "_wasFraud": "True if liquidating for fraud."
        }
      },
      "owner()": {
        "details": "Returns the address of the current owner."
      },
      "refreshMinimumBondableValue()": {
        "details": "It is recommended to call this function on tBTC initialization and after minimum lot size update."
      },
      "renounceOwnership()": {
        "details": "Leaves the contract without owner. It will not be possible to call `onlyOwner` functions anymore. Can only be called by the current owner.     * > Note: Renouncing ownership will leave the contract without an owner, thereby removing any functionality that is only available to the owner."
      },
      "requestNewKeep(uint64,uint256)": {
        "params": {
          "_maxSecuredLifetime": "Duration of stake lock in seconds.",
          "_requestedLotSizeSatoshis": "Lot size in satoshis."
        },
        "return": "Address of a new keep."
      },
      "transferOwnership(address)": {
        "details": "Transfers ownership of the contract to a new account (`newOwner`). Can only be called by the current owner."
      }
    },
    "title": "TBTC System."
  },
  "userdoc": {
    "methods": {
      "approvedToLog(address)": {
        "notice": "Checks if an address is an allowed logger."
      },
      "beginCollateralizationThresholdsUpdate(uint16,uint16,uint16)": {
        "notice": "Set the system collateralization levels"
      },
      "beginEthBtcPriceFeedAddition(address)": {
        "notice": "Add a new ETH/BTC price feed contract to the priecFeed."
      },
      "beginKeepFactoriesUpdate(address,address,address)": {
        "notice": "Sets the addresses of the KEEP-staked ECDSA keep factory,         ETH-only-backed ECDSA keep factory and the selection strategy         that will choose between the two factories for new deposits.         When the ETH-only-backed factory and strategy are not set TBTCSystem         will use KEEP-staked factory. When both factories and strategy         are set, TBTCSystem load balances between two factories based on         the selection strategy."
      },
      "beginLotSizesUpdate(uint64[])": {
        "notice": "Set the allowed deposit lot sizes."
      },
      "beginSignerFeeDivisorUpdate(uint16)": {
        "notice": "Set the system signer fee divisor."
      },
      "emergencyPauseNewDeposits()": {
        "notice": "One-time-use emergency function to disallow future deposit creation for 10 days."
      },
      "fetchBitcoinPrice()": {
        "notice": "Get the price of one satoshi in wei."
      },
      "finalizeCollateralizationThresholdsUpdate()": {
        "notice": "Finish setting the system collateralization levels"
      },
      "finalizeEthBtcPriceFeedAddition()": {
        "notice": "Finish adding a new price feed contract to the priceFeed."
      },
      "finalizeKeepFactoriesUpdate()": {
        "notice": "Finish setting addresses of the KEEP-staked ECDSA keep factory,         ETH-only-backed ECDSA keep factory, and the selection strategy         that will choose between the two factories for new deposits."
      },
      "finalizeLotSizesUpdate()": {
        "notice": "Finish setting the accepted system lot sizes."
      },
      "finalizeSignerFeeDivisorUpdate()": {
        "notice": "Finish setting the system signer fee divisor."
      },
      "getAllowNewDeposits()": {
        "notice": "Returns whether new deposits should be allowed."
      },
      "getAllowedLotSizes()": {
        "notice": "Gets the allowed lot sizes"
      },
      "getGovernanceTimeDelay()": {
        "notice": "Returns the time delay used for governance actions except for         price feed additions."
      },
      "getInitialCollateralizedPercent()": {
        "notice": "Get the system initial collateralized level for new deposits."
      },
      "getKeepFactoriesUpgradeabilityPeriod()": {
        "notice": "Returns the time period when keep factories upgrades are allowed."
      },
      "getMaximumLotSize()": {
        "notice": "Return the largest lot size currently enabled for deposits."
      },
      "getMinimumLotSize()": {
        "notice": "Return the lowest lot size currently enabled for deposits."
      },
      "getNewDepositFeeEstimate()": {
        "notice": "Gets a fee estimate for creating a new Deposit."
      },
      "getPriceFeedGovernanceTimeDelay()": {
        "notice": "Returns the time delay used for price feed addition governance         actions."
      },
      "getRemainingCollateralizationThresholdsUpdateTime()": {
        "notice": "Get the time remaining until the collateralization thresholds can be updated."
      },
      "getRemainingEthBtcPriceFeedAdditionTime()": {
        "notice": "Get the time remaining until the signer fee divisor can be updated."
      },
      "getRemainingKeepFactoriesUpdateTime()": {
        "notice": "Get the time remaining until the Keep ETH-only-backed ECDSA keep         factory and the selection strategy that will choose between it         and the KEEP-backed factory can be updated."
      },
      "getRemainingKeepFactoriesUpgradeabilityTime()": {
        "notice": "Get the time remaining until Keep factories can no longer be updated."
      },
      "getRemainingLotSizesUpdateTime()": {
        "notice": "Get the time remaining until the lot sizes can be updated."
      },
      "getRemainingSignerFeeDivisorUpdateTime()": {
        "notice": "Get the time remaining until the signer fee divisor can be updated."
      },
      "getSeverelyUndercollateralizedThresholdPercent()": {
        "notice": "Get the system severe undercollateralization level for new deposits"
      },
      "getSignerFeeDivisor()": {
        "notice": "Gets the system signer fee divisor."
      },
      "getUndercollateralizedThresholdPercent()": {
        "notice": "Get the system undercollateralization level for new deposits"
      },
      "initialize(address,address,address,address,address,address,address,uint16,uint16)": {
        "notice": "Initialize contracts"
      },
      "isAllowedLotSize(uint64)": {
        "notice": "Check if a lot size is allowed."
      },
      "logCourtesyCalled()": {
        "notice": "Fires a CourtesyCalled event."
      },
      "logCreated(address)": {
        "notice": "Fires a Created event."
      },
      "logExitedCourtesyCall()": {
        "notice": "Fires a ExitedCourtesyCall event"
      },
      "logFraudDuringSetup()": {
        "notice": "Fires a FraudDuringSetup event."
      },
      "logFunded(bytes32)": {
        "notice": "Fires a Funded event."
      },
      "logFunderRequestedAbort(bytes)": {
        "notice": "Fires a FunderAbortRequested event."
      },
      "logGotRedemptionSignature(bytes32,bytes32,bytes32)": {
        "notice": "Fires a GotRedemptionSignature event."
      },
      "logLiquidated()": {
        "notice": "Fires a Liquidated event"
      },
      "logRedeemed(bytes32)": {
        "notice": "Fires a Redeemed event"
      },
      "logRedemptionRequested(address,bytes32,uint256,bytes,uint256,bytes)": {
        "notice": "Fires a RedemptionRequested event."
      },
      "logRegisteredPubkey(bytes32,bytes32)": {
        "notice": "Fires a RegisteredPubkey event."
      },
      "logSetupFailed()": {
        "notice": "Fires a SetupFailed event."
      },
      "logStartedLiquidation(bool)": {
        "notice": "Fires a StartedLiquidation event."
      },
      "refreshMinimumBondableValue()": {
        "notice": "Refreshes the minimum bondable value required from the operator to join the sortition pool for tBTC. The minimum bondable value is equal to the current minimum lot size collateralized 150% multiplied by the current BTC price."
      },
      "requestNewKeep(uint64,uint256)": {
        "notice": "Request a new keep opening."
      },
      "resumeNewDeposits()": {
        "notice": "Anyone can reactivate deposit creations after the pause duration is over."
      }
    },
    "notice": "This contract acts as a central point for access control,         value governance, and price feed."
  }
}