{
  "contractName": "TBTCSystemStub",
  "abi": [
    {
      "inputs": [
        {
          "internalType": "address",
          "name": "_priceFeed",
          "type": "address"
        },
        {
          "internalType": "address",
          "name": "_relay",
          "type": "address"
        }
      ],
      "payable": false,
      "stateMutability": "nonpayable",
      "type": "constructor"
    },
    {
      "anonymous": false,
      "inputs": [
        {
          "indexed": false,
          "internalType": "bool",
          "name": "_allowNewDeposits",
          "type": "bool"
        }
      ],
      "name": "AllowNewDepositsUpdated",
      "type": "event"
    },
    {
      "anonymous": false,
      "inputs": [
        {
          "indexed": false,
          "internalType": "uint16",
          "name": "_initialCollateralizedPercent",
          "type": "uint16"
        },
        {
          "indexed": false,
          "internalType": "uint16",
          "name": "_undercollateralizedThresholdPercent",
          "type": "uint16"
        },
        {
          "indexed": false,
          "internalType": "uint16",
          "name": "_severelyUndercollateralizedThresholdPercent",
          "type": "uint16"
        },
        {
          "indexed": false,
          "internalType": "uint256",
          "name": "_timestamp",
          "type": "uint256"
        }
      ],
      "name": "CollateralizationThresholdsUpdateStarted",
      "type": "event"
    },
    {
      "anonymous": false,
      "inputs": [
        {
          "indexed": false,
          "internalType": "uint16",
          "name": "_initialCollateralizedPercent",
          "type": "uint16"
        },
        {
          "indexed": false,
          "internalType": "uint16",
          "name": "_undercollateralizedThresholdPercent",
          "type": "uint16"
        },
        {
          "indexed": false,
          "internalType": "uint16",
          "name": "_severelyUndercollateralizedThresholdPercent",
          "type": "uint16"
        }
      ],
      "name": "CollateralizationThresholdsUpdated",
      "type": "event"
    },
    {
      "anonymous": false,
      "inputs": [
        {
          "indexed": true,
          "internalType": "address",
          "name": "_depositContractAddress",
          "type": "address"
        },
        {
          "indexed": false,
          "internalType": "uint256",
          "name": "_timestamp",
          "type": "uint256"
        }
      ],
      "name": "CourtesyCalled",
      "type": "event"
    },
    {
      "anonymous": false,
      "inputs": [
        {
          "indexed": true,
          "internalType": "address",
          "name": "_depositContractAddress",
          "type": "address"
        },
        {
          "indexed": true,
          "internalType": "address",
          "name": "_keepAddress",
          "type": "address"
        },
        {
          "indexed": false,
          "internalType": "uint256",
          "name": "_timestamp",
          "type": "uint256"
        }
      ],
      "name": "Created",
      "type": "event"
    },
    {
      "anonymous": false,
      "inputs": [
        {
          "indexed": false,
          "internalType": "address",
          "name": "_priceFeed",
          "type": "address"
        }
      ],
      "name": "EthBtcPriceFeedAdded",
      "type": "event"
    },
    {
      "anonymous": false,
      "inputs": [
        {
          "indexed": false,
          "internalType": "address",
          "name": "_priceFeed",
          "type": "address"
        },
        {
          "indexed": false,
          "internalType": "uint256",
          "name": "_timestamp",
          "type": "uint256"
        }
      ],
      "name": "EthBtcPriceFeedAdditionStarted",
      "type": "event"
    },
    {
      "anonymous": false,
      "inputs": [
        {
          "indexed": true,
          "internalType": "address",
          "name": "_depositContractAddress",
          "type": "address"
        },
        {
          "indexed": false,
          "internalType": "uint256",
          "name": "_timestamp",
          "type": "uint256"
        }
      ],
      "name": "ExitedCourtesyCall",
      "type": "event"
    },
    {
      "anonymous": false,
      "inputs": [
        {
          "indexed": true,
          "internalType": "address",
          "name": "_depositContractAddress",
          "type": "address"
        },
        {
          "indexed": false,
          "internalType": "uint256",
          "name": "_timestamp",
          "type": "uint256"
        }
      ],
      "name": "FraudDuringSetup",
      "type": "event"
    },
    {
      "anonymous": false,
      "inputs": [
        {
          "indexed": true,
          "internalType": "address",
          "name": "_depositContractAddress",
          "type": "address"
        },
        {
          "indexed": true,
          "internalType": "bytes32",
          "name": "_txid",
          "type": "bytes32"
        },
        {
          "indexed": false,
          "internalType": "uint256",
          "name": "_timestamp",
          "type": "uint256"
        }
      ],
      "name": "Funded",
      "type": "event"
    },
    {
      "anonymous": false,
      "inputs": [
        {
          "indexed": true,
          "internalType": "address",
          "name": "_depositContractAddress",
          "type": "address"
        },
        {
          "indexed": false,
          "internalType": "bytes",
          "name": "_abortOutputScript",
          "type": "bytes"
        }
      ],
      "name": "FunderAbortRequested",
      "type": "event"
    },
    {
      "anonymous": false,
      "inputs": [
        {
          "indexed": true,
          "internalType": "address",
          "name": "_depositContractAddress",
          "type": "address"
        },
        {
          "indexed": true,
          "internalType": "bytes32",
          "name": "_digest",
          "type": "bytes32"
        },
        {
          "indexed": false,
          "internalType": "bytes32",
          "name": "_r",
          "type": "bytes32"
        },
        {
          "indexed": false,
          "internalType": "bytes32",
          "name": "_s",
          "type": "bytes32"
        },
        {
          "indexed": false,
          "internalType": "uint256",
          "name": "_timestamp",
          "type": "uint256"
        }
      ],
      "name": "GotRedemptionSignature",
      "type": "event"
    },
    {
      "anonymous": false,
      "inputs": [
        {
          "indexed": false,
          "internalType": "address",
          "name": "_keepStakedFactory",
          "type": "address"
        },
        {
          "indexed": false,
          "internalType": "address",
          "name": "_fullyBackedFactory",
          "type": "address"
        },
        {
          "indexed": false,
          "internalType": "address",
          "name": "_factorySelector",
          "type": "address"
        },
        {
          "indexed": false,
          "internalType": "uint256",
          "name": "_timestamp",
          "type": "uint256"
        }
      ],
      "name": "KeepFactoriesUpdateStarted",
      "type": "event"
    },
    {
      "anonymous": false,
      "inputs": [
        {
          "indexed": false,
          "internalType": "address",
          "name": "_keepStakedFactory",
          "type": "address"
        },
        {
          "indexed": false,
          "internalType": "address",
          "name": "_fullyBackedFactory",
          "type": "address"
        },
        {
          "indexed": false,
          "internalType": "address",
          "name": "_factorySelector",
          "type": "address"
        }
      ],
      "name": "KeepFactoriesUpdated",
      "type": "event"
    },
    {
      "anonymous": false,
      "inputs": [
        {
          "indexed": true,
          "internalType": "address",
          "name": "_depositContractAddress",
          "type": "address"
        },
        {
          "indexed": false,
          "internalType": "uint256",
          "name": "_timestamp",
          "type": "uint256"
        }
      ],
      "name": "Liquidated",
      "type": "event"
    },
    {
      "anonymous": false,
      "inputs": [
        {
          "indexed": false,
          "internalType": "uint64[]",
          "name": "_lotSizes",
          "type": "uint64[]"
        },
        {
          "indexed": false,
          "internalType": "uint256",
          "name": "_timestamp",
          "type": "uint256"
        }
      ],
      "name": "LotSizesUpdateStarted",
      "type": "event"
    },
    {
      "anonymous": false,
      "inputs": [
        {
          "indexed": false,
          "internalType": "uint64[]",
          "name": "_lotSizes",
          "type": "uint64[]"
        }
      ],
      "name": "LotSizesUpdated",
      "type": "event"
    },
    {
      "anonymous": false,
      "inputs": [
        {
          "indexed": true,
          "internalType": "address",
          "name": "previousOwner",
          "type": "address"
        },
        {
          "indexed": true,
          "internalType": "address",
          "name": "newOwner",
          "type": "address"
        }
      ],
      "name": "OwnershipTransferred",
      "type": "event"
    },
    {
      "anonymous": false,
      "inputs": [
        {
          "indexed": true,
          "internalType": "address",
          "name": "_depositContractAddress",
          "type": "address"
        },
        {
          "indexed": true,
          "internalType": "bytes32",
          "name": "_txid",
          "type": "bytes32"
        },
        {
          "indexed": false,
          "internalType": "uint256",
          "name": "_timestamp",
          "type": "uint256"
        }
      ],
      "name": "Redeemed",
      "type": "event"
    },
    {
      "anonymous": false,
      "inputs": [
        {
          "indexed": true,
          "internalType": "address",
          "name": "_depositContractAddress",
          "type": "address"
        },
        {
          "indexed": true,
          "internalType": "address",
          "name": "_requester",
          "type": "address"
        },
        {
          "indexed": true,
          "internalType": "bytes32",
          "name": "_digest",
          "type": "bytes32"
        },
        {
          "indexed": false,
          "internalType": "uint256",
          "name": "_utxoValue",
          "type": "uint256"
        },
        {
          "indexed": false,
          "internalType": "bytes",
          "name": "_redeemerOutputScript",
          "type": "bytes"
        },
        {
          "indexed": false,
          "internalType": "uint256",
          "name": "_requestedFee",
          "type": "uint256"
        },
        {
          "indexed": false,
          "internalType": "bytes",
          "name": "_outpoint",
          "type": "bytes"
        }
      ],
      "name": "RedemptionRequested",
      "type": "event"
    },
    {
      "anonymous": false,
      "inputs": [
        {
          "indexed": true,
          "internalType": "address",
          "name": "_depositContractAddress",
          "type": "address"
        },
        {
          "indexed": false,
          "internalType": "bytes32",
          "name": "_signingGroupPubkeyX",
          "type": "bytes32"
        },
        {
          "indexed": false,
          "internalType": "bytes32",
          "name": "_signingGroupPubkeyY",
          "type": "bytes32"
        },
        {
          "indexed": false,
          "internalType": "uint256",
          "name": "_timestamp",
          "type": "uint256"
        }
      ],
      "name": "RegisteredPubkey",
      "type": "event"
    },
    {
      "anonymous": false,
      "inputs": [
        {
          "indexed": true,
          "internalType": "address",
          "name": "_depositContractAddress",
          "type": "address"
        },
        {
          "indexed": false,
          "internalType": "uint256",
          "name": "_timestamp",
          "type": "uint256"
        }
      ],
      "name": "SetupFailed",
      "type": "event"
    },
    {
      "anonymous": false,
      "inputs": [
        {
          "indexed": false,
          "internalType": "uint16",
          "name": "_signerFeeDivisor",
          "type": "uint16"
        },
        {
          "indexed": false,
          "internalType": "uint256",
          "name": "_timestamp",
          "type": "uint256"
        }
      ],
      "name": "SignerFeeDivisorUpdateStarted",
      "type": "event"
    },
    {
      "anonymous": false,
      "inputs": [
        {
          "indexed": false,
          "internalType": "uint16",
          "name": "_signerFeeDivisor",
          "type": "uint16"
        }
      ],
      "name": "SignerFeeDivisorUpdated",
      "type": "event"
    },
    {
      "anonymous": false,
      "inputs": [
        {
          "indexed": true,
          "internalType": "address",
          "name": "_depositContractAddress",
          "type": "address"
        },
        {
          "indexed": false,
          "internalType": "bool",
          "name": "_wasFraud",
          "type": "bool"
        },
        {
          "indexed": false,
          "internalType": "uint256",
          "name": "_timestamp",
          "type": "uint256"
        }
      ],
      "name": "StartedLiquidation",
      "type": "event"
    },
    {
      "constant": true,
      "inputs": [
        {
          "internalType": "address",
          "name": "_caller",
          "type": "address"
        }
      ],
      "name": "approvedToLog",
      "outputs": [
        {
          "internalType": "bool",
          "name": "",
          "type": "bool"
        }
      ],
      "payable": false,
      "stateMutability": "view",
      "type": "function"
    },
    {
      "constant": false,
      "inputs": [
        {
          "internalType": "uint16",
          "name": "_initialCollateralizedPercent",
          "type": "uint16"
        },
        {
          "internalType": "uint16",
          "name": "_undercollateralizedThresholdPercent",
          "type": "uint16"
        },
        {
          "internalType": "uint16",
          "name": "_severelyUndercollateralizedThresholdPercent",
          "type": "uint16"
        }
      ],
      "name": "beginCollateralizationThresholdsUpdate",
      "outputs": [],
      "payable": false,
      "stateMutability": "nonpayable",
      "type": "function"
    },
    {
      "constant": false,
      "inputs": [
        {
          "internalType": "contract IMedianizer",
          "name": "_ethBtcPriceFeed",
          "type": "address"
        }
      ],
      "name": "beginEthBtcPriceFeedAddition",
      "outputs": [],
      "payable": false,
      "stateMutability": "nonpayable",
      "type": "function"
    },
    {
      "constant": false,
      "inputs": [
        {
          "internalType": "address",
          "name": "_keepStakedFactory",
          "type": "address"
        },
        {
          "internalType": "address",
          "name": "_fullyBackedFactory",
          "type": "address"
        },
        {
          "internalType": "address",
          "name": "_factorySelector",
          "type": "address"
        }
      ],
      "name": "beginKeepFactoriesUpdate",
      "outputs": [],
      "payable": false,
      "stateMutability": "nonpayable",
      "type": "function"
    },
    {
      "constant": false,
      "inputs": [
        {
          "internalType": "uint64[]",
          "name": "_lotSizes",
          "type": "uint64[]"
        }
      ],
      "name": "beginLotSizesUpdate",
      "outputs": [],
      "payable": false,
      "stateMutability": "nonpayable",
      "type": "function"
    },
    {
      "constant": false,
      "inputs": [
        {
          "internalType": "uint16",
          "name": "_signerFeeDivisor",
          "type": "uint16"
        }
      ],
      "name": "beginSignerFeeDivisorUpdate",
      "outputs": [],
      "payable": false,
      "stateMutability": "nonpayable",
      "type": "function"
    },
    {
      "constant": false,
      "inputs": [],
      "name": "emergencyPauseNewDeposits",
      "outputs": [],
      "payable": false,
      "stateMutability": "nonpayable",
      "type": "function"
    },
    {
      "constant": true,
      "inputs": [],
      "name": "fetchRelayCurrentDifficulty",
      "outputs": [
        {
          "internalType": "uint256",
          "name": "",
          "type": "uint256"
        }
      ],
      "payable": false,
      "stateMutability": "view",
      "type": "function"
    },
    {
      "constant": true,
      "inputs": [],
      "name": "fetchRelayPreviousDifficulty",
      "outputs": [
        {
          "internalType": "uint256",
          "name": "",
          "type": "uint256"
        }
      ],
      "payable": false,
      "stateMutability": "view",
      "type": "function"
    },
    {
      "constant": false,
      "inputs": [],
      "name": "finalizeCollateralizationThresholdsUpdate",
      "outputs": [],
      "payable": false,
      "stateMutability": "nonpayable",
      "type": "function"
    },
    {
      "constant": false,
      "inputs": [],
      "name": "finalizeEthBtcPriceFeedAddition",
      "outputs": [],
      "payable": false,
      "stateMutability": "nonpayable",
      "type": "function"
    },
    {
      "constant": false,
      "inputs": [],
      "name": "finalizeKeepFactoriesUpdate",
      "outputs": [],
      "payable": false,
      "stateMutability": "nonpayable",
      "type": "function"
    },
    {
      "constant": false,
      "inputs": [],
      "name": "finalizeLotSizesUpdate",
      "outputs": [],
      "payable": false,
      "stateMutability": "nonpayable",
      "type": "function"
    },
    {
      "constant": false,
      "inputs": [],
      "name": "finalizeSignerFeeDivisorUpdate",
      "outputs": [],
      "payable": false,
      "stateMutability": "nonpayable",
      "type": "function"
    },
    {
      "constant": true,
      "inputs": [],
      "name": "getAllowNewDeposits",
      "outputs": [
        {
          "internalType": "bool",
          "name": "",
          "type": "bool"
        }
      ],
      "payable": false,
      "stateMutability": "view",
      "type": "function"
    },
    {
      "constant": true,
      "inputs": [],
      "name": "getAllowedLotSizes",
      "outputs": [
        {
          "internalType": "uint64[]",
          "name": "",
          "type": "uint64[]"
        }
      ],
      "payable": false,
      "stateMutability": "view",
      "type": "function"
    },
    {
      "constant": true,
      "inputs": [],
      "name": "getGovernanceTimeDelay",
      "outputs": [
        {
          "internalType": "uint256",
          "name": "",
          "type": "uint256"
        }
      ],
      "payable": false,
      "stateMutability": "pure",
      "type": "function"
    },
    {
      "constant": true,
      "inputs": [],
      "name": "getInitialCollateralizedPercent",
      "outputs": [
        {
          "internalType": "uint16",
          "name": "",
          "type": "uint16"
        }
      ],
      "payable": false,
      "stateMutability": "view",
      "type": "function"
    },
    {
      "constant": true,
      "inputs": [],
      "name": "getKeepFactoriesUpgradeabilityPeriod",
      "outputs": [
        {
          "internalType": "uint256",
          "name": "",
          "type": "uint256"
        }
      ],
      "payable": false,
      "stateMutability": "pure",
      "type": "function"
    },
    {
      "constant": true,
      "inputs": [],
      "name": "getMaximumLotSize",
      "outputs": [
        {
          "internalType": "uint256",
          "name": "",
          "type": "uint256"
        }
      ],
      "payable": false,
      "stateMutability": "view",
      "type": "function"
    },
    {
      "constant": true,
      "inputs": [],
      "name": "getMinimumLotSize",
      "outputs": [
        {
          "internalType": "uint256",
          "name": "",
          "type": "uint256"
        }
      ],
      "payable": false,
      "stateMutability": "view",
      "type": "function"
    },
    {
      "constant": true,
      "inputs": [],
      "name": "getNewDepositFeeEstimate",
      "outputs": [
        {
          "internalType": "uint256",
          "name": "",
          "type": "uint256"
        }
      ],
      "payable": false,
      "stateMutability": "view",
      "type": "function"
    },
    {
      "constant": true,
      "inputs": [],
      "name": "getPriceFeedGovernanceTimeDelay",
      "outputs": [
        {
          "internalType": "uint256",
          "name": "",
          "type": "uint256"
        }
      ],
      "payable": false,
      "stateMutability": "pure",
      "type": "function"
    },
    {
      "constant": true,
      "inputs": [],
      "name": "getRemainingCollateralizationThresholdsUpdateTime",
      "outputs": [
        {
          "internalType": "uint256",
          "name": "",
          "type": "uint256"
        }
      ],
      "payable": false,
      "stateMutability": "view",
      "type": "function"
    },
    {
      "constant": true,
      "inputs": [],
      "name": "getRemainingEthBtcPriceFeedAdditionTime",
      "outputs": [
        {
          "internalType": "uint256",
          "name": "",
          "type": "uint256"
        }
      ],
      "payable": false,
      "stateMutability": "view",
      "type": "function"
    },
    {
      "constant": true,
      "inputs": [],
      "name": "getRemainingKeepFactoriesUpdateTime",
      "outputs": [
        {
          "internalType": "uint256",
          "name": "",
          "type": "uint256"
        }
      ],
      "payable": false,
      "stateMutability": "view",
      "type": "function"
    },
    {
      "constant": true,
      "inputs": [],
      "name": "getRemainingKeepFactoriesUpgradeabilityTime",
      "outputs": [
        {
          "internalType": "uint256",
          "name": "",
          "type": "uint256"
        }
      ],
      "payable": false,
      "stateMutability": "view",
      "type": "function"
    },
    {
      "constant": true,
      "inputs": [],
      "name": "getRemainingLotSizesUpdateTime",
      "outputs": [
        {
          "internalType": "uint256",
          "name": "",
          "type": "uint256"
        }
      ],
      "payable": false,
      "stateMutability": "view",
      "type": "function"
    },
    {
      "constant": true,
      "inputs": [],
      "name": "getRemainingPauseTerm",
      "outputs": [
        {
          "internalType": "uint256",
          "name": "",
          "type": "uint256"
        }
      ],
      "payable": false,
      "stateMutability": "view",
      "type": "function"
    },
    {
      "constant": true,
      "inputs": [],
      "name": "getRemainingSignerFeeDivisorUpdateTime",
      "outputs": [
        {
          "internalType": "uint256",
          "name": "",
          "type": "uint256"
        }
      ],
      "payable": false,
      "stateMutability": "view",
      "type": "function"
    },
    {
      "constant": true,
      "inputs": [],
      "name": "getSeverelyUndercollateralizedThresholdPercent",
      "outputs": [
        {
          "internalType": "uint16",
          "name": "",
          "type": "uint16"
        }
      ],
      "payable": false,
      "stateMutability": "view",
      "type": "function"
    },
    {
      "constant": true,
      "inputs": [],
      "name": "getSignerFeeDivisor",
      "outputs": [
        {
          "internalType": "uint16",
          "name": "",
          "type": "uint16"
        }
      ],
      "payable": false,
      "stateMutability": "view",
      "type": "function"
    },
    {
      "constant": true,
      "inputs": [],
      "name": "getUndercollateralizedThresholdPercent",
      "outputs": [
        {
          "internalType": "uint16",
          "name": "",
          "type": "uint16"
        }
      ],
      "payable": false,
      "stateMutability": "view",
      "type": "function"
    },
    {
      "constant": false,
      "inputs": [
        {
          "internalType": "contract IBondedECDSAKeepFactory",
          "name": "_defaultKeepFactory",
          "type": "address"
        },
        {
          "internalType": "contract DepositFactory",
          "name": "_depositFactory",
          "type": "address"
        },
        {
          "internalType": "address payable",
          "name": "_masterDepositAddress",
          "type": "address"
        },
        {
          "internalType": "contract TBTCToken",
          "name": "_tbtcToken",
          "type": "address"
        },
        {
          "internalType": "contract TBTCDepositToken",
          "name": "_tbtcDepositToken",
          "type": "address"
        },
        {
          "internalType": "contract FeeRebateToken",
          "name": "_feeRebateToken",
          "type": "address"
        },
        {
          "internalType": "contract VendingMachine",
          "name": "_vendingMachine",
          "type": "address"
        },
        {
          "internalType": "uint16",
          "name": "_keepThreshold",
          "type": "uint16"
        },
        {
          "internalType": "uint16",
          "name": "_keepSize",
          "type": "uint16"
        }
      ],
      "name": "initialize",
      "outputs": [],
      "payable": false,
      "stateMutability": "nonpayable",
      "type": "function"
    },
    {
      "constant": true,
      "inputs": [
        {
          "internalType": "uint64",
          "name": "_requestedLotSizeSatoshis",
          "type": "uint64"
        }
      ],
      "name": "isAllowedLotSize",
      "outputs": [
        {
          "internalType": "bool",
          "name": "",
          "type": "bool"
        }
      ],
      "payable": false,
      "stateMutability": "view",
      "type": "function"
    },
    {
      "constant": true,
      "inputs": [],
      "name": "isOwner",
      "outputs": [
        {
          "internalType": "bool",
          "name": "",
          "type": "bool"
        }
      ],
      "payable": false,
      "stateMutability": "view",
      "type": "function"
    },
    {
      "constant": true,
      "inputs": [],
      "name": "keepSize",
      "outputs": [
        {
          "internalType": "uint16",
          "name": "",
          "type": "uint16"
        }
      ],
      "payable": false,
      "stateMutability": "view",
      "type": "function"
    },
    {
      "constant": true,
      "inputs": [],
      "name": "keepThreshold",
      "outputs": [
        {
          "internalType": "uint16",
          "name": "",
          "type": "uint16"
        }
      ],
      "payable": false,
      "stateMutability": "view",
      "type": "function"
    },
    {
      "constant": false,
      "inputs": [],
      "name": "logCourtesyCalled",
      "outputs": [],
      "payable": false,
      "stateMutability": "nonpayable",
      "type": "function"
    },
    {
      "constant": false,
      "inputs": [
        {
          "internalType": "address",
          "name": "_keepAddress",
          "type": "address"
        }
      ],
      "name": "logCreated",
      "outputs": [],
      "payable": false,
      "stateMutability": "nonpayable",
      "type": "function"
    },
    {
      "constant": false,
      "inputs": [],
      "name": "logExitedCourtesyCall",
      "outputs": [],
      "payable": false,
      "stateMutability": "nonpayable",
      "type": "function"
    },
    {
      "constant": false,
      "inputs": [],
      "name": "logFraudDuringSetup",
      "outputs": [],
      "payable": false,
      "stateMutability": "nonpayable",
      "type": "function"
    },
    {
      "constant": false,
      "inputs": [
        {
          "internalType": "bytes32",
          "name": "_txid",
          "type": "bytes32"
        }
      ],
      "name": "logFunded",
      "outputs": [],
      "payable": false,
      "stateMutability": "nonpayable",
      "type": "function"
    },
    {
      "constant": false,
      "inputs": [
        {
          "internalType": "bytes",
          "name": "_abortOutputScript",
          "type": "bytes"
        }
      ],
      "name": "logFunderRequestedAbort",
      "outputs": [],
      "payable": false,
      "stateMutability": "nonpayable",
      "type": "function"
    },
    {
      "constant": false,
      "inputs": [
        {
          "internalType": "bytes32",
          "name": "_digest",
          "type": "bytes32"
        },
        {
          "internalType": "bytes32",
          "name": "_r",
          "type": "bytes32"
        },
        {
          "internalType": "bytes32",
          "name": "_s",
          "type": "bytes32"
        }
      ],
      "name": "logGotRedemptionSignature",
      "outputs": [],
      "payable": false,
      "stateMutability": "nonpayable",
      "type": "function"
    },
    {
      "constant": false,
      "inputs": [],
      "name": "logLiquidated",
      "outputs": [],
      "payable": false,
      "stateMutability": "nonpayable",
      "type": "function"
    },
    {
      "constant": false,
      "inputs": [
        {
          "internalType": "bytes32",
          "name": "_txid",
          "type": "bytes32"
        }
      ],
      "name": "logRedeemed",
      "outputs": [],
      "payable": false,
      "stateMutability": "nonpayable",
      "type": "function"
    },
    {
      "constant": false,
      "inputs": [
        {
          "internalType": "address",
          "name": "_requester",
          "type": "address"
        },
        {
          "internalType": "bytes32",
          "name": "_digest",
          "type": "bytes32"
        },
        {
          "internalType": "uint256",
          "name": "_utxoValue",
          "type": "uint256"
        },
        {
          "internalType": "bytes",
          "name": "_redeemerOutputScript",
          "type": "bytes"
        },
        {
          "internalType": "uint256",
          "name": "_requestedFee",
          "type": "uint256"
        },
        {
          "internalType": "bytes",
          "name": "_outpoint",
          "type": "bytes"
        }
      ],
      "name": "logRedemptionRequested",
      "outputs": [],
      "payable": false,
      "stateMutability": "nonpayable",
      "type": "function"
    },
    {
      "constant": false,
      "inputs": [
        {
          "internalType": "bytes32",
          "name": "_signingGroupPubkeyX",
          "type": "bytes32"
        },
        {
          "internalType": "bytes32",
          "name": "_signingGroupPubkeyY",
          "type": "bytes32"
        }
      ],
      "name": "logRegisteredPubkey",
      "outputs": [],
      "payable": false,
      "stateMutability": "nonpayable",
      "type": "function"
    },
    {
      "constant": false,
      "inputs": [],
      "name": "logSetupFailed",
      "outputs": [],
      "payable": false,
      "stateMutability": "nonpayable",
      "type": "function"
    },
    {
      "constant": false,
      "inputs": [
        {
          "internalType": "bool",
          "name": "_wasFraud",
          "type": "bool"
        }
      ],
      "name": "logStartedLiquidation",
      "outputs": [],
      "payable": false,
      "stateMutability": "nonpayable",
      "type": "function"
    },
    {
      "constant": true,
      "inputs": [],
      "name": "owner",
      "outputs": [
        {
          "internalType": "address",
          "name": "",
          "type": "address"
        }
      ],
      "payable": false,
      "stateMutability": "view",
      "type": "function"
    },
    {
      "constant": true,
      "inputs": [],
      "name": "priceFeed",
      "outputs": [
        {
          "internalType": "contract ISatWeiPriceFeed",
          "name": "",
          "type": "address"
        }
      ],
      "payable": false,
      "stateMutability": "view",
      "type": "function"
    },
    {
      "constant": false,
      "inputs": [],
      "name": "refreshMinimumBondableValue",
      "outputs": [],
      "payable": false,
      "stateMutability": "nonpayable",
      "type": "function"
    },
    {
      "constant": true,
      "inputs": [],
      "name": "relay",
      "outputs": [
        {
          "internalType": "contract IRelay",
          "name": "",
          "type": "address"
        }
      ],
      "payable": false,
      "stateMutability": "view",
      "type": "function"
    },
    {
      "constant": false,
      "inputs": [],
      "name": "renounceOwnership",
      "outputs": [],
      "payable": false,
      "stateMutability": "nonpayable",
      "type": "function"
    },
    {
      "constant": false,
      "inputs": [],
      "name": "resumeNewDeposits",
      "outputs": [],
      "payable": false,
      "stateMutability": "nonpayable",
      "type": "function"
    },
    {
      "constant": false,
      "inputs": [
        {
          "internalType": "address",
          "name": "newOwner",
          "type": "address"
        }
      ],
      "name": "transferOwnership",
      "outputs": [],
      "payable": false,
      "stateMutability": "nonpayable",
      "type": "function"
    },
    {
      "constant": false,
      "inputs": [
        {
          "internalType": "uint256",
          "name": "_oraclePrice",
          "type": "uint256"
        }
      ],
      "name": "setOraclePrice",
      "outputs": [],
      "payable": false,
      "stateMutability": "nonpayable",
      "type": "function"
    },
    {
      "constant": true,
      "inputs": [],
      "name": "fetchBitcoinPrice",
      "outputs": [
        {
          "internalType": "uint256",
          "name": "",
          "type": "uint256"
        }
      ],
      "payable": false,
      "stateMutability": "view",
      "type": "function"
    },
    {
      "constant": false,
      "inputs": [
        {
          "internalType": "address",
          "name": "_keepAddress",
          "type": "address"
        }
      ],
      "name": "setKeepAddress",
      "outputs": [],
      "payable": false,
      "stateMutability": "nonpayable",
      "type": "function"
    },
    {
      "constant": false,
      "inputs": [
        {
          "internalType": "uint64",
          "name": "",
          "type": "uint64"
        },
        {
          "internalType": "uint256",
          "name": "",
          "type": "uint256"
        }
      ],
      "name": "requestNewKeep",
      "outputs": [
        {
          "internalType": "address",
          "name": "_keepAddress",
          "type": "address"
        }
      ],
      "payable": true,
      "stateMutability": "payable",
      "type": "function"
    }
  ],
  "bytecode": "0x6000600255600b805462ffffff60201b19166607d000000000001761ffff60381b19166796000000000000001761ffff60481b1916697d0000000000000000001761ffff60581b19166b6e0000000000000000000000179055610120604052620f424060809081526298968060a0526301312d0060c0526302faf08060e0526305f5e100610100526200009790600c906005620001c0565b50601880546001600160a01b031916600717905564e8d4a51000601955348015620000c157600080fd5b506040516200402d3803806200402d83398181016040526040811015620000e757600080fd5b508051602090910151600080546001600160a01b0319163317808255604051849284926001600160a01b0316917f8be0079c531659141344cd1fd0a4f28419497f9722a3daafe3b4186f6b6457e0908290a3600480546001600160a01b039384166001600160a01b031991821617909155600580549290931691161790556040805160c081018252620186a08152620f4240602082015262989680918101919091526301312d0060608201526302faf08060808201526305f5e10060a0820152620001b790600c906006620001c0565b505050620002a6565b828054828255906000526020600020906003016004900481019282156200026a5791602002820160005b838211156200023357835183826101000a8154816001600160401b03021916908363ffffffff1602179055509260200192600801602081600701049283019260010302620001ea565b8015620002685782816101000a8154906001600160401b03021916905560080160208160070104928301926001030262000233565b505b50620002789291506200027c565b5090565b620002a391905b80821115620002785780546001600160401b031916815560010162000283565b90565b613d7780620002b66000396000f3fe6080604052600436106103ad5760003560e01c806380f04b8c116101e7578063b792a38e1161010d578063de1e57d0116100a0578063eae6191f1161006f578063eae6191f14610d2a578063f2e7234714610d6f578063f2fde38b14610d84578063f760621e14610db7576103ad565b8063de1e57d014610cd6578063e2c50ad814610ceb578063e5426d2e14610d00578063e5a6d77d14610d15576103ad565b8063cd3a9490116100dc578063cd3a949014610bbb578063ce2c07ce14610bd0578063dab70cb114610c81578063dde3fdd214610c96576103ad565b8063b792a38e14610b52578063c074d55014610b67578063c65cd86d14610b7c578063c8fba24314610ba6576103ad565b8063a28b79f111610185578063adc3ef7011610154578063adc3ef7014610afe578063ae7f4a5f14610b13578063b196b5a314610b28578063b59589d114610b3d576103ad565b8063a28b79f114610a8c578063a2cd75da14610abf578063a6c1691c14610ad4578063a831c81614610ae9576103ad565b80638da5cb5b116101c15780638da5cb5b14610a1a5780638f32d59b14610a2f578063987ecea714610a445780639ffb386214610a59576103ad565b806380f04b8c146109a957806382f91968146109be578063869f9469146109ea576103ad565b80632d00f1ee116102d757806364bdb6671161026a578063741bef1a11610239578063741bef1a146109245780637c33fc05146109555780637c75b1151461096a5780637ed451a41461097f576103ad565b806364bdb667146108bb5780636e1ba283146108d05780636f4fef62146108fa578063715018a61461090f576103ad565b8063402b783d116102a6578063402b783d1461083757806349b647301461084c578063575350881461087a57806360e98d591461088f576103ad565b80632d00f1ee146107cc57806334d534a9146107e15780633aac3467146107f65780633ee850bc14610822576103ad565b80630d7eb1c41161034f57806322e5724c1161031e57806322e5724c146106f45780632753d84b14610709578063282bfd381461071e5780632b155e3714610751576103ad565b80630d7eb1c4146104e557806318e647dd1461050e5780631c52d90c1461066857806322a147e6146106df576103ad565b8063086c9edd1161038b578063086c9edd146104415780630af488f9146104a65780630ce0e700146104bb5780630d4455dc146104d0576103ad565b8063013b0f30146103b2578063022d44b7146103d957806307a3d6591461040e575b600080fd5b3480156103be57600080fd5b506103c7610ded565b60408051918252519081900360200190f35b3480156103e557600080fd5b5061040c600480360360208110156103fc57600080fd5b50356001600160a01b0316610e8e565b005b34801561041a57600080fd5b5061040c6004803603602081101561043157600080fd5b50356001600160a01b0316610eb0565b34801561044d57600080fd5b50610456611017565b60408051602080825283518183015283519192839290830191858101910280838360005b8381101561049257818101518382015260200161047a565b505050509050019250505060405180910390f35b3480156104b257600080fd5b506103c76110a1565b3480156104c757600080fd5b5061040c6110b2565b3480156104dc57600080fd5b5061040c61120a565b3480156104f157600080fd5b506104fa6113bf565b604080519115158252519081900360200190f35b34801561051a57600080fd5b5061040c600480360360c081101561053157600080fd5b6001600160a01b038235169160208101359160408201359190810190608081016060820135600160201b81111561056757600080fd5b82018360208201111561057957600080fd5b803590602001918460018302840111600160201b8311171561059a57600080fd5b91908080601f01602080910402602001604051908101604052809392919081815260200183838082843760009201919091525092958435959094909350604081019250602001359050600160201b8111156105f457600080fd5b82018360208201111561060657600080fd5b803590602001918460018302840111600160201b8311171561062757600080fd5b91908080601f0160208091040260200160405190810160405280939291908181526020018383808284376000920191909152509295506113cf945050505050565b34801561067457600080fd5b5061040c600480360361012081101561068c57600080fd5b506001600160a01b038135811691602081013582169160408201358116916060810135821691608082013581169160a081013582169160c0820135169061ffff60e0820135811691610100013516611540565b3480156106eb57600080fd5b5061040c611798565b34801561070057600080fd5b5061040c611814565b34801561071557600080fd5b506103c7611890565b34801561072a57600080fd5b5061040c6004803603602081101561074157600080fd5b50356001600160a01b03166118d2565b34801561075d57600080fd5b5061040c6004803603602081101561077457600080fd5b810190602081018135600160201b81111561078e57600080fd5b8201836020820111156107a057600080fd5b803590602001918460208302840111600160201b831117156107c157600080fd5b509092509050611959565b3480156107d857600080fd5b506103c7611cba565b3480156107ed57600080fd5b506103c7611db1565b34801561080257600080fd5b5061040c6004803603602081101561081957600080fd5b50351515611dc1565b34801561082e57600080fd5b506103c7611e43565b34801561084357600080fd5b506103c7611e54565b34801561085857600080fd5b5061040c6004803603602081101561086f57600080fd5b503561ffff16611eca565b34801561088657600080fd5b506103c7611ff0565b34801561089b57600080fd5b506108a4612001565b6040805161ffff9092168252519081900360200190f35b3480156108c757600080fd5b506108a4612014565b3480156108dc57600080fd5b5061040c600480360360208110156108f357600080fd5b503561201e565b34801561090657600080fd5b506108a461209c565b34801561091b57600080fd5b5061040c6120ad565b34801561093057600080fd5b5061093961213e565b604080516001600160a01b039092168252519081900360200190f35b34801561096157600080fd5b5061040c61214d565b34801561097657600080fd5b5061040c6122a0565b34801561098b57600080fd5b5061040c600480360360208110156109a257600080fd5b5035612346565b3480156109b557600080fd5b5061040c6123c4565b610939600480360360408110156109d457600080fd5b506001600160401b0381351690602001356124d9565b3480156109f657600080fd5b5061040c60048036036040811015610a0d57600080fd5b50803590602001356124ec565b348015610a2657600080fd5b50610939612576565b348015610a3b57600080fd5b506104fa612585565b348015610a5057600080fd5b506108a4612596565b348015610a6557600080fd5b506104fa60048036036020811015610a7c57600080fd5b50356001600160a01b03166125a7565b348015610a9857600080fd5b506104fa60048036036020811015610aaf57600080fd5b50356001600160401b031661262c565b348015610acb57600080fd5b506108a4612699565b348015610ae057600080fd5b506103c76126aa565b348015610af557600080fd5b5061040c6126b0565b348015610b0a57600080fd5b5061040c61272c565b348015610b1f57600080fd5b506103c76128df565b348015610b3457600080fd5b506103c76128e6565b348015610b4957600080fd5b506109396128f7565b348015610b5e57600080fd5b506103c7612906565b348015610b7357600080fd5b506103c7612917565b348015610b8857600080fd5b5061040c60048036036020811015610b9f57600080fd5b5035612928565b348015610bb257600080fd5b5061040c61292d565b348015610bc757600080fd5b5061040c6129a9565b348015610bdc57600080fd5b5061040c60048036036020811015610bf357600080fd5b810190602081018135600160201b811115610c0d57600080fd5b820183602082011115610c1f57600080fd5b803590602001918460018302840111600160201b83111715610c4057600080fd5b91908080601f016020809104026020016040519081016040528093929190818152602001838380828437600092019190915250929550612b6d945050505050565b348015610c8d57600080fd5b506103c7612c4d565b348015610ca257600080fd5b5061040c60048036036060811015610cb957600080fd5b5061ffff8135811691602081013582169160409091013516612c92565b348015610ce257600080fd5b5061040c612e7f565b348015610cf757600080fd5b5061040c61302c565b348015610d0c57600080fd5b506108a46130a8565b348015610d2157600080fd5b506103c76130b8565b348015610d3657600080fd5b5061040c60048036036060811015610d4d57600080fd5b506001600160a01b0381358116916020810135821691604090910135166130bf565b348015610d7b57600080fd5b506103c761323d565b348015610d9057600080fd5b5061040c60048036036020811015610da757600080fd5b50356001600160a01b0316613244565b348015610dc357600080fd5b5061040c60048036036060811015610dda57600080fd5b5080359060208101359060400135613297565b600b54600090600160201b900460ff1615610e395760405162461bcd60e51b8152600401808060200182810382526022815260200180613c8a6022913960400191505060405180910390fd5b620d2f00610e526003544261332390919063ffffffff16565b1015610e8557610e80610e706003544261332390919063ffffffff16565b620d2f009063ffffffff61332316565b610e88565b60005b90505b90565b601880546001600160a01b0319166001600160a01b0392909216919091179055565b610eb8612585565b610ef7576040805162461bcd60e51b81526020600482018190526024820152600080516020613b6c833981519152604482015290519081900360640190fd5b6000816001600160a01b03166359e02dd76040518163ffffffff1660e01b8152600401604080518083038186803b158015610f3157600080fd5b505afa158015610f45573d6000803e3d6000fd5b505050506040513d6040811015610f5b57600080fd5b5060200151905080610fb4576040805162461bcd60e51b815260206004820152601860248201527f43616e6e6f742061646420696e61637469766520666565640000000000000000604482015290519081900360640190fd5b601780546001600160a01b0319166001600160a01b03841690811790915542601681905560408051928352602083019190915280517f5a3d3d9197f5c60c16de28887dccf83284a4fd034b930272637c83307b4fffe79281900390910190a15050565b6060600c80548060200260200160405190810160405280929190818152602001828054801561109757602002820191906000526020600020906000905b82829054906101000a90046001600160401b03166001600160401b0316815260200190600801906020826007010492830192600103820291508084116110545790505b5050505050905090565b6000610e886016546276a700613380565b6110ba612585565b6110f9576040805162461bcd60e51b81526020600482018190526024820152600080516020613b6c833981519152604482015290519081900360640190fd5b600d546202a3006000821161114c576040805162461bcd60e51b815260206004820152601460248201527310da185b99d9481b9bdd081a5b9a5d1a585d195960621b604482015290519081900360640190fd5b8061115d428463ffffffff61332316565b101561119e576040805162461bcd60e51b81526020600482018190526024820152600080516020613b4c833981519152604482015290519081900360640190fd5b601154600b80546501000000000061ffff90931692830266ffff00000000001990911617905560408051918252517f236dec26d53c6a51390e98ed703106e132fd062b0e38b8a9cf8b4d13f47952c89181900360200190a150506011805461ffff191690556000600d55565b611212612585565b611251576040805162461bcd60e51b81526020600482018190526024820152600080516020613b6c833981519152604482015290519081900360640190fd5b6010546202a300600082116112a4576040805162461bcd60e51b815260206004820152601460248201527310da185b99d9481b9bdd081a5b9a5d1a585d195960621b604482015290519081900360640190fd5b806112b5428463ffffffff61332316565b10156112f6576040805162461bcd60e51b81526020600482018190526024820152600080516020613b4c833981519152604482015290519081900360640190fd5b601354601454601554611329926006926001600160a01b03600160301b909204821692908216911663ffffffff61340a16565b601354601454601554604080516001600160a01b03600160301b90950485168152928416602084015292168183015290517f75cd06e2a95bd62ad447184bf0950b3af3aabd0960994d09da9724686d0c17209181900360600190a150506000601055601380546601000000000000600160d01b0319169055601480546001600160a01b0319908116909155601580549091169055565b600b54600160201b900460ff1690565b6113d8336125a7565b6114135760405162461bcd60e51b8152600401808060200182810382526024815260200180613a226024913960400191505060405180910390fd5b84866001600160a01b0316336001600160a01b03167f7959c380174061a21a3ba80243a032ba9cd10dc8bd1736d7e835c94e97a35a9887878787604051808581526020018060200184815260200180602001838103835286818151815260200191508051906020019080838360005b8381101561149a578181015183820152602001611482565b50505050905090810190601f1680156114c75780820380516001836020036101000a031916815260200191505b50838103825284518152845160209182019186019080838360005b838110156114fa5781810151838201526020016114e2565b50505050905090810190601f1680156115275780820380516001836020036101000a031916815260200191505b50965050505050505060405180910390a4505050505050565b611548612585565b611587576040805162461bcd60e51b81526020600482018190526024820152600080516020613b6c833981519152604482015290519081900360640190fd5b600254156115d2576040805162461bcd60e51b8152602060048201526013602482015272185b1c9958591e481a5b9a5d1a585b1a5e9959606a1b604482015290519081900360640190fd5b6040805163e8e08cf160e01b8152600660048201526001600160a01b038b166024820152905173__KeepFactorySelection__________________9163e8e08cf1916044808301926000929190829003018186803b15801561163357600080fd5b505af4158015611647573d6000803e3d6000fd5b5050600b80544260025564ff000000001961ffff86811661ffff19918916620100000263ffff00001990941693909317169190911716600160201b17905550611691905085613498565b60408051630d4815e560e21b81526001600160a01b0388811660048301528781166024830152868116604483015291519185169163352057949160648082019260009290919082900301818387803b1580156116ec57600080fd5b505af1158015611700573d6000803e3d6000fd5b50506040805163bbe2bbd560e01b81526001600160a01b038b811660048301523060248301528a811660448301528981166064830152888116608483015287811660a48301529151918c16935063bbe2bbd5925060c48082019260009290919082900301818387803b15801561177557600080fd5b505af1158015611789573d6000803e3d6000fd5b50505050505050505050505050565b6117a1336125a7565b6117dc5760405162461bcd60e51b8152600401808060200182810382526024815260200180613a226024913960400191505060405180910390fd5b60408051428152905133917f6e7b45210b79c12cd1332babd8d86c0bbb9ca898a89ce0404f17064dbfba18c0919081900360200190a2565b61181d336125a7565b6118585760405162461bcd60e51b8152600401808060200182810382526024815260200180613a226024913960400191505060405180910390fd5b60408051428152905133917f07f0eaafadb9abb1d28da85d4b4c74f1939fd61b535c7f5ab501f618f07e76ee919081900360200190a2565b600c80546000919060001981019081106118a657fe5b6000918252602090912060048204015460039091166008026101000a90046001600160401b0316919050565b6118db336125a7565b6119165760405162461bcd60e51b8152600401808060200182810382526024815260200180613a226024913960400191505060405180910390fd5b6040805142815290516001600160a01b0383169133917f822b3073be62c5c7f143c2dcd71ee266434ee935d90a1eec3be34710ac8ec1a29181900360200190a350565b611961612585565b6119a0576040805162461bcd60e51b81526020600482018190526024820152600080516020613b6c833981519152604482015290519081900360640190fd5b6000805b82811015611bfc578383828181106119b857fe5b905060200201356001600160401b03166001600160401b03166305f5e10014156119e55760019150611bf4565b61c3508484838181106119f457fe5b905060200201356001600160401b03166001600160401b03161015611a4a5760405162461bcd60e51b815260040180806020018281038252602e815260200180613ab7602e913960400191505060405180910390fd5b6402540be400848483818110611a5c57fe5b905060200201356001600160401b03166001600160401b03161115611ab25760405162461bcd60e51b815260040180806020018281038252602e815260200180613c5c602e913960400191505060405180910390fd5b600081118015611b0c5750838360018303818110611acc57fe5b905060200201356001600160401b03166001600160401b0316848483818110611af157fe5b905060200201356001600160401b03166001600160401b0316145b15611b485760405162461bcd60e51b8152600401808060200182810382526027815260200180613a906027913960400191505060405180910390fd5b600081118015611ba25750838360018303818110611b6257fe5b905060200201356001600160401b03166001600160401b0316848483818110611b8757fe5b905060200201356001600160401b03166001600160401b0316105b15611bf4576040805162461bcd60e51b815260206004820152601d60248201527f4c6f742073697a65206172726179206d75737420626520736f72746564000000604482015290519081900360640190fd5b6001016119a4565b5080611c395760405162461bcd60e51b8152600401808060200182810382526028815260200180613bd96028913960400191505060405180910390fd5b7fffb1e2bce3c7a63d0cac5492540bd370e1156621adde36cd481262c2846a2b7b83834260405180806020018381526020018281038252858582818152602001925060200280828437600083820152604051601f909101601f1916909201829003965090945050505050a1611cb0601284846137a4565b505042600e555050565b600080600673__KeepFactorySelection__________________63d83d44b090916040518263ffffffff1660e01b81526004018082815260200191505060206040518083038186803b158015611d0f57600080fd5b505af4158015611d23573d6000803e3d6000fd5b505050506040513d6020811015611d3957600080fd5b50516040805163bc2c289f60e01b815290519192506001600160a01b0383169163bc2c289f91600480820192602092909190829003018186803b158015611d7f57600080fd5b505afa158015611d93573d6000803e3d6000fd5b505050506040513d6020811015611da957600080fd5b505191505090565b6000600c6000815481106118a657fe5b611dca336125a7565b611e055760405162461bcd60e51b8152600401808060200182810382526024815260200180613a226024913960400191505060405180910390fd5b604080518215158152426020820152815133927fbef11c059eefba82a15aea8a3a89c86fd08d7711c88fa7daea2632a55488510c928290030190a250565b6000610e88600e546202a300613380565b60055460408051630ae5ef8960e21b815290516000926001600160a01b031691632b97be24916004808301926020929190829003018186803b158015611e9957600080fd5b505afa158015611ead573d6000803e3d6000fd5b505050506040513d6020811015611ec357600080fd5b5051905090565b611ed2612585565b611f11576040805162461bcd60e51b81526020600482018190526024820152600080516020613b6c833981519152604482015290519081900360640190fd5b60098161ffff1611611f545760405162461bcd60e51b815260040180806020018281038252604a815260200180613a46604a913960600191505060405180910390fd5b6113888161ffff1610611f985760405162461bcd60e51b815260040180806020018281038252604b815260200180613cac604b913960600191505060405180910390fd5b6011805461ffff191661ffff831690811790915542600d81905560408051928352602083019190915280517f38cb7049f0daf658ca989e9ef6b850ef11e3740ff07a0c16706042c39adf48fc9281900390910190a150565b6000610e886010546202a300613380565b600b5465010000000000900461ffff1690565b600b5461ffff1681565b612027336125a7565b6120625760405162461bcd60e51b8152600401808060200182810382526024815260200180613a226024913960400191505060405180910390fd5b604080514281529051829133917f44b7f176bcc739b54bd0800fe491cbdea19df7d4d6b19c281462e6b4fc5043449181900360200190a350565b600b54600160581b900461ffff1690565b6120b5612585565b6120f4576040805162461bcd60e51b81526020600482018190526024820152600080516020613b6c833981519152604482015290519081900360640190fd5b600080546040516001600160a01b03909116907f8be0079c531659141344cd1fd0a4f28419497f9722a3daafe3b4186f6b6457e0908390a3600080546001600160a01b0319169055565b6004546001600160a01b031681565b600b54600160201b900460ff16156121965760405162461bcd60e51b8152600401808060200182810382526022815260200180613c8a6022913960400191505060405180910390fd5b6003546121ea576040805162461bcd60e51b815260206004820152601b60248201527f4465706f73697420686173206e6f74206265656e207061757365640000000000604482015290519081900360640190fd5b620d2f006122036003544261332390919063ffffffff16565b1015612256576040805162461bcd60e51b815260206004820152601960248201527f4465706f7369747320617265207374696c6c2070617573656400000000000000604482015290519081900360640190fd5b600b805464ff000000001916600160201b179055604080516001815290517f3a854be74be62dd3ba5f0fdb7aa5b535683f999e90cda09ba75a2d99b27225239181900360200190a1565b73__KeepFactorySelection__________________63e33cd97160066122cc6122c7611db1565b613518565b600b54604080516001600160e01b031960e087901b1681526004810194909452602484019290925261ffff808216604485015262010000909104166064830152516084808301926000929190829003018186803b15801561232c57600080fd5b505af4158015612340573d6000803e3d6000fd5b50505050565b61234f336125a7565b61238a5760405162461bcd60e51b8152600401808060200182810382526024815260200180613a226024913960400191505060405180910390fd5b604080514281529051829133917fe34c70bd3e03956978a5c76d2ea5f3a60819171afea6dee4fc12b2e45f72d43d9181900360200190a350565b6123cc612585565b61240b576040805162461bcd60e51b81526020600482018190526024820152600080516020613b6c833981519152604482015290519081900360640190fd5b6003541561244a5760405162461bcd60e51b815260040180806020018281038252603181526020018061394f6031913960400191505060405180910390fd5b600254420362ed4e0081106124905760405162461bcd60e51b815260040180806020018281038252604e815260200180613980604e913960600191505060405180910390fd5b42600355600b805464ff0000000019169055604080516000815290517f3a854be74be62dd3ba5f0fdb7aa5b535683f999e90cda09ba75a2d99b27225239181900360200190a150565b6018546001600160a01b03165b92915050565b6124f5336125a7565b6125305760405162461bcd60e51b8152600401808060200182810382526024815260200180613a226024913960400191505060405180910390fd5b60408051838152602081018390524281830152905133917f8ee737ab16909c4e9d1b750814a4393c9f84ab5d3a29c08c313b783fc846ae33919081900360600190a25050565b6000546001600160a01b031690565b6000546001600160a01b0316331490565b600b54600160381b900461ffff1690565b60015460408051634f558e7960e01b81526001600160a01b03848116600483015291516000939290921691634f558e7991602480820192602092909190829003018186803b1580156125f857600080fd5b505afa15801561260c573d6000803e3d6000fd5b505050506040513d602081101561262257600080fd5b505190505b919050565b6000805b600c5481101561269057826001600160401b0316600c828154811061265157fe5b6000918252602090912060048204015460039091166008026101000a90046001600160401b03161415612688576001915050612627565b600101612630565b50600092915050565b600b54600160481b900461ffff1690565b60195490565b6126b9336125a7565b6126f45760405162461bcd60e51b8152600401808060200182810382526024815260200180613a226024913960400191505060405180910390fd5b60408051428152905133917f8fd2cfb62a35fccc1ecef829f83a6c2f840b73dad49d3eaaa402909752086d4b919081900360200190a2565b612734612585565b612773576040805162461bcd60e51b81526020600482018190526024820152600080516020613b6c833981519152604482015290519081900360640190fd5b6016546276a700600082116127c6576040805162461bcd60e51b815260206004820152601460248201527310da185b99d9481b9bdd081a5b9a5d1a585d195960621b604482015290519081900360640190fd5b806127d7428463ffffffff61332316565b1015612818576040805162461bcd60e51b81526020600482018190526024820152600080516020613b4c833981519152604482015290519081900360640190fd5b601780546001600160a01b031981169091556000601655604080516001600160a01b03909216808352905190917f5e4bd1f6e413d39e172d96a88ee6b1b2ba9e1a6207e2ca34fa8c3ccd152ff21a919081900360200190a1600480546040805163d14dd41360e01b81526001600160a01b03858116948201949094529051929091169163d14dd4139160248082019260009290919082900301818387803b1580156128c257600080fd5b505af11580156128d6573d6000803e3d6000fd5b50505050505050565b6276a70090565b6000610e8860025462ed4e00613380565b6005546001600160a01b031681565b6000610e88600d546202a300613380565b6000610e88600f546202a300613380565b601955565b612936336125a7565b6129715760405162461bcd60e51b8152600401808060200182810382526024815260200180613a226024913960400191505060405180910390fd5b60408051428152905133917fa5ee7a2b0254fce91deed604506790ed7fa072d0b14cba4859c3bc8955b9caac919081900360200190a2565b6129b1612585565b6129f0576040805162461bcd60e51b81526020600482018190526024820152600080516020613b6c833981519152604482015290519081900360640190fd5b600e546202a30060008211612a43576040805162461bcd60e51b815260206004820152601460248201527310da185b99d9481b9bdd081a5b9a5d1a585d195960621b604482015290519081900360640190fd5b80612a54428463ffffffff61332316565b1015612a95576040805162461bcd60e51b81526020600482018190526024820152600080516020613b4c833981519152604482015290519081900360640190fd5b60128054612aa591600c91613865565b507fa801e49d33e856d89d06e647753d9d9dda3d0b0520c4346290ada455a00cafcc601260405180806020018281038252838181548152602001915080548015612b4057602002820191906000526020600020906000905b82829054906101000a90046001600160401b03166001600160401b031681526020019060080190602082600701049283019260010382029150808411612afd5790505b50509250505060405180910390a16000600e819055612b606012826138b3565b50612b696122a0565b5050565b612b76336125a7565b612bb15760405162461bcd60e51b8152600401808060200182810382526024815260200180613a226024913960400191505060405180910390fd5b604080516020808252835181830152835133937fa6e9673b5d53b3fe3c62b6459720f9c2a1b129d4f69acb771404ba8681b6a9309386939092839283019185019080838360005b83811015612c10578181015183820152602001612bf8565b50505050905090810190601f168015612c3d5780820380516001836020036101000a031916815260200191505b509250505060405180910390a250565b6005546040805163089bb25f60e11b815290516000926001600160a01b03169163113764be916004808301926020929190829003018186803b158015611e9957600080fd5b612c9a612585565b612cd9576040805162461bcd60e51b81526020600482018190526024820152600080516020613b6c833981519152604482015290519081900360640190fd5b61012c8361ffff161115612d1e5760405162461bcd60e51b815260040180806020018281038252602e815260200180613c01602e913960400191505060405180910390fd5b60648361ffff1611612d615760405162461bcd60e51b815260040180806020018281038252602e8152602001806139f4602e913960400191505060405180910390fd5b8161ffff168361ffff1611612da75760405162461bcd60e51b8152600401808060200182810382526046815260200180613ae56046913960600191505060405180910390fd5b8061ffff168261ffff1611612ded5760405162461bcd60e51b815260040180806020018281038252604c815260200180613cf7604c913960600191505060405180910390fd5b6013805461ffff191661ffff85811691821763ffff00001916620100008683169081029190911765ffff000000001916600160201b9286169283021790935542600f81905560408051938452602084019490945282840191909152606082015290517fc9e225c2db3e9f70966e6c0403de785bcda0172ec4e41111a6e8f4b85b1f30fb916080908290030190a1505050565b612e87612585565b612ec6576040805162461bcd60e51b81526020600482018190526024820152600080516020613b6c833981519152604482015290519081900360640190fd5b600f546202a30060008211612f19576040805162461bcd60e51b815260206004820152601460248201527310da185b99d9481b9bdd081a5b9a5d1a585d195960621b604482015290519081900360640190fd5b80612f2a428463ffffffff61332316565b1015612f6b576040805162461bcd60e51b81526020600482018190526024820152600080516020613b4c833981519152604482015290519081900360640190fd5b601354600b805468ffff00000000000000191661ffff808416600160381b8102929092176affff00000000000000000019166201000085048216600160481b81029190911761ffff60581b1916600160201b90950491909116600160581b81029490941790925560408051918252602082019290925280820192909252517f07ac9ce7dc4b2edb6435fb2255e9e867f357ef2052b982ce468442aa9d6c1d50916060908290030190a150506013805465ffffffffffff191690556000600f55565b613035336125a7565b6130705760405162461bcd60e51b8152600401808060200182810382526024815260200180613a226024913960400191505060405180910390fd5b60408051428152905133917f1e61af503f1d7de21d5300094c18bf8700f82b2951a4d54dd2adda13f6b3da30919081900360200190a2565b600b5462010000900461ffff1681565b62ed4e0090565b6130c7612585565b613106576040805162461bcd60e51b81526020600482018190526024820152600080516020613b6c833981519152604482015290519081900360640190fd5b600254420362ed4e00811061314c5760405162461bcd60e51b815260040180806020018281038252604d815260200180613b8c604d913960600191505060405180910390fd5b6001600160a01b0384166131915760405162461bcd60e51b815260040180806020018281038252602d815260200180613c2f602d913960400191505060405180910390fd5b601380546001600160a01b03808716600160301b81026601000000000000600160d01b031990931692909217909255601480548684166001600160a01b0319918216811790925560158054948716949091168417905542601081905560408051938452602084019290925282820193909352606082019290925290517f1608ec8025d64cdb0ed78e62a67d271a33b9d738842a6eb6e6449bc3afab6dca9181900360800190a150505050565b6202a30090565b61324c612585565b61328b576040805162461bcd60e51b81526020600482018190526024820152600080516020613b6c833981519152604482015290519081900360640190fd5b61329481613569565b50565b6132a0336125a7565b6132db5760405162461bcd60e51b8152600401808060200182810382526024815260200180613a226024913960400191505060405180910390fd5b604080518381526020810183905242818301529051849133917f7f7d7327762d01d2c4a552ea0be2bc5a76264574a80aa78083e691a840e509f29181900360600190a3505050565b60008282111561337a576040805162461bcd60e51b815260206004820152601e60248201527f536166654d6174683a207375627472616374696f6e206f766572666c6f770000604482015290519081900360640190fd5b50900390565b60008083116133cd576040805162461bcd60e51b8152602060048201526014602482015273155c19185d19481b9bdd081a5b9a5d1a585d195960621b604482015290519081900360640190fd5b60006133df428563ffffffff61332316565b90508281106133f25760009150506124e6565b613402838263ffffffff61332316565b9150506124e6565b6001600160a01b03831661344f5760405162461bcd60e51b815260040180806020018281038252602381526020018061392c6023913960400191505060405180910390fd5b6003840180546001600160a01b039485166001600160a01b0319918216179091556004850180549385169382169390931790925560029093018054939092169216919091179055565b6001546001600160a01b0316156134f6576040805162461bcd60e51b815260206004820152601f60248201527f746274634465706f736974546f6b656e20697320616c72656164792073657400604482015290519081900360640190fd5b600180546001600160a01b0319166001600160a01b0392909216919091179055565b60008061353383613527613609565b9063ffffffff6136e116565b600b5490915061356290606490613556908490600160381b900461ffff166136e1565b9063ffffffff61373a16565b9392505050565b6001600160a01b0381166135ae5760405162461bcd60e51b81526004018080602001828103825260268152602001806139ce6026913960400191505060405180910390fd5b600080546040516001600160a01b03808516939216917f8be0079c531659141344cd1fd0a4f28419497f9722a3daafe3b4186f6b6457e091a3600080546001600160a01b0319166001600160a01b0392909216919091179055565b6004805460408051634c6afee560e11b8152905160009384936001600160a01b0316926398d5fdca9281830192602092829003018186803b15801561364d57600080fd5b505afa158015613661573d6000803e3d6000fd5b505050506040513d602081101561367757600080fd5b5051905080158061368f5750670de0b6b3a764000081115b15610e88576040805162461bcd60e51b815260206004820152601b60248201527f53797374656d2072657475726e65642061206261642070726963650000000000604482015290519081900360640190fd5b6000826136f0575060006124e6565b828202828482816136fd57fe5b04146135625760405162461bcd60e51b8152600401808060200182810382526021815260200180613b2b6021913960400191505060405180910390fd5b6000808211613790576040805162461bcd60e51b815260206004820152601a60248201527f536166654d6174683a206469766973696f6e206279207a65726f000000000000604482015290519081900360640190fd5b600082848161379b57fe5b04949350505050565b828054828255906000526020600020906003016004900481019282156138555791602002820160005b838211156138205783356001600160401b031683826101000a8154816001600160401b0302191690836001600160401b0316021790555092602001926008016020816007010492830192600103026137cd565b80156138535782816101000a8154906001600160401b030219169055600801602081600701049283019260010302613820565b505b506138619291506138ec565b5090565b82805482825590600052602060002090600301600490048101928215613855576000526020600020916003016004900482015b82811115613855578254825591600101919060010190613898565b8154818355818111156138e75760030160049004816003016004900483600052602060002091820191016138e79190613911565b505050565b610e8b91905b8082111561386157805467ffffffffffffffff191681556001016138f2565b610e8b91905b80821115613861576000815560010161391756fe496e76616c6964204b4545502d7374616b656420666163746f72792061646472657373656d657267656e637950617573654e65774465706f736974732063616e206f6e6c792062652063616c6c6564206f6e6365656d657267656e637950617573654e65774465706f736974732063616e206f6e6c792062652063616c6c65642077697468696e203138302064617973206f6620696e697469616c697a6174696f6e4f776e61626c653a206e6577206f776e657220697320746865207a65726f2061646472657373496e697469616c20636f6c6c61746572616c697a65642070657263656e74206d757374206265203e3d203130302543616c6c6572206973206e6f7420617070726f76656420746f206c6f67206576656e74735369676e6572206665652064697669736f72206d7573742062652067726561746572207468616e20392c20666f722061207369676e6572206665652074686174206973203c3d203130254c6f742073697a65206172726179206d757374206e6f742068617665206475706c6963617465734c6f742073697a6573206c657373207468616e20302e303030352042544320617265206e6f7420616c6c6f776564556e646572636f6c6c61746572616c697a6564207468726573686f6c64206d757374206265203c20696e697469616c20636f6c6c61746572616c697a65642070657263656e74536166654d6174683a206d756c7469706c69636174696f6e206f766572666c6f77476f7665726e616e63652064656c617920686173206e6f7420656c61707365644f776e61626c653a2063616c6c6572206973206e6f7420746865206f776e6572626567696e4b656570466163746f726965735570646174652063616e206f6e6c792062652063616c6c65642077697468696e203138302064617973206f6620696e697469616c697a6174696f6e4c6f742073697a65206172726179206d75737420616c7761797320636f6e7461696e203120425443496e697469616c20636f6c6c61746572616c697a65642070657263656e74206d757374206265203c3d20333030254b454550207374616b656420666163746f7279206d7573742062652061206e6f6e7a65726f20616464726573734c6f742073697a65732067726561746572207468616e203130302042544320617265206e6f7420616c6c6f7765644e6577206465706f73697473206172652063757272656e746c7920616c6c6f7765645369676e6572206665652064697669736f72206d757374206265206c657373207468616e20353030302c20666f722061207369676e6572206665652074686174206973203e20302e30322553657665726520756e646572636f6c6c61746572616c697a6564207468726573686f6c64206d757374206265203c20756e646572636f6c6c61746572616c697a6564207468726573686f6c64a265627a7a7231582008571a72db7015de478e9c1ffa161b45361e071d1c61b72eff23de155973852264736f6c63430005110032",
  "source": "pragma solidity 0.5.17;\r\n\r\nimport {TBTCSystem} from \"../../../contracts/system/TBTCSystem.sol\";\r\n\r\ncontract TBTCSystemStub is TBTCSystem {\r\n    address keepAddress = address(7);\r\n    uint256 oraclePrice = 10 ** 12;\r\n\r\n    constructor(address _priceFeed, address _relay)\r\n        // Set expected factory address to 0-address.\r\n        // Address is irelevant as test use forceMint function to bypass ACL\r\n        TBTCSystem(_priceFeed, _relay)\r\n    public {\r\n        // solium-disable-previous-line no-empty-blocks\r\n        lotSizesSatoshis = [10**5, 10**6, 10**7, 2 * 10**7, 5 * 10**7, 10**8]; // [0.01, 0.1, 0.2, 0.5, 1.0] BTC\r\n    }\r\n\r\n    function setOraclePrice(uint256 _oraclePrice) external {\r\n        oraclePrice = _oraclePrice;\r\n    }\r\n\r\n    /// @dev Override TBTCSystem.fetchBitcoinPrice, don't call out to the price feed.\r\n    function fetchBitcoinPrice() external view returns (uint256) {\r\n        return oraclePrice;\r\n    }\r\n\r\n    function setKeepAddress(address _keepAddress) external {\r\n        keepAddress = _keepAddress;\r\n    }\r\n\r\n    function requestNewKeep(uint64, uint256) external payable returns (address _keepAddress) {\r\n        return keepAddress;\r\n    }\r\n}\r\n",
  "sourcePath": "C:/Users/Zyra/Desktop/pfk/tbtc/solidity/contracts/test/system/TBTCSystemStub.sol",
  "compiler": {
    "name": "solc",
    "version": "0.5.17+commit.d19bba13.Emscripten.clang"
  },
  "schemaVersion": "3.3.1",
  "updatedAt": "2020-10-27T11:33:58.723Z",
  "devdoc": {
    "methods": {
      "approvedToLog(address)": {
        "details": "checks tbtcDepositToken to see if the caller represents                     an existing deposit.                     We don't require this, so deposits are not bricked if the system borks.",
        "params": {
          "_caller": "The address of the calling contract."
        },
        "return": "True if approved, otherwise false."
      },
      "beginCollateralizationThresholdsUpdate(uint16,uint16,uint16)": {
        "details": "This can be finalized by calling `finalizeCollateralizationThresholdsUpdate`         Anytime after `governanceTimeDelay` has elapsed.",
        "params": {
          "_initialCollateralizedPercent": "default signing bond percent for new deposits",
          "_severelyUndercollateralizedThresholdPercent": "second undercollateralization trigger",
          "_undercollateralizedThresholdPercent": "first undercollateralization trigger"
        }
      },
      "beginEthBtcPriceFeedAddition(address)": {
        "details": "This can be finalized by calling `finalizeEthBtcPriceFeedAddition`      anytime after `priceFeedGovernanceTimeDelay` has elapsed."
      },
      "beginKeepFactoriesUpdate(address,address,address)": {
        "details": "It can be finalized by calling `finalizeKeepFactoriesUpdate`      any time after `governanceTimeDelay` has elapsed. This can be      called more than once until finalized to reset the values and      timer. An update can only be initialized before      `keepFactoriesUpgradeabilityPeriod` elapses after system initialization;      after that, no further updates can be initialized, though any pending      update can be finalized. All calls must set all three properties to      their desired value; leaving a value as 0, even if it was previously      set, will update that value to be 0. ETH-bond-only factory or the      strategy are allowed to be set as zero addresses.",
        "params": {
          "_factorySelector": "Address of the keep factory selection strategy.",
          "_fullyBackedFactory": "Address of the ETH-bond-only-based factory.",
          "_keepStakedFactory": "Address of the KEEP staked based factory."
        }
      },
      "beginLotSizesUpdate(uint64[])": {
        "details": "Lot size array should always contain 10**8 satoshis (1 BTC) and         cannot contain values less than 50000 satoshis (0.0005 BTC) or         greater than 10**10 satoshis (100 BTC). Lot size array must not         have duplicates and it must be sorted.         This can be finalized by calling `finalizeLotSizesUpdate`         anytime after `governanceTimeDelay` has elapsed.",
        "params": {
          "_lotSizes": "Array of allowed lot sizes."
        }
      },
      "beginSignerFeeDivisorUpdate(uint16)": {
        "details": "This can be finalized by calling `finalizeSignerFeeDivisorUpdate`         Anytime after `governanceTimeDelay` has elapsed.",
        "params": {
          "_signerFeeDivisor": "The signer fee divisor."
        }
      },
      "fetchBitcoinPrice()": {
        "details": "Override TBTCSystem.fetchBitcoinPrice, don't call out to the price feed."
      },
      "finalizeCollateralizationThresholdsUpdate()": {
        "details": "`beginCollateralizationThresholdsUpdate` must be called first, once `governanceTimeDelay`       has passed, this function can be called to set the collateralization thresholds to the       value set in `beginCollateralizationThresholdsUpdate`"
      },
      "finalizeEthBtcPriceFeedAddition()": {
        "details": "`beginEthBtcPriceFeedAddition` must be called first; once      `ethBtcPriceFeedAdditionInitiated` has passed, this function can be      called to append a new price feed."
      },
      "finalizeKeepFactoriesUpdate()": {
        "details": "`beginKeepFactoriesUpdate` must be called first; once      `governanceTimeDelay` has passed, this function can be called to      set factories addresses to the values set in `beginKeepFactoriesUpdate`."
      },
      "finalizeLotSizesUpdate()": {
        "details": "`beginLotSizesUpdate` must be called first, once `governanceTimeDelay`       has passed, this function can be called to set the lot sizes to the       value set in `beginLotSizesUpdate`"
      },
      "finalizeSignerFeeDivisorUpdate()": {
        "details": "`beginSignerFeeDivisorUpdate` must be called first, once `governanceTimeDelay`       has passed, this function can be called to set the signer fee divisor to the       value set in `beginSignerFeeDivisorUpdate`"
      },
      "getAllowNewDeposits()": {
        "return": "True if new deposits should be allowed by the emergency pause button"
      },
      "getAllowedLotSizes()": {
        "return": "Uint64 array of allowed lot sizes"
      },
      "getMaximumLotSize()": {
        "return": "The largest lot size, in satoshis."
      },
      "getMinimumLotSize()": {
        "return": "The lowest lot size, in satoshis."
      },
      "getNewDepositFeeEstimate()": {
        "return": "Uint256 estimate."
      },
      "getSignerFeeDivisor()": {
        "return": "The signer fee divisor."
      },
      "initialize(address,address,address,address,address,address,address,uint16,uint16)": {
        "details": "Only the Deposit factory should call this, and only once.",
        "params": {
          "_defaultKeepFactory": "ECDSA keep factory backed by KEEP stake.",
          "_depositFactory": "Deposit Factory. More info in `DepositFactory`.",
          "_feeRebateToken": "FeeRebateToken (FRT). More info in `FeeRebateToken`.",
          "_keepSize": "Signing group size.",
          "_keepThreshold": "Signing group honesty threshold.",
          "_masterDepositAddress": "Master Deposit address. More info in `Deposit`.",
          "_tbtcDepositToken": "TBTCDepositToken (TDT). More info in `TBTCDepositToken`.",
          "_tbtcToken": "TBTCToken. More info in `TBTCToken`."
        }
      },
      "isAllowedLotSize(uint64)": {
        "params": {
          "_requestedLotSizeSatoshis": "Lot size to check."
        },
        "return": "True if lot size is allowed, false otherwise."
      },
      "isOwner()": {
        "details": "Returns true if the caller is the current owner."
      },
      "logCourtesyCalled()": {
        "details": "We append the sender, which is the deposit contract that called."
      },
      "logCreated(address)": {
        "details": "We append the sender, which is the deposit contract that called.",
        "params": {
          "_keepAddress": "The address of the associated keep."
        },
        "return": "True if successful, else revert."
      },
      "logExitedCourtesyCall()": {
        "details": "We append the sender, which is the deposit contract that called."
      },
      "logFraudDuringSetup()": {
        "details": "We append the sender, which is the deposit contract that called."
      },
      "logFunded(bytes32)": {
        "details": "We append the sender, which is the deposit contract that called."
      },
      "logFunderRequestedAbort(bytes)": {
        "details": "We append the sender, which is the deposit contract that called."
      },
      "logGotRedemptionSignature(bytes32,bytes32,bytes32)": {
        "details": "We append the sender, which is the deposit contract that called.",
        "params": {
          "_digest": "signed digest.",
          "_r": "signature r value.",
          "_s": "signature s value."
        }
      },
      "logLiquidated()": {
        "details": "We append the sender, which is the deposit contract that called."
      },
      "logRedeemed(bytes32)": {
        "details": "We append the sender, which is the deposit contract that called."
      },
      "logRedemptionRequested(address,bytes32,uint256,bytes,uint256,bytes)": {
        "details": "This is the only event without an explicit timestamp.",
        "params": {
          "_digest": "The calculated sighash digest.",
          "_outpoint": "The 36 byte outpoint.",
          "_redeemerOutputScript": "The redeemer's length-prefixed output script.",
          "_requestedFee": "The requester or bump-system specified fee.",
          "_requester": "The ethereum address of the requester.",
          "_utxoValue": "The size of the utxo in sat."
        },
        "return": "True if successful, else revert."
      },
      "logRegisteredPubkey(bytes32,bytes32)": {
        "details": "We append the sender, which is the deposit contract that called."
      },
      "logSetupFailed()": {
        "details": "We append the sender, which is the deposit contract that called."
      },
      "logStartedLiquidation(bool)": {
        "details": "We append the sender, which is the deposit contract that called.",
        "params": {
          "_wasFraud": "True if liquidating for fraud."
        }
      },
      "owner()": {
        "details": "Returns the address of the current owner."
      },
      "refreshMinimumBondableValue()": {
        "details": "It is recommended to call this function on tBTC initialization and after minimum lot size update."
      },
      "renounceOwnership()": {
        "details": "Leaves the contract without owner. It will not be possible to call `onlyOwner` functions anymore. Can only be called by the current owner.     * > Note: Renouncing ownership will leave the contract without an owner, thereby removing any functionality that is only available to the owner."
      },
      "transferOwnership(address)": {
        "details": "Transfers ownership of the contract to a new account (`newOwner`). Can only be called by the current owner."
      }
    }
  },
  "userdoc": {
    "methods": {
      "approvedToLog(address)": {
        "notice": "Checks if an address is an allowed logger."
      },
      "beginCollateralizationThresholdsUpdate(uint16,uint16,uint16)": {
        "notice": "Set the system collateralization levels"
      },
      "beginEthBtcPriceFeedAddition(address)": {
        "notice": "Add a new ETH/BTC price feed contract to the priecFeed."
      },
      "beginKeepFactoriesUpdate(address,address,address)": {
        "notice": "Sets the addresses of the KEEP-staked ECDSA keep factory,         ETH-only-backed ECDSA keep factory and the selection strategy         that will choose between the two factories for new deposits.         When the ETH-only-backed factory and strategy are not set TBTCSystem         will use KEEP-staked factory. When both factories and strategy         are set, TBTCSystem load balances between two factories based on         the selection strategy."
      },
      "beginLotSizesUpdate(uint64[])": {
        "notice": "Set the allowed deposit lot sizes."
      },
      "beginSignerFeeDivisorUpdate(uint16)": {
        "notice": "Set the system signer fee divisor."
      },
      "emergencyPauseNewDeposits()": {
        "notice": "One-time-use emergency function to disallow future deposit creation for 10 days."
      },
      "finalizeCollateralizationThresholdsUpdate()": {
        "notice": "Finish setting the system collateralization levels"
      },
      "finalizeEthBtcPriceFeedAddition()": {
        "notice": "Finish adding a new price feed contract to the priceFeed."
      },
      "finalizeKeepFactoriesUpdate()": {
        "notice": "Finish setting addresses of the KEEP-staked ECDSA keep factory,         ETH-only-backed ECDSA keep factory, and the selection strategy         that will choose between the two factories for new deposits."
      },
      "finalizeLotSizesUpdate()": {
        "notice": "Finish setting the accepted system lot sizes."
      },
      "finalizeSignerFeeDivisorUpdate()": {
        "notice": "Finish setting the system signer fee divisor."
      },
      "getAllowNewDeposits()": {
        "notice": "Returns whether new deposits should be allowed."
      },
      "getAllowedLotSizes()": {
        "notice": "Gets the allowed lot sizes"
      },
      "getGovernanceTimeDelay()": {
        "notice": "Returns the time delay used for governance actions except for         price feed additions."
      },
      "getInitialCollateralizedPercent()": {
        "notice": "Get the system initial collateralized level for new deposits."
      },
      "getKeepFactoriesUpgradeabilityPeriod()": {
        "notice": "Returns the time period when keep factories upgrades are allowed."
      },
      "getMaximumLotSize()": {
        "notice": "Return the largest lot size currently enabled for deposits."
      },
      "getMinimumLotSize()": {
        "notice": "Return the lowest lot size currently enabled for deposits."
      },
      "getNewDepositFeeEstimate()": {
        "notice": "Gets a fee estimate for creating a new Deposit."
      },
      "getPriceFeedGovernanceTimeDelay()": {
        "notice": "Returns the time delay used for price feed addition governance         actions."
      },
      "getRemainingCollateralizationThresholdsUpdateTime()": {
        "notice": "Get the time remaining until the collateralization thresholds can be updated."
      },
      "getRemainingEthBtcPriceFeedAdditionTime()": {
        "notice": "Get the time remaining until the signer fee divisor can be updated."
      },
      "getRemainingKeepFactoriesUpdateTime()": {
        "notice": "Get the time remaining until the Keep ETH-only-backed ECDSA keep         factory and the selection strategy that will choose between it         and the KEEP-backed factory can be updated."
      },
      "getRemainingKeepFactoriesUpgradeabilityTime()": {
        "notice": "Get the time remaining until Keep factories can no longer be updated."
      },
      "getRemainingLotSizesUpdateTime()": {
        "notice": "Get the time remaining until the lot sizes can be updated."
      },
      "getRemainingSignerFeeDivisorUpdateTime()": {
        "notice": "Get the time remaining until the signer fee divisor can be updated."
      },
      "getSeverelyUndercollateralizedThresholdPercent()": {
        "notice": "Get the system severe undercollateralization level for new deposits"
      },
      "getSignerFeeDivisor()": {
        "notice": "Gets the system signer fee divisor."
      },
      "getUndercollateralizedThresholdPercent()": {
        "notice": "Get the system undercollateralization level for new deposits"
      },
      "initialize(address,address,address,address,address,address,address,uint16,uint16)": {
        "notice": "Initialize contracts"
      },
      "isAllowedLotSize(uint64)": {
        "notice": "Check if a lot size is allowed."
      },
      "logCourtesyCalled()": {
        "notice": "Fires a CourtesyCalled event."
      },
      "logCreated(address)": {
        "notice": "Fires a Created event."
      },
      "logExitedCourtesyCall()": {
        "notice": "Fires a ExitedCourtesyCall event"
      },
      "logFraudDuringSetup()": {
        "notice": "Fires a FraudDuringSetup event."
      },
      "logFunded(bytes32)": {
        "notice": "Fires a Funded event."
      },
      "logFunderRequestedAbort(bytes)": {
        "notice": "Fires a FunderAbortRequested event."
      },
      "logGotRedemptionSignature(bytes32,bytes32,bytes32)": {
        "notice": "Fires a GotRedemptionSignature event."
      },
      "logLiquidated()": {
        "notice": "Fires a Liquidated event"
      },
      "logRedeemed(bytes32)": {
        "notice": "Fires a Redeemed event"
      },
      "logRedemptionRequested(address,bytes32,uint256,bytes,uint256,bytes)": {
        "notice": "Fires a RedemptionRequested event."
      },
      "logRegisteredPubkey(bytes32,bytes32)": {
        "notice": "Fires a RegisteredPubkey event."
      },
      "logSetupFailed()": {
        "notice": "Fires a SetupFailed event."
      },
      "logStartedLiquidation(bool)": {
        "notice": "Fires a StartedLiquidation event."
      },
      "refreshMinimumBondableValue()": {
        "notice": "Refreshes the minimum bondable value required from the operator to join the sortition pool for tBTC. The minimum bondable value is equal to the current minimum lot size collateralized 150% multiplied by the current BTC price."
      },
      "resumeNewDeposits()": {
        "notice": "Anyone can reactivate deposit creations after the pause duration is over."
      }
    }
  }
}